:020000040800F2
:10000000F83401205D0200088733000871330008CE
:10001000853300086D1700084F62000800000000DB
:100020000000000000000000000000009D0100082A
:10003000832D000800000000F90100082D40000891
:100040006B62000877020008770200087702000858
:100050007702000877020008852D0008252E000889
:10006000612E00087F2E00089D2E000877020008F0
:10007000770200087702000877020008770200087C
:10008000770200087702000877020008651F000861
:10009000711700087702000877020008BB2E0008DD
:1000A0005D41000861410008770200085F410008D7
:1000B0008D4100089D410008770200087702000882
:1000C000770200087702000877020008593A000812
:1000D0005B3A00087D450008154600089546000873
:1000E000A52D00087702000877020008C541000826
:1000F000D3410008D14100087702000877020008C8
:100100007702000877020008B14100085D3A000854
:10011000E14400080D450008770200087702000856
:1001200077020008770200087702000877020008CB
:100130007702000877020008770200089D24000873
:100140009D20000877020008770200080D3400089F
:10015000770200087702000877020008770200089B
:10016000770200087702000877020008770200088B
:10017000770200087702000877020008770200087B
:100180007702000877020008DFF80CD000F050FE7C
:1001900000480047217A0008F83401202C4B1968E8
:1001A0000868B0E8F04F80F30988BFF36F8F4FF015
:1001B000000080F3118870470000000008480068C4
:1001C000006880F308884FF0000080F3148862B65E
:1001D00061B6BFF34F8FBFF36F8F00DF00BF00BF6B
:1001E00008ED00E0DFF80C00016841F470010160E7
:1001F000704700BF88ED00E0EFF30980BFF36F8F19
:10020000134B1A681EF0100F08BF20ED108A20E96A
:10021000F04F106009B44FF0010080F31188BFF374
:100220004F8FBFF36F8F08F09BFE4FF0000080F3FD
:10023000118809BC19680868B0E8F04F1EF0100F6B
:1002400008BFB0EC108A80F30988BFF36F8F704746
:10025000D8020020EFF30580704700000648804771
:1002600006480047FEE7FEE7FEE7FEE7FEE7FEE79B
:10027000FEE7FEE7FEE7FEE75940000889010008B7
:1002800040EA01039B0703D009E008C9121F08C018
:10029000042AFAD203E011F8013B00F8013B521E98
:1002A000F9D27047D2B201E000F8012B491EFBD20F
:1002B00070470022F6E710B513460A460446194671
:1002C000FFF7F0FF204610BD30B50546002003467D
:1002D00000E05B1C934205D2EC5CC85C201A01D1A3
:1002E000002CF6D130BD00000FB400B58DB010A9C0
:1002F00009900B9000914FF0FF300A9000200C9075
:1003000005480690054807906A4609A80F9900F02D
:1003100039FC0DB05DF814FBA10B0008BF0B000801
:100320002DE9FF5F1D464FF0FF3BD5E901469146A1
:100330005F464FF00008A9697F1C01988847296A29
:10034000824688470028F6D1BAF1FF3F0CD024F44A
:10035000C064002E19DD600614D5BAF12B0F09D048
:10036000BAF12D0F0ED103E0584604B0BDE8F09F5E
:1003700044F48064A9697F1C01988847761E8246F0
:10038000002E02DDBAF1300F03D0B9F1000F26D0F4
:1003900032E0A969761E44F400747F1C01988847F6
:1003A0008246002E05DDBAF1780F06D0BAF1580F5B
:1003B00003D0B9F1000F10D01EE0B9F1000F02D048
:1003C000B9F1100F18D1A969761E24F400747F1CAE
:1003D000019888478246102002E0082000E00A20A9
:1003E000814609E008FB0908A969761E44F40074F7
:1003F0007F1C019888478246002E05DD49465046FD
:1004000000F0ACFB0028EDDAE96901988847A00507
:1004100002D46FF00100A8E7E00725D1600613D5EC
:10042000600502D5C8F1000000E0404629680A1DB9
:100430002A600968220501D5087015E0220701D558
:10044000088011E008600FE02868011D296000683D
:10045000210502D580F8008006E0210702D5A0F82A
:10046000008001E0C0F8008038467EE72DE9FF4FAC
:10047000087883B09946FF2805D0491C2D2804D060
:100480000024002008E000200BE00124F9E700EB45
:10049000800003EB4000491C0B78FF2BF7D104B11F
:1004A000404200230293147819461D462D2C01D09A
:1004B0002B2C04D1521C2D2C13D000240294AA46BC
:1004C0001478FF2C0FD00A25A3FB057801FB0581CA
:1004D0004FF0000C03FB0C11521CE3194AEB010115
:1004E000EEE70124EAE7814453EA010002D019F55E
:1004F000C87F06DA03980021C0E9001107B0BDE803
:10050000F08F0025AE4E2F46DFF8B882184600F077
:100510006AFCCDE90001B9F1000002DAC9F100047A
:1005200000E004460023A74A1AEB030B42EB045AEF
:1005300012E0E00707D02A4633463846414600F02D
:10054000ECF9074688462A4633461046194600F01D
:10055000E4F905460E466410002CEAD1DDE90001FD
:10056000B9F1000F5A46534606DA00F0CDFB3A4681
:10057000434600F0C9FB05E000F0CFF93A46434698
:1005800000F0CBF9029A0AB181F00041039AC2E966
:100590000001B3E72DE9FF4F1F468DB0D7E90146B3
:1005A0004FF0FF382E2045464FF000090B90B969F7
:1005B0006D1C0E988847396A824688470028F6D114
:1005C000BAF1FF3F0AD024F4D064002E11DDBAF155
:1005D0002B0F08D0BAF12D0F0BD102E0404611B01D
:1005E0008DE744F48064B9696D1C0E988847824693
:1005F000761E6946600501D52D2000E02B208DF880
:10060000000001F1010B0DF1200809E0B9696D1C32
:100610000E98884782460F9844F40074761E056051
:10062000002E02DDBAF1300FF0D00B998A453ED191
:1006300044F0800406E00F99681CA9F1010944F414
:1006400000740860B9696D1C761E0E988847824652
:100650003028F0D02BE00B998A4505D1200603D431
:1006600044F08004761E18E0504605F0F7FE08B30B
:100670000DF11301761E44F400748B4508D2AAF1E3
:1006800030000BF8010B200607D5A9F1010003E0AB
:10069000200602D409F101008146A00502D50F9978
:1006A000681C0860B9696D1C0E9888478246002E48
:1006B000D1DC53E0002E51DDBAF1650F02D0BAF162
:1006C000450F4BD1A00549D5B9696D1C24F4407480
:1006D000761E0E9888478246002E0CDD2B2804D00B
:1006E000BAF12D0F07D144F48074B9696D1C0E98CE
:1006F00088478246761EE00501D52D2100E02B219A
:1007000008F8011BCDF82C8021E00DF12901761E9F
:1007100044F4007488450CD2AAF1300010F0FF00B8
:1007200088F8000002D10B99884509D908F1010821
:1007300006E0E00501D5244801E042F20F70814651
:10074000B9696D1C0E98884782460F980560002E87
:1007500004DD504605F082FE0028D6D1F9690E98D6
:100760008847FF208BF8000088F8000000200690E2
:1007700007904B466A4608A906A8FFF777FEA00532
:1007800002D46FF001002AE714F0240F0AD0E0072A
:1007900014D1DDE906123868031D3B600068C0E92A
:1007A00000120BE0DDE9060100F054F90146E00714
:1007B00004D13868021D3A600068016028460EE7DF
:1007C000000014400000F03FF1D8FFFF2DE9FE4F7C
:1007D000804681EA0300C00F0C46009021F00041E2
:1007E00023F00045B8EB0200A94105D2404621465E
:1007F00090461C460B46024623F00040104347D06B
:10080000270DC7F30A00C3F30A510290401A019062
:1008100040286BDAC3F3130040F4801B0098924623
:1008200020B10023D2EB030A63EB0B0B019859466E
:10083000C0F14002504600F070F906460D465046A1
:100840005946019A00F078F910EB08006141002444
:1008500087EA115284EAE7731A4340D0009A62B3E0
:10086000019A012A4FEA075215DC001B61EB0201D5
:100870004FF0004202EA0752CDE90042001C41F568
:10088000801132462B4600F0F1F903B0BDE8F08F3D
:1008900040462146F9E7001B61EB0201001C41F5CF
:1008A000801300185B412018A2F5001747EB0301E5
:1008B00040EAD570B6196D4111E06D084FEA360671
:1008C00045EAC0754FEA0752001B61EB0201001CAC
:1008D00041F5801149084FEA300000195141324674
:1008E0002B4603B0BDE8F04F00F0B1B900980122EB
:1008F00040000023D0EB020263EBE0730098214636
:100900004FEAE074B8EB000061EB0401E9E783F023
:1009100000435BE781F0004158E72DE9FE4F81EA93
:10092000030404F0004421F0004100944FF0000B58
:1009300023F0004350EA01045ED052EA03045BD086
:10094000C3F30A54C1F30A552C44A4F2F3340194BE
:10095000A0FB0254C1F3130141F48011C3F313034C
:1009600043F4801301FB024400FB034E840A970A00
:1009700044EA815447EA8357A4FB076802958D0A2D
:1009800005FB07854FEA932C04FB0C542705029DB9
:100990004FEA065847EA1637B5EB08056EEB070C29
:1009A000870E920E47EA811742EA8312A7FB0201E3
:1009B000B6EB0B0164EB00042B0D43EA0C335E181D
:1009C00044EB1C50DA465146E7FB0201C5F3130421
:1009D0004FEA0B3343EA14534FEA0432019C43EAD3
:1009E0000603A4F10C040294009CCDE900B400F0CD
:1009F0003DF903B0BDE8F08F00200146F9E700F0B3
:100A0000004230F000400AD0C10D01F56071C0F322
:100A1000160042EA0151C208400711437047002006
:100A20000146704730B5041E71F1000404DB4FF03D
:100A30000044404264EB0101141E73F1000405DB25
:100A40001C464FF00043524263EB0403994208BF37
:100A5000904230BD01F0004330B421F0004150EA33
:100A6000010206D00A0DA2F56072C1F31301002A3B
:100A700002DC30BC00207047440F44EAC104C100CE
:100A8000E01830BC00EBC25000F0AAB830B50B46FD
:100A9000014600202022012409E021FA02F59D42AE
:100AA00005D303FA02F5491B04FA02F52844151E82
:100AB000A2F10102F1DC30BD2DE9F05F0546002016
:100AC00092469B4688460646814640241BE02846BF
:100AD00041464746224600F0BDF953465A46C01AE1
:100AE000914110D311461846224600F016F82D1AEF
:100AF00067EB01084F4622460120002100F00DF867
:100B000017EB00094E41201EA4F10104DFDC48462A
:100B100031462A464346BDE8F09F202A04DB203AAE
:100B200000FA02F1002070479140C2F1200320FA40
:100B300003F3194390407047202A06DBCB17203A75
:100B400041FA02F043EAE07306E041FA02F3D040D2
:100B5000C2F1200291400843194670473A2800D25A
:100B6000303820F02002412A01D3A2F13700884218
:100B700001D34FF0FF3070470268114413780160D1
:100B800018467047D160044951610449116200213F
:100B90001161114600F074B9790B0008750E000858
:100BA000426842B1016811F8013B23B1521EC0E90D
:100BB0000012184670470121C160881E70474268C4
:100BC0005AB1C368016843B983688B4205D0491E96
:100BD000521CC0E90012002070474FF0FF307047F0
:100BE0000029A8BF7047401C490008BF20F0010041
:100BF000704710B4B0FA80FC00FA0CF050EA01041F
:100C000004BF10BC704749B1CCF1200421FA04F4B0
:100C100011FA0CF118BF012121430843A3EB0C0189
:100C2000CB1D4FEA00614FEA102042BF002010BCEC
:100C3000704700EBC35010440029A4BF10BC70479C
:100C4000401C490008BF20F0010010BC704710B5DF
:100C5000141E73F1000408DA401C41F100019218DF
:100C60005B411A4301D120F0010010BD2DE9F04D88
:100C700092469B4611B1B1FA81F202E0B0FA80F2DD
:100C800020329046FFF749FF04460F4640EA0A002B
:100C900041EA0B0153465A46084313D0114653EA22
:100CA000010019D0C8F14002504600F0D3F80546C3
:100CB0000E46504659464246FFF72FFF084305D0DF
:100CC000012004E020463946BDE8F08D00200543B0
:100CD00046EAE0762C4337430A986305E40AA0EB22
:100CE00008000022FD0A44EA47540A3002D50020D9
:100CF0000146E9E7010510196941DDE908450019D8
:100D00006941BDE8F04DA2E72DE9F04D81EA030409
:100D100004F0004B21F0004514464FF0000A23F088
:100D2000004150EA050220D054EA01021DD0C5F36B
:100D30000A570246C5F31303C1F31300C1F30A5661
:100D400040F4801543F48013A7EB0608101BD64629
:100D500008F2FD3873EB050002D308F1010801E049
:100D600092185B41B8F1000F03DA00200146BDE89C
:100D7000F08D00204FF48011064684460EE0171BCC
:100D800073EB050705D3121B63EB050306434CEA1F
:100D9000010C49084FEA300092185B4150EA010704
:100DA000EDD152EA030012D082EA040083EA050181
:100DB000084305D0101BAB4106D20122002306E0F8
:100DC00000224FF0004302E06FF0010253101AEBD3
:100DD00006004CEB085110EB0A0041EB0B01BDE89B
:100DE000F04DFFF734BF0EB540F2334202920022BD
:100DF000CDE900221346FFF739FF03B000BDC1F370
:100E00000A52C1F3130140F2FF3341F480119A42B8
:100E100002DA00200146704740F233439A42A2F2C0
:100E2000334202DC524200F015B8FFF776BE0000F4
:100E3000064C074D06E0E06840F0010394E8070027
:100E400098471034AC42F6D3FFF7A2F9A89F0008E8
:100E5000C89F0008202A04DB203A21FA02F0002172
:100E6000704721FA02F3D040C2F1200291400843BA
:100E700019467047C0B24FF4F05100F097B9000026
:100E80002DE9F34F8BB04FF0000801F10C000C4638
:100E90004FF0010B46460DF1080A019062690121ED
:100EA00001989047051E2DD0252D2CD0216A88470A
:100EB000C0B16269012101989047216A88470028E2
:100EC000F7D1411E62690198904700E0761CA16944
:100ED0000B988847216A88470028F7D1E1690B9869
:100EE0008847DBE7A1690B9888470746A84201D1EC
:100EF000761CD3E7E1690B9888477F1C02D1B8F1D3
:100F0000000F6FD046E1002762693D4639460198DF
:100F100090472A2804D16269012101989047012550
:100F2000DFF884926269012101989047A0F13001B5
:100F30000A290AD24F45E5DC07EB870100EB4107A0
:100F4000303FDFD445F01005ECE7E90601D46FF03F
:100F500000476C280AD04C2814D0682815D06A287D
:100F60000DD074281CD07A281AD01DE062690121A6
:100F7000019890476C2802D045F0040514E045F034
:100F800002050DE045F020050AE0626901210198A3
:100F90009047682802D045F0080505E045F4006553
:100FA0006269012101989047C4E9015765283DD045
:100FB00019DC58287AD00CDC452837D004DC2528E9
:100FC00026D0412831D131E046282FD047282CD1D6
:100FD0002CE05B2877D0612828D063287CD0642857
:100FE00023D15AE0D0E06F2848D008DC66281DD015
:100FF00067281BD0692821D06E2816D127E07028D9
:1010000045D0732868D0752847D078280DD14DE099
:10101000A1690B988847054625283FF469AFE16927
:101020000B9888476D1C3FF46AAFB3E023466A46CD
:101030006FF001000B99FFF7ADFA9EE045F040001C
:101040006060A80723464FF0000236D43EE0E80770
:101050007FF447AF2068011D21600068290501D594
:1010600006701BE7290701D5068017E7A90703D5F6
:10107000F117C0E9006111E706600FE745F0400095
:101080006060A80723464FF0080216D41EE040F621
:101090000E0125EA0100606016E045F04000606046
:1010A000A80723464FF00A0207D40FE045F040009E
:1010B0006060A80708D5234610226FF001000B9945
:1010C000AFF3008059E007E0234610226FF00100E3
:1010D0000B99FFF725F950E04FF000094F464B46BA
:1010E000632802D05B2806D040E0E80601D4012046
:1010F000A06001273AE062690121019890475E28CB
:1011000005D14FF00109626949460198904721696C
:1011100039B900210A46534643F82120491C0829C1
:10112000FADBB0B3216969B9C11700EBD162531181
:101130000AEB830122F01F02821A01200B68904003
:1011400003430B6062690121019890475D28E8D153
:10115000B9F1000F09D00020514651F82020D243A8
:1011600041F82020401C0828F7DB02AB22460097FC
:101170006FF001000B99AFF3008000280CDA401CDF
:1011800008D1BBF1000F05D04FF0FF300DB0BDE826
:10119000F08FFFE74046F9E7E90701D108F10108C0
:1011A00006444FF0000B79E6CCCCCC0C7F2801D95B
:1011B000002208E0064A02EB5002C007127800D174
:1011C000120902F00F020120904008407047000011
:1011D000689F000870B58C1810F8015B15F00703C4
:1011E00001D110F8013B2A1106D110F8012B03E0C0
:1011F00010F8016B01F8016B5B1EF9D12B0705D4C8
:101200000023521E0DD401F8013BFAE710F8013B10
:10121000CB1A921C03E013F8015B01F8015B521E2C
:10122000F9D5A142D8D3002070BD00002DE9FF4FB1
:10123000044689B00C30DDE918A90FC8DDF858B0B4
:101240008DE80F003A4E2168DFF8E880B14208BF10
:101250004FF0007003D0414508BF4FF0C06001213E
:1012600002F05CFB344D6068294600F054F92946D1
:10127000A06800F050F92068B04214BF4045092131
:10128000606802F023F82068B04214BF404509218D
:10129000A06802F01BF800258DF81650012717985A
:1012A0008DF817708DF812000A988DF813000C98BD
:1012B00006958DF814000B988DF81500ADF810B058
:1012C00004A9206801F08AFA0E2001F05BFB8DF87A
:1012D0000A508DF80B508DF80C70ADF80050ADF839
:1012E0000450ADF80250ADF80650ADF808508DF836
:1012F0000D70684601F06AF901220221206801F0B0
:1013000065FA2068B04208BF142102D0404508BFEA
:1013100040218DF81C108DF81DA08DF81E908DF8C1
:101320001F7007A802F030F80DB0BDE8F08F000084
:10133000006400400068004001000200F0B50F4664
:101340000646012183B01C461546880302F0FEFACA
:101350007068B0F5807F08BF082144D020DC1028D9
:1013600008BF04213FD00FDC012808BF00213AD07C
:10137000022808BF012136D0042808BF022132D03C
:10138000082808BF03212EE0202808BF05212AD005
:10139000402808BF062126D0802808BF072122E068
:1013A000B0F5805F08BF0C211DD00EDCB0F5007FCA
:1013B00008BF092117D0B0F5806F08BF0A2112D0ED
:1013C000B0F5006F08BF0B210DE0B0F5005F08BF5E
:1013D0000D2108D0B0F5804F08BF0E2103D0B0F525
:1013E000004F08BF0F21D6F800C0ACF18042B2F523
:1013F000003208BF002036D0ACF18042B2F5013295
:1014000008BF01202FD0ACF18042B2F5023208BFF4
:10141000022028D0ACF18042B2F5033208BF03208D
:1014200021D0ACF18042B2F5043208BF04201AD0BA
:10143000ACF18042B2F5053208BF052013D0ACF103
:101440008042B2F5063208BF06200CD0ACF18042D3
:10145000B2F5073208BF072005D0ACF18042B2F5E3
:10146000083208BF082002F0FAFA706800900020E5
:101470008DF804008DF8057001278DF80670684618
:1014800001F040FD7168B1F5807F32D01ADC10297F
:1014900008BF0A2032D00FDC012908BF06202DD05A
:1014A000022908BF072029D0042908BF082025D019
:1014B000082908BF092021E020291CBF40298029D4
:1014C0001CD116E0B1F5805F16D009DCB1F5007FC4
:1014D0000FD0B1F5806F18BFB1F5006F0CD00DE0E3
:1014E000B1F5005F1CBFB1F5804FB1F5004F05D1DC
:1014F00002E04FF0170001E04FF028008DF80800DF
:101500008DF809508DF80A408DF80B7002A801F093
:101510003BFF03B0F0BDF0B50546C1F3074083B013
:10152000002808BF00240AD0012808BF012406D0E3
:10153000022808BF022402D0032808BF0324C1F3F5
:101540000720002808BF002702D0012808BF012774
:1015500011F0FF0008BF002606D0012808BF0126B1
:1015600002D0022808BF02262968A1F18042B2F504
:10157000003208BF012037D0A1F18042B2F501321C
:1015800008BF022030D0A1F18042B2F5023208BF7C
:10159000042029D0A1F18042B2F5033208BF08200F
:1015A00022D0A1F18042B2F5043208BF10201BD036
:1015B000A1F18042B2F5053208BF202014D0A1F17C
:1015C0008042B2F5063208BF40200DD0A1F1804222
:1015D000B2F5073208BF802006D0A1F18042B2F5F3
:1015E000083208BF4FF48070012102F07FF968686B
:1015F00000908DF804408DF8067003208DF80500EA
:101600008DF807606946286801F002FE03B0F0BD5E
:101610002DE9F04184B01C4615460E4680460A9FCF
:1016200000F027F80021ADF80050ADF80210ADF839
:10163000081001966946404602F008FF0122114653
:10164000404602F09AFE0121404602F0C9FD4046A4
:1016500002F09DFE8DF80C008DF80D408DF80E7097
:1016600001208DF80F0003A801F08EFE04B0BDE844
:10167000F081A0F18041B1F5803143D0B0F1804FCD
:1016800048D0A0F18041B1F580613FD0A0F1804108
:10169000B1F5006142D0A0F18041B1F5406141D087
:1016A000A0F18041B1F5805140D0A0F18041B1F569
:1016B000A0513FD0A0F18041B1F582313ED0A0F1E0
:1016C0008041B1F5A0313DD0A0F18041B1F5A2310A
:1016D0003CD0A0F18041B1F5A4313BD0A0F18041D4
:1016E000B1F5C0513AD0A0F18041B1F5E05139D007
:1016F000A0F18041B1F5005118BF704701210802E7
:1017000002F00CB90121084602F020B901210220A3
:1017100002F004B90121084602F000B901210420B9
:1017200002F0FCB80121082002F0F8B801211020D5
:1017300002F0F4B80121202002F0F0B801210220CB
:1017400002F004B90121080402F000B901214804A3
:1017500002F0FCB80121880402F0F8B80121402011
:1017600002F0DCB80121802002F0D8B8FEE70000CA
:1017700010B5FA4C86B00221204600F09FFF0028E9
:1017800004BF06B010BD0421204600F0B3FEF449AA
:10179000204600F095FE6A460021204601F098F8A8
:1017A000F04900980860F048D0F86F10491CC0F864
:1017B0006F100098400907D0022800F04A810328E2
:1017C00000F08F8206B010BD009800F01F000F28B7
:1017D00072D044DC042870D018DC01286FD00328B4
:1017E0001CBF06B010BDE1489DF80B1080F820101A
:1017F0009DF80C1080F821109DF80D1080F8221033
:101800009DF80E1080F8231006B010BD092878D07E
:101810000A281CBF06B010BDD4489DF80B1080F8F4
:10182000D4109DF80C1080F8D5109DF80D1080F89C
:10183000D6109DF80E1080F8D7109DF80F1080F884
:10184000DC109DF8101080F8DD109DF8111080F864
:10185000DE109DF8121080F8DF1006B010BD1628BB
:1018600050D01D287ED01E287DD01F281CBF06B05A
:1018700010BDBE489DF80B1080F870109DF80C103C
:1018800080F871109DF80D1080F872109DF80E1000
:1018900080F873109DF80F1080F880109DF81010DC
:1018A00080F881109DF8111080F882109DF81210B8
:1018B00080F8831006B010BD75E062E0FFE7AB482A
:1018C0009DF80B1080F8A0109DF80C1080F8A11066
:1018D0009DF80D1080F8A2109DF80E1080F8A3104E
:1018E0009DF80F1080F8B0109DF8101080F8B4101B
:1018F0009DF8111080F8B8109DF8121080F8BC10F7
:10190000D8E719E099489DF80B1001709DF80C106C
:1019100041709DF80D1081709DF80E10C1709DF8FA
:101920000F1001749DF8101041749DF8111081740E
:101930009DF81210C174BDE78C489DF80B1080F81B
:10194000E4109DF80C1080F8E5109DF80D1080F85B
:10195000E6109DF80E1080F8E7109DF80F1080F843
:10196000F41001E053E040E09DF8101080F8F5100D
:101970009DF8111080F8F6109DF8121080F8F710FD
:1019800098E77A489DF80B1080F830109DF80C10FD
:1019900080F831109DF80D1080F832109DF80E106F
:1019A00080F8331086E771489DF80B1080F8141109
:1019B0009DF80C1080F815119DF80D1080F8161187
:1019C0009DF80E1080F817119DF80F1080F81C116B
:1019D0009DF8101080F81D119DF8111080F81E114F
:1019E0009DF8121080F81F1164E760489DF80B10F5
:1019F00080F860109DF80C1080F861109DF80D10B3
:101A000080F862109DF80E1080F8631052E7574876
:101A10009DF80B1080F840109DF80C1080F84110D4
:101A20009DF80D1080F842109DF80E1080F84310BC
:101A30009DF80F1080F850109DF8101080F851108C
:101A40009DF8111080F852109DF8121080F8531074
:101A500030E7009800F01F000F287CD00CDC042831
:101A60007AD004DC012810D003284AD039E10928B3
:101A700073D00A2857D034E1162828D01D2877D0F3
:101A80001E2876D01F2875D02BE138489DF80B1002
:101A900080F8A4109DF80C1080F8A5109DF80D108A
:101AA00080F8A6109DF80E1080F8A7109DF80F1072
:101AB00080F8B1109DF8101080F8B5109DF8111045
:101AC00080F8B9109DF8121080F8BD1009E1274880
:101AD0009DF80B1001719DF80C1041719DF80D10CF
:101AE00081719DF80E10C1719DF80F1001759DF860
:101AF000101041759DF8111081759DF81210C17577
:101B0000EFE01A489DF80B1080F824109DF80C1097
:101B100080F825109DF80D1080F826109DF80E1005
:101B200080F82710DDE011489DF80B1080F8D810E0
:101B30009DF80C1080F8D9109DF80D1080F8DA107F
:101B40009DF80E1080F8DB109DF80F1080F8E01063
:101B50009DF810100FE04DE03AE017E000640040FF
:101B60000800003220000020E4030020610400206F
:101B700096E083E060E080F8E1109DF8111080F8B5
:101B8000E2109DF8121080F8E310AAE0F4489DF8E6
:101B90000B1080F8E8109DF80C1080F8E9109DF803
:101BA0000D1080F8EA109DF80E1080F8EB109DF8EB
:101BB0000F1080F8F8109DF8101080F8F9109DF8BB
:101BC000111080F8FA109DF8121080F8FB1088E0D0
:101BD000E3489DF80B1080F834109DF80C1080F845
:101BE00035109DF80D1080F836109DF80E1080F815
:101BF000371076E0DA489DF80B1080F818119DF840
:101C00000C1080F819119DF80D1080F81A119DF82C
:101C10000E1080F81B119DF80F1080F820119DF810
:101C2000101080F821119DF8111080F822119DF8F4
:101C3000121080F8231154E0C9489DF80B1080F869
:101C400074109DF80C1080F875109DF80D1080F838
:101C500076109DF80E1080F877109DF80F1080F820
:101C600084109DF8101080F885109DF8111080F8F0
:101C700086109DF8121080F8871032E0B8489DF861
:101C80000B1080F864109DF80C1080F865109DF81A
:101C90000D1080F866109DF80E1080F8671020E097
:101CA000AF489DF80B1080F844109DF80C1080F898
:101CB00045109DF80D1080F846109DF80E1080F824
:101CC00047109DF80F1080F854109DF8101080F800
:101CD00055109DF8111080F856109DF8121080F8DC
:101CE0005710009800F01F000F287CD040DC04281B
:101CF0007AD016DC012866D003287FF4DBAD984843
:101D00009DF80B1080F82C109DF80C1080F82D1009
:101D10009DF80D1080F82E109DF80E1080F82F10F1
:101D2000C8E5092874D00A287FF4C4AD8C489DF812
:101D30000B1080F8E0109DF80C1080F8E1109DF871
:101D40000D1080F8E2109DF80E1080F8E3109DF859
:101D50000F1080F8E8109DF8101080F8E9109DF839
:101D6000111080F8EA109DF8121080F8EB10A1E530
:101D700016284ED01D287CD01E287BD01F287FF42B
:101D800099AD77489DF80B1080F87C109DF80C10E9
:101D900080F87D109DF80D1080F87E109DF80E10D3
:101DA00080F87F109DF80F1080F88C109DF81010AF
:101DB00080F88D109DF8111080F88E109DF812108B
:101DC00080F88F1076E566489DF80B1080F8AC100F
:101DD0009DF80C1080F8AD109DF80D1080F8AE1035
:101DE0009DF80E1001E065E052E080F8AF109DF81C
:101DF0000F1080F8B3109DF8101080F8B7109DF800
:101E0000111080F8BB109DF8121080F8BF1051E53A
:101E100019E053489DF80B1001739DF80C104173A5
:101E20009DF80D1081739DF80E10C1739DF80F1071
:101E300001779DF8101041779DF8111081779DF87A
:101E40001210C17736E546489DF80B1080F8F01067
:101E50009DF80C1080F8F1109DF80D1080F8F2102C
:101E60009DF80E1080F8F3109DF80F1080F8001107
:101E700001E053E040E09DF8101080F801119DF85A
:101E8000111080F802119DF8121080F8031111E56D
:101E900033489DF80B1080F83C109DF80C1080F82A
:101EA0003D109DF80D1080F83E109DF80E1080F842
:101EB0003F10FFE42A489DF80B1080F820119DF890
:101EC0000C1080F821119DF80D1080F822119DF85A
:101ED0000E1080F823119DF80F1080F828119DF83E
:101EE000101080F829119DF8111080F82A119DF822
:101EF000121080F82B11DDE419489DF80B1080F8C2
:101F00006C109DF80C1080F86D109DF80D1080F885
:101F10006E109DF80E1080F86F10CBE410489DF8FD
:101F20000B1080F84C109DF80C1080F84D109DF8A7
:101F30000D1080F84E109DF80E1080F84F109DF88F
:101F40000F1080F85C109DF8101080F85D109DF85F
:101F5000111080F85E109DF8121080F85F10A9E44F
:101F60006104002010B5094C0121204600F0A6FBB9
:101F7000002808BF10BD0121204600F0BBFA204612
:101F80000322BDE81040002101F0E8BA00640040DF
:101F90002DE9F04F8BB081461E46174688463D48D6
:101FA000DDF850A000F0F4FA684600F001FD0121D0
:101FB000022001F09BFC0121480601F0AFFC012149
:101FC000880601F0ABFC4FF44050089002208DF8D9
:101FD000240000248DF8264003208DF82500DFF82A
:101FE000B8B001258DF8275008A9584601F010F91E
:101FF00009220C21584601F058F909220D215846B2
:1020000001F053F98DF806408DF808408DF807402F
:102010008DF809508DF802A08DF80A408DF80390D4
:102020008DF804708DF80B408DF80580ADF80060D8
:102030006946184800F0D2FB0F2000F0A3FC0F20E7
:102040008DF816008DF817408DF81850ADF80C403B
:10205000ADF81040ADF80E40ADF81240ADF81440A8
:102060008DF8195003A800F0B1FA012202210948A5
:1020700000F0ACFB40208DF81C0004208DF81D0002
:102080008DF81E408DF81F5007A801F07DF90BB0A8
:10209000BDE8F08F006800400004024010B5FA4C23
:1020A00086B00221204600F009FB002804BF06B0DC
:1020B00010BD0421204600F01DFAF449204600F02E
:1020C000FFF96A460021204600F002FCF049009822
:1020D0004860F048D0F86F10491CC0F86F100098A5
:1020E000400927D002281CBF06B010BD009800F0A0
:1020F0001F00092800F082817EDC012800F0248185
:10210000032800F0448104281CBF06B010BDE2483B
:102110009DF80B1080F834109DF80C1080F83510E5
:102120009DF80D1080F836109DF80E1080F83710CD
:1021300006B010BD009800F01F00092876D01ADC08
:1021400001283BD003285ED004281CBF06B010BD78
:10215000D1489DF80B1080F830109DF80C1080F8D5
:1021600031109DF80D1080F832109DF80E1080F897
:10217000331006B010BD0A2859D00F287AD016287F
:102180001CBF06B010BDC4489DF80B1001709DF82F
:102190000C1041709DF80D1081709DF80E10C170EB
:1021A0009DF80F1001749DF8101041749DF81110E6
:1021B00081749DF81210C17406B010BDB6489DF828
:1021C0000B1080F8A0109DF80C1080F8A1109DF85D
:1021D0000D1080F8A2109DF80E1080F8A3109DF845
:1021E0000F1080F8B0109DF8101080F8B4109DF812
:1021F000111080F8B81000E083E09DF8121080F80C
:10220000BC1006B010BDA4489DF80B1080F820103B
:102210009DF80C1080F821109DF80D1080F8221008
:102220009DF80E1080F8231006B010BD23E09A48E8
:102230009DF80B1080F8D4109DF80C1080F8D51084
:102240009DF80D1080F8D6109DF80E1080F8D7106C
:102250009DF80F1080F8DC109DF8101080F8DD104C
:102260009DF8111080F8DE109DF8121080F8DF1034
:1022700006B010BD22E088489DF80B1080F8E410ED
:102280009DF80C1080F8E5109DF80D1080F8E61010
:102290009DF80E1080F8E7109DF80F1080F8F410EC
:1022A0009DF8101080F8F5109DF8111080F8F610C8
:1022B0009DF8121080F8F71006B010BD76489DF812
:1022C0000B1080F814119DF80C1080F815119DF872
:1022D0000D1080F816119DF80E1080F817119DF85A
:1022E0000F1080F81C119DF8101080F81D119DF83A
:1022F000111080F81E119DF8121080F81F1106B001
:1023000010BD0A2856D00F2877D016281CBF06B05B
:1023100010BD61489DF80B1001719DF80C104171C2
:102320009DF80D1081719DF80E10C1719DF80F1070
:1023300001759DF8101041759DF8111081759DF87B
:102340001210C17506B010BD53489DF80B1080F8EF
:10235000A4109DF80C1080F8A5109DF80D1080F8C1
:10236000A6109DF80E1080F8A7109DF80F1080F8A9
:10237000B1109DF8101080F8B5109DF8111080F87C
:10238000B9109DF8121080F8BD1006B010BD42487B
:102390009DF80B1080F824109DF80C1080F8251083
:1023A0009DF80D1080F826109DF80E1080F827106B
:1023B00006B010BD38489DF80B1080F8D8109DF875
:1023C0000C1080F8D9109DF80D1080F8DA109DF8E7
:1023D0000E1080F8DB109DF80F1080F8E0109DF8CB
:1023E000101080F8E1109DF8111080F8E2109DF8AF
:1023F000121080F8E31006B010BD22E026489DF8C8
:102400000B1080F8E8109DF80C1080F8E9109DF88A
:102410000D1080F8EA109DF80E1080F8EB109DF872
:102420000F1080F8F8109DF8101080F8F9109DF842
:10243000111080F8FA109DF8121080F8FB1006B009
:1024400010BD15489DF80B1080F818119DF80C1060
:1024500080F819119DF80D1080F81A119DF80E10D2
:1024600080F81B119DF80F1080F820119DF81010B6
:1024700080F821119DF8111080F822119DF812109A
:1024800080F8231106B010BD00680040080000323B
:1024900020000020E40300206104002010B5074C58
:1024A0000121204600F00AF9002808BF10BD0121D3
:1024B0002046BDE8104000F01DB800000068004054
:1024C0000B4A914202BF002181617047C1F31302A0
:1024D00011F0007F1CBFC260704711F0806F1CBFFD
:1024E0000261704711F0006F14BF82604260704754
:1024F0007000F03010B4082304224FF0100CB1F536
:10250000007F40D021DC202902BF036110BC70474E
:1025100010DC012901BF1D49816010BC70470429EE
:1025200002BFC36010BC7047082908BFC0F80CC0C8
:1025300010BC7047402902BFC0F810C010BC7047E3
:10254000B1F5807F1FD010BC70470024B1F5004F5B
:1025500008D00BDCB1F5806F15D0B1F5006F1CBF52
:1025600010BC70478461426010BC7047B1F5803F79
:1025700002BF436010BC7047B1F5003F08BFC0F810
:1025800004C010BC7047426010BC704701010100DC
:10259000A0F1804110B5B1F5C8414FF0010109D05B
:1025A000880601F0C7F9BDE8104000214FF08060B7
:1025B00001F0C0B94FF0007001F0BCF9BDE8104067
:1025C00000214FF0007001F0B5B9000030B4817AFD
:1025D000354B012202FA01F11A6842F001021A6039
:1025E000DFF8C8C0DCF800208A43CCF80020047B68
:1025F0002F4AD4B914688C4314604488C58844EACF
:102600000544857AED0005F1804505F5C045C5F81E
:1026100040460488858844EA0544857AED0005F142
:10262000804505F5C045C5F84446047B012C18D10A
:1026300014680C431460847A0268E40004F1804456
:1026400004F5C0444FEA3242C4F84026847A426816
:10265000E40004F1804404F5C0444FEA3242C4F877
:102660004426C47A134A002C14680CBF8C430C43D4
:1026700014600489104A14B914688C4314600489E6
:10268000012C02D114680C431460407B012804D152
:10269000DCF800000843CCF80000186820F00100C6
:1026A000186030BC70470000006600401C660040A7
:1026B0000C6600400466004014660040024600209C
:1026C00053690B4208BF7047B1F5807F64D01CDCB2
:1026D000082949D00CDC012938D002293ED0042930
:1026E00018BF7047D168002011F0080F34D170472F
:1026F00010293FD0202943D0402918BF70471169C5
:10270000002011F0100F27D17047B1F5004F55D0C0
:102710000FDCB1F5007F45D0B1F5806F48D0B1F541
:10272000006F18BF70479169002011F0700F13D12E
:102730007047B1F5803F29D0B1F5003F18BF704711
:102740005168002011F0100F06D1704791681E4AA1
:102750000020114208BF704701207047D168002057
:1027600011F0030FF8D17047D168002011F0100F5D
:10277000F2D170471169002011F0030FECD17047BE
:102780001169002011F0080FE6D170475168002050
:1027900011F0080FE0D170479169002011F0010F8E
:1027A000DAD170479169002011F0020FD4D170473F
:1027B0009169002011F0040FCED1704751680020BC
:1027C00011F0040FC8D1704701010100002A4269CD
:1027D00014BF114322EA01014161704702680023DE
:1027E00022F002020260026842F0010202604FF62B
:1027F000FF7200BFD0F804C01CF0010F03D1934258
:1028000018BF5B1CF6D1436813F0010F5DD08B79C4
:10281000012B03680CBF43F0800323F080030360A7
:10282000CB79012B03680CBF43F0400323F0400336
:1028300003600B7A012B03680CBF43F0200323F0E5
:10284000200303604B7A012B03680CBF43F0100395
:1028500023F0100303608B7A012B03680CBF43F055
:10286000080323F008030360CB7A012B03680CBF35
:1028700043F0040323F0040303608B7891F803C052
:102880004FEA837343EA0C6391F804C043EA0C43B4
:1028900091F805C0098843EA0C53A1F1010143EA0C
:1028A0000101C161016821F0010101604FF00001E7
:1028B000436813F0010F1CBF9142491CF8D14068D6
:1028C00010F0010F04BF012070474FF00000704767
:1028D00000EB0113D3F8B0C11CF0040C82F808C05F
:1028E000D3F8B0C107BF4FEA5C5CC2F800C04FEA42
:1028F000DC0CC2F804C0D3F8B0C10CF0020C82F8B2
:1029000009C0D3F8B4C10CF00F0C82F80AC0D3F898
:10291000B4C14FEA1C2C82F813C0D3F8B8C182F8B6
:102920000BC0D3F8B8C14FEA1C2C82F80CC0D3F806
:10293000B8C14FEA1C4C82F80DC0D3F8B8C14FEAB9
:102940001C6C82F80EC0D3F8BCC182F80FC0D3F85B
:10295000BCC14FEA1C2C82F810C0D3F8BCC14FEAAE
:102960001C4C82F811C0D3F8BC311B0E937421B1FA
:10297000016941F0200101617047C16841F0200107
:10298000C160704709490A6842F001020A600A689A
:1029900022F4877222F478520A600A6842EA002020
:1029A0000860086820F00100086070470066004079
:1029B00000218171C171017241728172C172817095
:1029C000C170032101710221417101210180704711
:1029D00010B402460020936813F0806F3FD000BF10
:1029E00002EB0012D2F8803103F00103C2F880310B
:1029F0000B7A002B42D0D2F880C14C684CEA03031A
:102A000091F809C04CEAC40C43EA0C03C2F88031C7
:102A10008B7A03F00F038B72D2F8843123F00F030B
:102A2000C2F88431D2F8843191F80AC043EA0C0329
:102A3000C2F88431CB7AD1F80CC043EA0C23C2F837
:102A40008831CB7B096943EA0121C2F88C11D2F8A5
:102A5000801141F00101C2F8801110BC70479068EC
:102A600010F0006F18BF0120BAD1906810F0805F9D
:102A700014BF02200420B3D110BC7047D2F88031BB
:102A800091F809C043EA0C03B1F800C043EA4C5383
:102A9000BCE700001A4A002904BF8068194907D022
:102AA000012904BF8068184902D0022902D022E01F
:102AB000084002E0806815490840A0F10061A1F5D6
:102AC0008071904215D008DCA8B16FF08061401889
:102AD00008BF7047022810D00BE0B1F5007F0CD082
:102AE000A1F10060B0F57F4008BF7047B0F5003F2E
:102AF00003D000207047022070470120704700007B
:102B00000001000803000004000300080000031097
:102B1000174A16491378C854581CC0B2107091F85F
:102B200000C00023BCF1550F1ED10B2838BF7047E1
:102B30004878512804D0522809D053280ED013E0E9
:102B4000D1F802001062D1F8060050620CE0D1F812
:102B500002009062D1F80600D06205E0D1F80200D0
:102B60001063D1F80600506313707047C41500203D
:102B7000540200200A4611F0800F01F07F0310B5C7
:102B800003EB830100EBC10114BF01F58E7101F568
:102B90005D710B70D2094A7003F022F9002010BD5C
:102BA00010B50A4611F0800F01F07F0314BF03EB4C
:102BB000830102EB820100EBC10114BF01F58E71AC
:102BC00001F55D714FF0000C81F802C00B70D20965
:102BD0004A7003F0EEF8002010BD70B58C4611F07D
:102BE000800F01F07F0404EB840100EBC10114BFEE
:102BF00001F58E7101F55D710C705FEADC1C81F8E6
:102C000001C08A60CB7018BFCC80022B04BF0022A9
:102C10000A7103F09FF8002070BD01F07F0C0CEBEF
:102C20008C0110B500EBC101C1F88833C1F88023D5
:102C30000023C1F88C3381F8753381F874C3C378ED
:102C400001F55D71012B08BF0A611CF0FF0F03D075
:102C500003F000F9002010BD03F007F8FAE700695F
:102C6000002261F30A12016811430160704710B538
:102C70000A4611F0800F01F07F0314BF03EB8301BC
:102C800002EB820100EBC10114BF01F58E7101F569
:102C90005D714FF0010C81F802C00B70D2094A70CF
:102CA00003F0BEF8002010BD11F07F0C10B50CEB46
:102CB0008C0100EBC1014FF0010481F81D4181F846
:102CC0001CC1C1F82821C1F82C2101F58E714FF0EB
:102CD0000002C1E9053203D003F0BCF8002010BDAA
:102CE00002F0C3FFFAE710B5044603F0DFF94FF036
:102CF000010C84F812C1002184F814116278402379
:102D00000846002A13D900EB800204EBC20282F8C5
:102D10001DC182F81C01A2F8220182F81F11C2E92C
:102D20004931C2F830116278401C8242EBD8002051
:102D300012F0FF0F13D000EB800204EBC20282F806
:102D4000751382F87403A2F87A0382F87713C2E944
:102D5000DF31C2F888136278401C8242EBD82046EB
:102D600002F05CFF204602F0E1FD0021204603F066
:102D70002DFA204602F068FE2046BDE8104003F020
:102D80001DB9704710B5012000F0B2F8002808BF47
:102D900010BD012000F0A0F8BDE81040012000F0B7
:102DA000A1B8000010B50A2004F0D6FC1748D0F8EE
:102DB000300228BB16480068012804D002280CD035
:102DC000032814D01CE01348F5EE000A90ED000A29
:102DD00030EE200A80ED000A12E00F48F6EE000AFD
:102DE00090ED000A30EE200A80ED000A08E00B4862
:102DF000DFED0B0A90ED000A30EE200A80ED000AAC
:102E0000BDE810404FF4805000F06CB800804142A3
:102E1000040000200C00002010000020080000200A
:102E2000CDCC4C3D10B5022000F062F8002808BF60
:102E300010BD022000F050F8022000F053F80748BF
:102E4000F7EE000AD0F8021000EE101A30EE200A59
:102E500010EE101AC0F8021010BD0000280100206A
:102E600010B5042000F044F8002808BF10BD04206D
:102E700000F032F8BDE81040042000F033B810B57F
:102E8000082000F035F8002808BF10BD082000F029
:102E900023F8BDE81040082000F024B810B5102039
:102EA00000F026F8002808BF10BD102000F014F82C
:102EB000BDE81040102000F015B810B5402000F01B
:102EC00017F8002808BF10BD402000F005F8BDE845
:102ED0001040402000F006B801490860704700002B
:102EE000143C01400149086070470000143C014057
:102EF000034A0146002012680A4218BF01207047A9
:102F0000143C0140837921490268002B34D00B68BE
:102F100023EA02020A60091D0A6803689A430A60EC
:102F2000017901F1804101F59E310A6803681A4375
:102F30000A60174B19680268914319601A1D1168DD
:102F4000D0F800C021EA0C0111604179102908D0A5
:102F500001F1804101F59E310A6800681043086064
:102F600070471968D0F800C041EA0C011960116877
:102F70000068084310607047007900F1804000F558
:102F80009E3001689143016070470000003C0140A1
:102F9000083C014030B589B00121022000F0BEFCA0
:102FA0000121042000F0A2FCC020049003208DF831
:102FB000150002208DF8140001208DF81600224C17
:102FC0008DF8170004A9204600F022F902220621FC
:102FD000204600F06AF902220721204600F065F938
:102FE000684601F073FA00244FF6FF70174DADF8F4
:102FF00000400190ADF80840ADF80240694628460F
:1030000001F024FA00231A460321284601F0F1F8C2
:1030100006A801F0AAF9ADF8204006A9284601F05B
:1030200011F90121284601F0D5F801221146284660
:1030300001F0A3F90021284601F0A7F90121284653
:1030400001F0CEF809B030BD000802400004004095
:1030500001490860704700000C3C02400449002808
:10306000086814BF40F4806020F4806008607047F6
:10307000003C02400248016841F480510160704701
:10308000003C024030B50546002451B1012908BF7B
:103090004FF4807405D002290CBF4FF400744FF434
:1030A000407400F061F8092818BF30BD0F4B186854
:1030B00020F440701860186820431860186820F0E9
:1030C000F8001860186845F0020108431860186895
:1030D00040F48030186000F047F8196821F00201D0
:1030E0001960196821F0F801196030BD103C0240E8
:1030F0000248016841F0004101607047103C024005
:1031000030B50C46054600F02FF8092818BF30BD31
:103110000A4B186820F440701860186840F400707A
:103120001860186840F0010018602C6000F01CF86E
:10313000196821F00101196030BD0000103C024007
:103140000548006810F0004F08BF70470349044865
:103150000160044901607047103C0240230167454B
:10316000043C0240AB89EFCD81B009208DF800000E
:1031700001462648026812F4803F18BF012116D18B
:10318000026812F0100F18BF062110D1026812F465
:10319000807F18BF02210AD1026812F0EF0F18BF1A
:1031A000072104D1026812F0020F18BF08218DF820
:1031B00000109DF80010012923D10268092112F4A2
:1031C000803F18BF012116D1026812F0100F18BFFE
:1031D000062110D1026812F4807F18BF02210AD1A3
:1031E000026812F0EF0F18BF072104D1026812F035
:1031F000020F18BF08218DF800109DF8001001295A
:10320000DBD09DF8000001B0704700000C3C02408C
:103210002DE9F001002201255FF00306D1F800C07E
:1032200005FA02F30CEA030C9C4537D107684FEA14
:10323000420C06FA0CF4A74307600F79D0F800801F
:1032400007FA0CF747EA080707600F79012F18BF44
:10325000022F17D1876827EA040787604F79D0F8D3
:10326000088007FA0CF747EA08078760476827EAEB
:103270000303436043688F7907FA02F7BFB243EA5A
:1032800007034360C36823EA0403C360CB7903FAEE
:103290000CF3D0F80CC043EA0C03C36002F1010246
:1032A000102ABBD3BDE8F00170474B07DB0E9A40F4
:1032B000C90800EB8100016A4FF00F0C0CFA03F310
:1032C00099430162016A11430162704743680A46EB
:1032D000B3F5807F08BF082144D020DC102B08BF45
:1032E00004213FD00FDC012B08BF00213AD0022B74
:1032F00008BF012136D0042B08BF022132D0082B91
:1033000008BF03212EE0202B08BF05212AD0402B27
:1033100008BF062126D0802B08BF072122E0B3F585
:10332000805F08BF0C211DD00EDCB3F5007F08BF05
:10333000092117D0B3F5806F08BF0A2112D0B3F569
:10334000006F08BF0B210DE0B3F5005F08BF0D2132
:1033500008D0B3F5804F08BF0E2103D0B3F5004F5E
:1033600008BF0F210068FFF7A0BF0183704700006E
:103370000348006810F0010F00D000BEFEE7000017
:10338000F0ED00E0FEE7704710B4C27801780F243A
:103390004FF0010C0AB3174A126801F1E02102F460
:1033A000E062C2F5E062C2F30722C2F10403D44036
:1033B00042789A40837823401A43120181F800240E
:1033C000007800F01F010CFA01F14009800000F1C3
:1033D000E020C0F8001110BC704701F01F000CFA8B
:1033E00000F04909890001F1E021C1F8800110BC19
:1033F000704700000CED00E0034940F0FD7040F024
:1034000080600860704700000CED00E0014801F0AA
:103410007DBB0000D00F002010B582B0084803210A
:10342000CDE9001000234FF4007206A1074806F012
:1034300049FA044604F0F0FA046202B010BD00003C
:103440004A0400204F44524956450000D57A0008EE
:103450002DE9F0478A4607461D469146002614216D
:103460000820DDF8208003F0D7FB09EB4A1101604A
:1034700000210172417204468572002D4FD005F083
:10348000070208F101000B46B2F1010C0AD400BF9B
:1034900004EB010910F8018B491C5B1C89F80B80B7
:1034A0006345F5DDAA423ADA04EB010C10F8013B62
:1034B0008CF80B30491C04EB010C10F8013B8CF824
:1034C0000B30491C04EB010C10F8013B8CF80B305D
:1034D000491C04EB010C10F8013B8CF80B30491C23
:1034E00004EB010C10F8013B8CF80B30491C04EB89
:1034F000010C10F8013B8CF80B30491C04EB010C5B
:1035000010F8013B8CF80B30491C04EB010C10F84F
:10351000013B491C08328CF80B30AA42C4DB21461F
:103520003846FFF755FA804601463846FFF7B2FAAB
:10353000002808BF40F6FF7509D1701C86B2AE4264
:1035400005D241463846FFF7A5FA0028F5D02046B7
:10355000BDE8F0471422082103F078BB2DE9F041C3
:1035600088460746164600241421082003F054FB21
:10357000054606EB48102860122068600021297279
:10358000697229463846FFF723FA804601463846D5
:10359000FFF780FA002808BF40F6FF7609D1601CCB
:1035A00084B2B44205D241463846FFF773FA002888
:1035B000F5D02846BDE8F0411422082103F046BBAF
:1035C00090ED031A70EE600A80ED041AF7EE001A0F
:1035D000C0ED030A90ED0A0A90ED022A30EEC11AFE
:1035E00071EEC01A61EE821A21EE811AD0ED0B1A2B
:1035F00000EE211A80ED0C1A90ED000A20EE802AD0
:1036000080ED092A90ED050AD0ED011A00EEA10A1D
:1036100080ED050AD0ED061AB4EEE10AF1EE10FADB
:10362000C8BFC0ED051A0ADCF1EE611AB4EEE10A7A
:10363000F1EE10FAD8BFB0EE610A80ED050A32EE65
:10364000010AD0ED051A00221A4930EE210A80ED58
:10365000070AB0EEE00A10EE103A80ED0B1AB3F153
:103660007C5FA8BF0A700CDA9FED130A80ED070A91
:103670004B785B1CDBB24B70322B84BF01230B7089
:1036800000D94A7090ED070AD0ED080AB4EEE00ABE
:10369000F1EE10FAC4BFC0ED070A7047F1EE600A00
:1036A000B4EEE00AF1EE10FAD8BFB0EE600A80ED99
:1036B000070A7047340100200000000010B50446DE
:1036C000F0EE412A3430FFF77BFF94ED140AF0EE60
:1036D000620A2046FFF774FF94ED070A84ED1A0A88
:1036E00010BD000080ED000AC0ED010A80ED021A55
:1036F000C0ED061A9FED060A80ED082A80ED0A0A41
:103700009FED040A80ED0C0A80ED0B0A7047000063
:10371000CDCCCC3D000000002D4830EEC00A2D4A33
:10372000D0ED1F0A9FED282ADFED281A70EE800ADF
:10373000B1EE0C1A10EE901AC0ED1F0A91422FDC68
:1037400010EE901A244A91422FD800BF62EE000A70
:1037500090ED1F2A41EE820AD0ED1E1A70EE611A1A
:1037600041EE210A10EE901AC0ED1D0A80ED1E0AEE
:10377000B1F17F5F1EDC00BF10EE901A174A914234
:103780001DD800BFB0EEC00A10EE101AB1F17D5F77
:10379000BABF9FED130A80ED1D0AB0EE600A7047B4
:1037A000DFED100AC0ED1F0ACAE7DFED0F0AC0ED1A
:1037B0001F0ACBE7F7EE080AC0ED1D0ADCE7FFEEB3
:1037C000080AC0ED1D0ADDE7AE47613D6F12833A7E
:1037D000280000200000C8420000C8C20000C0BF8E
:1037E000000000000000C8420000C8C2344870EE6B
:1037F000C02A344AD0ED2D0A9FED2F2A9FED2F1AB3
:1038000070EEA20A10EE901AC0ED2D0A91423FDC34
:1038100010EE901A2C4A91423FD8D0ED2C1ADFEDD1
:103820002B0A90ED313A72EEE11A294A60EEA11AA4
:10383000F0EE420A40EE831A62EE220AB0EE412A0E
:10384000C0ED321A90ED2D3A42EE030A70EEA10A55
:1038500010EE901AC0ED2B0AC0ED2C2A914221DC0B
:1038600010EE901A1B4A914221D800BFF0EEE20AF6
:1038700010EE901A184AC0ED311A9142DCBF80ED6B
:103880002B1A80ED2D1A80ED340A90ED2B0A70472B
:10389000DFED120AC0ED2D0ABAE7DFED110AC0ED27
:1038A0002D0ABAE7DFED0F0AC0ED2B0AD8E7DFEDEE
:1038B0000E0AC0ED2B0AD9E7CDCCCC3D00000000AC
:1038C000280000200000C8420000C8C299990141A8
:1038D0009A99D93F9A99D9BF3333333F0000C842F0
:1038E0000000C8C29A99D93F9A99D9BF044A0029C1
:1038F000116814BF084321EA0000106070470000FF
:1039000030380240044A0029116814BF084321EAF4
:10391000000010607047000034380240044A00295B
:10392000116814BF084321EA0000106070470000CE
:1039300040380240044A0029116814BF084321EAB4
:10394000000010607047000020380240044A00293F
:10395000116814BF084321EA00001060704700009E
:1039600044380240254A30B41168254B11F00C014F
:1039700006D05C10042908BF046002D008291ED0BC
:10398000036011680F2303EA11111E4B595CD0F834
:1039900000C02CFA01F14160D2F800C0072404EA0B
:1039A0009C2C13F80CC021FA0CFCC0F808C012685B
:1039B00004EA52329A5CD140C16030BC704712496F
:1039C000D1F800C0CCF38055D1F800C0002D0CF028
:1039D0003F0C14BFB4FBFCF3B3FBFCF3D1F800C005
:1039E0000968CCF3881C03FB0CF3C1F30141491CAB
:1039F0004900B3FBF1F10160C3E700000838024061
:103A00000024F400A402002004380240002102280F
:103A10000CD0032810D0042813D005281CBF002088
:103A200070470A4A1068116000B270474FF0804238
:103A3000506A516200B27047054A1068116000B2C6
:103A40007047044A1068116000B27047240C0040AF
:103A500024040040240800407047704770478A07DC
:103A600021F0030101F1804101F59831120F0F237C
:103A7000D1F808C893402CEA0303C1F80838D1F8FC
:103A8000083890401843C1F8080870472DE9F047FE
:103A9000844D834FDFF81092A9784FF000087854D6
:103AA000491CA970EA68A7F548718854501CE86061
:103AB000B0F5C87F05DA084410F8010C0A2840F078
:103AC000B580022279A17B48FCF7FEFB7A4C0126E7
:103AD00070B904F1300279A17648FCF705FC206B3F
:103AE00000EE100AB1EE400A10EE100A6063AE71EB
:103AF000022274A16F48FCF7E7FB28B904F1200209
:103B000072A16C48FCF7F0FB042272A16948FCF733
:103B1000DBFB4FF01B0A38B984F818A0052020778A
:103B200084F8526084F8506004226CA16148FCF76C
:103B3000CBFB38B984F818A00320207784F85260B2
:103B400084F85060042267A15A48FCF7BDFB0028A6
:103B500004BF84F818A084F85060092263A1554876
:103B6000FCF7B2FB38B9544A63A15248FCF7BCFBDE
:103B700020686060AE71092263A14E48FCF7A4FB87
:103B800040B904F1080263A14A48FCF7ADFBA06804
:103B9000E060AE71142263A14648FCF795FB40B982
:103BA00004F1100265A14348FCF79EFB20696061A7
:103BB000AE71042267A13F48FCF786FB38B9674C19
:103BC00067A1A21C3B48FCF78FFB84F8008004220D
:103BD00065A13848FCF778FB654C38B9C4F8098012
:103BE00009F1020263A13348FCF77EFB042263A1C2
:103BF0003048FCF769FB30B9C4F80960614A62A13A
:103C00002C48FCF771FB022261A12A48FCF75CFBFF
:103C100028B904F1090260A12648FCF765FB4FF4BE
:103C2000C8712448FCF745FBC5F80C803878FC289F
:103C30001FBF7878052885F80280BDE8F087A8784E
:103C4000042838BFBDE8F087F878B97841EA002049
:103C500000B241F27B4110FB01F1CA14A2EBE17109
:103C600000EE101A4E4981FB00214A11A2EBE171CE
:103C70006FF01802514300EB810000EE900AB8EE9D
:103C8000C00AF8EEE00A9FED471A00EE810A10EE36
:103C9000100AC9F8020085F80280BDE8F08700002C
:103CA000E01900208C0200202E010020563D0A2041
:103CB00000000000C0160020E4030020563D2566E9
:103CC0000A000000503D0A2000000000503D25661B
:103CD0000A000000506F730A2000000056656C0A4D
:103CE000200000005365740A20000000506F735FCD
:103CF0006761696E3D0A2000506F735F6761696E8E
:103D00003D25660A0000000056656C5F6761696EBC
:103D10003D0A200056656C5F6761696E3D25660A45
:103D20000000000056656C5F696E746567726174AF
:103D30006F725F6761696E3D0A20000056656C5FB7
:103D4000696E7465677261746F725F6761696E3DF9
:103D500025660A004F59593D0A200000280100201D
:103D60004F59593D25660A004D4F413D0A2000003C
:103D7000340600204D4F413D25660A004D4F423D1F
:103D80000A200000360100204D4F423D25660A0002
:103D9000463D0A2000000000463D25640A00000060
:103DA0001F85EB510AD7233C2DE9F041614E604954
:103DB00032698854501C3061B0F5C87F06DA084477
:103DC00010F8010C0A2818BFBDE8F08102225AA1A0
:103DD0005748FCF779FA5A4C012570B904F13002C2
:103DE00058A15348FCF780FA206B00EE100AB1EEA0
:103DF000400A10EE100A6063B571022253A14C48CC
:103E0000FCF762FA28B904F1200252A14848FCF7F5
:103E10006BFA042251A14648FCF756FA1B2730B929
:103E200027760520207784F8525084F850500422D9
:103E30004CA13F48FCF748FA30B927760320207799
:103E400084F8525084F85050042248A13848FCF7B6
:103E50003BFA002804BF277684F85050092245A178
:103E60003348FCF731FA38B9354A45A13048FCF7F8
:103E70003BFA20686060B571092245A12C48FCF727
:103E800023FA40B904F1080244A12948FCF72CFAAE
:103E9000A068E060B571142244A12548FCF714FA2B
:103EA00040B904F1100247A12148FCF71DFA20692E
:103EB0006061B571042249A11D48FCF705FA002490
:103EC00030B9484F48A1BA1C1948FCF70DFA3C70AC
:103ED000042247A11648FCF7F7F9474F30B9C7F855
:103EE0000940464A46A11248FCF7FEF9042246A1C1
:103EF0000F48FCF7E9F930B9C7F80950444A45A121
:103F00000B48FCF7F1F9022244A10948FCF7DCF95F
:103F100028B907F1090243A10548FCF7E5F94FF478
:103F2000C8710348FCF7C5F93461BDE8F0810000B1
:103F3000501800208C020020563D0A20000000008E
:103F4000E4030020563D25660A000000503D0A208B
:103F500000000000503D25660A000000506F730A03
:103F60002000000056656C0A200000005365740AAA
:103F700020000000506F735F6761696E3D0A20008A
:103F8000506F735F6761696E3D25660A000000002F
:103F900056656C5F6761696E3D0A200056656C5F0F
:103FA0006761696E3D25660A0000000056656C5F1A
:103FB000696E7465677261746F725F6761696E3D87
:103FC0000A20000056656C5F696E746567726174E3
:103FD0006F725F6761696E3D25660A004F59593DF2
:103FE0000A200000280100204F59593D25660A008B
:103FF0004D4F413D0A2000003406002030010020D2
:104000004D4F413D25660A004D4F423D0A200000BC
:10401000360100204D4F423D25660A00463D0A20EC
:1040200000000000463D25640A00000010B5012094
:1040300080F31188BFF34F8FBFF36F8F05F01CFD26
:1040400018B104494FF080500860002080F31188B7
:1040500010BD000004ED00E0374882B0016841F473
:10406000700101603548016841F001010160344987
:1040700000230B60026822F4102222F0807202609A
:1040800000F1040C2F4ACCF80020026822F48022B0
:1040900002600A1D136001930093026842F48032AB
:1040A0000260026802F400320092019A521C0192EE
:1040B000009A1AB9019AB2F5A04FF2D1026812F42F
:1040C000003F08BF009331D0012200921E4A1368BE
:1040D00043F0805313601D4A136843F44043136058
:1040E0000A680A600A6842F400420A600A6842F4F8
:1040F000A0520A60164ACCF80020026842F0807292
:104100000260026812F0007FFBD0124A40F20560A4
:104110001060086820F003000860086840F00200A2
:104120000860086800F00C000828FAD10A494FF02E
:104130000060086002B0704788ED00E0003802407F
:10414000083802401030002440380240007000401F
:10415000085A4007003C024008ED00E070477047F5
:1041600010B5094C0121204600F061F8002808BF75
:1041700010BD0121204600F030F82046BDE8104077
:10418000012100F027B80000000001404FF08040FE
:10419000018A018A21F001010182704703480188E8
:1041A000018821F0010101807047000010040040E7
:1041B00003480188018821F0010101807047000057
:1041C000100C00400421014800F031B800140040F8
:1041D00070477047C94301827047C94301827047E5
:1041E0000029018814BF41F0010121F00101018083
:1041F000704730B40589B0F818C0048C25F0070565
:1042000029432CF0030C2CF4407C40F201154CEABD
:10421000050C4FF6FF7505EA031324F022041A4338
:1042200022430181A0F818C0028430BC7047038A81
:10423000002280890B4200EA01001CBF00280122F5
:104240001046704770B40D884C88B1F804C00B89D3
:104250004FF6FF7255B3042D44D0082D058C67D05E
:1042600025F480550584868B058C26F4734602EA76
:104270000C2C4CEA060C02EA033343EA0C0302EA74
:10428000043425F4204C4CEA040C4CF4805C838309
:10429000A0F820C08979838B23F440638383838BC8
:1042A00002EA01211943818370BC7047058C25F017
:1042B00001050584068B058C02EA031226F0F3063D
:1042C00042EA0C02324325F00A03234343F0010380
:1042D00002830384C988028B22F00C020283028BC2
:1042E000114322E0058C25F010050584068B058C12
:1042F00026F4734602EA0333334302EA0C2C4CEAF9
:10430000030302EA041425F0A00C4CEA040C4CF060
:10431000100C0383A0F820C08979038B23F4406339
:104320000383038B02EA01211943018370BC7047A8
:1043300025F480750584868B058C02EA042402EA44
:10434000031226F0F30642EA0C02324325F42063FE
:10435000234343F4807382830384C988828B22F0D1
:104360000C028283828B11439DE7002101804180F2
:1043700001228280C18001817047002A828914BF96
:10438000114322EA01018181704741627047014671
:10439000B0F1804F04BF1C207047A1F18042B2F5FC
:1043A000806204BF1D207047A1F18042B2F5006217
:1043B00004BF1E207047A1F18042B2F5406204BFE5
:1043C00032207047A1F18042B2F5805204BF3620FE
:1043D0007047A1F18042B2F5A05204BF3720704768
:1043E000A1F18042B2F5A03204BF18207047A1F1BC
:1043F0008042B2F5A23226D0A1F18042B2F5A432B9
:1044000004BF1A207047A1F18042B2F5C05204BF28
:104410002B207047A1F18042B2F5E05211D0A1F1FA
:104420008042B2F5005204BF2D207047A1F18042B6
:10443000B2F5803207D0A0F18042B2F5823218BFC7
:1044400070472C20704719207047000010B4028874
:104450001C4BDFF874C0984218BF604511D0B0F112
:10446000804F1CBFA0F18044B4F5806409D0A0F156
:104470008044B4F500641CBFA0F18044B4F54064EE
:1044800003D14C8822F070022243A0F18044B4F59D
:1044900080541CBFA0F18044B4F5A05403D00C8913
:1044A00022F44072224302804A68C2620A8802856E
:1044B000984212BF6045897A01864FF001018182DE
:1044C00010BC704700000140000401404FF0FF3174
:1044D00041600021018001814180817270470000AC
:1044E00010B5094C40F22551204600F005F940B1C5
:1044F000204600F09BF9012240F22551204600F0B1
:1045000021F9002010BD0000004C004010B5164CF1
:1045100040F22551204600F0EFF810B3204600F09D
:1045200085F9134A11491379C854581CC0B2107147
:1045300091F800C00023BCF1AA0F1EBF497855298D
:10454000137108D1042806D30B490A48D1F8141175
:10455000C0F801101371012240F22551204600F0ED
:10456000F1F8002010BD000000500040D41B0020D6
:104570008C02002080060020C01A002070B5224C5A
:1045800040F22551204600F0B7F870B3204600F005
:104590004DF9C5B22846FFF779FA1C490A8912F489
:1045A000004F1AD112F4804F4FF0000004D00A2DB2
:1045B00008BF42F400400FE00D2D08BF42F48040D8
:1045C0000AD0C2F30D03DFF848C0521C92B20CF8B7
:1045D00003500A81C72A00D908812021204600F013
:1045E00071F82021204600F070F84FF458712046F1
:1045F00000F07BF830B10821204600F063F8204637
:1046000000F014F9002070BD001001408C02002061
:10461000201E002070B51B4D40F22771284600F087
:104620006BF8C0B1194C18492078095C401C207007
:10463000284600F0FFF840F22771284600F045F8C0
:1046400020786178884216D1002240F227712846EE
:1046500000F078F80FE040F22551284600F04CF8C1
:1046600048B10B480088C0B2FEF752FA40F225511B
:10467000284600F02AF82846BDE870404FF45871EB
:1046800000F023B800440040201D00208C020020D0
:104690000444004010B50A4C40F22551204600F079
:1046A0002BF858B1204600F0C1F8C0B2FFF77CFBF0
:1046B000012240F22551204600F044F8002010BDB0
:1046C00000480040C94301807047090A012202FAEC
:1046D00001F1C943018070470029818914BF41F469
:1046E000005121F400518181704702460020128858
:1046F0000A4218BF0120704710B401F01F020124C4
:104700000023C1F3421C04FA02F2BCF1010F04BF02
:10471000B0F80CC00CEA020208D0BCF1020F0CBFCA
:10472000B0F810C0B0F814C00CEA0202090A008800
:1047300004FA01F10840002A1CBF00280123184692
:1047400010BC7047C1F3421301F01F014FF0010C80
:104750000CFA01F1012B08BF0C3003D0022B0CBF67
:1047600010301430002A026814BF114322EA0101FC
:104770000160704730B50446008A85B00D46C9888F
:1047800020F4405008432082A089A9882A8920F477
:10479000037011436A8920F4A05010430843A0819C
:1047A000A08AA98920F440700843A0826846FFF7D8
:1047B000D9F8A4F18040B0F588301BBFA4F1804047
:1047C000B0F58A3003980298A18911F4004F00EBEC
:1047D000C00101EB0010296814BF49008900B0FB3B
:1047E000F1F0114A6FF0180CA2FB003149090901E0
:1047F0000B0903FB0CF300EB8300A38913F4004FB8
:104800004FF0320314BF03EBC00003EB0010A2FB18
:1048100000204FEA501014BF00F0070000F00F0016
:104820000843208105B030BD1F85EB518088C0F35F
:1048300008007047C1F308018180704710B5D0F8B7
:10484000E42552689047002010BD10B5134600249F
:104850000A462146FEF7E1F9204610BD10B5134681
:1048600000240A462146FEF71FFA204610BD10B567
:1048700004468021FEF7FBF900212046FEF7F7F9F8
:104880002046BDE8104001F051BA10B5C0F894239D
:104890000323C0F8902380F81131134600240A4600
:1048A0002146FEF7BAF9204610BD70B50546002432
:1048B000052085F811012346224621462846FEF7A9
:1048C000ACF9284601F032FA204670BD10B5C0F8A8
:1048D0003C210223C0F8382180F81131134600240E
:1048E0000A462146FEF7E0F9204610BD70B50546A0
:1048F0000024042085F8110123462246214628463B
:10490000FEF7D2F9284601F011FA204670BD0000EA
:1049100070B5054659B1D5F8E4054269002A56D06C
:1049200095F81201032804BF284690474FE095F8F8
:104930001101002605F58E7402283ED1E169A068B8
:10494000814215D9081AE061E878012803D1D4E939
:1049500002100844E060A08BE16882B22846FFF7AD
:104960007DFF00231A4619462846FEF756F924E033
:10497000216AB1FBF0F200FB12128AB981420FD317
:10498000606A81420CD2002211462846FFF766FF7A
:1049900000231A46194628466662FEF73EF90CE0E7
:1049A000D5F8E405C16829B195F81201032804BFC0
:1049B000284688472846FFF778FF95F81601012812
:1049C00005D1044800682969486085F8166100200F
:1049D00070BD00006003002010B5044659B1D4F842
:1049E000E4058269002A31D094F81201032804BF3B
:1049F000204690472AE094F8110104F55D710328E0
:104A000024D1CA698868824213D9101AC861E07833
:104A1000012803D1D1E902201044C860CA6988681E
:104A2000824238BF104682B2C9682046FFF70DFFA8
:104A30000CE0D4F8E405016929B194F812010328C7
:104A400004BF204688472046FFF750FF002010BDD6
:104A500030B40025002804BF30BC704703460478FA
:104A60004FF0000C44B100BF13F8014F0CF1010CE2
:104A70000CF0FF0C002CF7D1022303EB4C03138046
:104A80004B556A1C03238B540378AA1C002B12BFBE
:104A9000002330BC704700BF10F801CB01F802C002
:104AA000521CD2B28B54521C90F800C0D2B2BCF14E
:104AB000000FF1D130BC70472DE9F0411D4617467B
:104AC00088460446069E00F0D7FEC4F8EC75C4F88C
:104AD000E86541462046C4F8E455FEF704F9D4F8E9
:104AE000E805006880472046BDE8F04100F0ACBE14
:104AF00010B5D0F8E415096A8847002010BD10B53C
:104B0000D0F8E415496A8847002010BD2DE9F04F20
:104B100087B081464FF0000A01F08CFA002800F0BF
:104B2000E382484601F08EFA0090002804BF07B0E7
:104B3000BDE8F08F10F4002F58D00024484601F053
:104B40008CFA060050D0DFF8FC844FF0080B0227E7
:104B500016F0010F45D0E1B2484601F084FA05464F
:104B600010F0010F28D009EB84000125416D8D6004
:104B700099F8031001290CD1406D006904EB8402FF
:104B800009EBC201C0F31200D1F87C23101AC1F85E
:104B90008C03D8F80000E1B202684846904799F8C3
:104BA0000300012808BF002C06D199F8110105283F
:104BB00004BF484601F0BAF815F0020F04D009EB23
:104BC00084003D46406D876015F0080F09D0D8F885
:104BD000000081684846884709EB8400406DC0F8B2
:104BE00008B0641C7608B3D14AF0010A009810F4AA
:104BF000802F73D0C8460024484601F028FA5FEAA7
:104C0000000B6CD01BF0010F6AD0D8F81010E2B284
:104C10000B69486BD04008EB820200F001009269FA
:104C200043EAC010926802EA000515F0010F1DD09A
:104C300001254A6B05FA04F022EA0000486308EBFC
:104C4000840080698560FF48E1B2006842684046A0
:104C5000904798F80300012808BF002C06D198F867
:104C60001101042804BF404601F060F815F0080F58
:104C700004D008EB840008258069856015F0100FCA
:104C800004D008EB840010258069856015F0400F82
:104C900004D008EB840040258069856015F0020F80
:104CA00004D008EB840002258069856015F0800F30
:104CB00042D004EB840008EBC00000F58E75D5E906
:104CC0000501401AA968884200F21E82C01C8708AC
:104CD00008EB840001908069806924E033E030E0D3
:104CE0002AE0461AA868B042C0F01082F01C87087B
:104CF000B3B2E2B24046E96801F07EFAE8683044B7
:104D0000E860A8698119A9610198806980696A6968
:104D10008A4208D12A7801219140D8F81020536B9B
:104D200023EA0101516380B2B84284BFD5E905018D
:104D3000884201D90028D4D1641C5FEA5B0B7FF460
:104D400061AF4AF0010A009810F0020F03D0D9F8C1
:104D50000C1002204861009810F0004F1AD099F80A
:104D60000A0028B1D9F80C01016821F003010160A3
:104D7000D9F81000416821F001014160B148006894
:104D8000816948468847D9F80C104FF000404861C7
:104D90004AF0010A009810F4006F35D000208DF819
:104DA000040099F812018DF80400A64800684169D2
:104DB00048468847D9F810008068D9F80C204FF48D
:104DC0000061516199F80A10002918BF10F0010F15
:104DD00018D099F81501012804BF9DF80400032894
:104DE00010D1D9F80C01016841F001010160D9F836
:104DF0000C01016841F0030101609348016841F032
:104E0000060101604AF0010A009810F0080F0AD06C
:104E10008C480068C16848468847D9F80C100820BB
:104E200048614AF0010A009810F0100F3ED0D9F8FE
:104E30000C00816921F010018161D9F80C00056A2C
:104E400005F00F0000EB800109EBC10000F55D7477
:104E5000C5F34340072821D2DFE800F020200420DA
:104E60002020150047F6F070054217D0C5F30A124E
:104E700015464846E16801F0FEF8E0682844E06025
:104E8000A069284409E00822484609F2CC5101F003
:104E9000F2F8A069C5F30A110844A061D9F80C0022
:104EA000816941F0100181614AF0010A009810F413
:104EB000805F4CD0D9F810004FF000044FF001058E
:104EC000416821F0010141602146484601F07EF829
:104ED00099F801000021002888BFFF220BD900BFEC
:104EE00009EB810083699A60406D826099F8010046
:104EF000491C8842F4D8D9F810004FF0FF31816185
:104F00002046D9F8101065F30F0065F31F40C86103
:104F1000D9F8101044F00B004861D9F8101044F093
:104F20000B000861D9F81000016821F4FE610160EE
:104F3000484600F0FBFED9F80C104FF48050486151
:104F4000404800680169484688474AF0010A0098CD
:104F500010F4005F74D0484600F068FE02A8FEF727
:104F600001FDD9F80C00039DC16821F47054C460A0
:104F7000484601F04FF8032863D0012089F8020069
:104F80004020A9F8040031483149284488423CBFF8
:104F900024F4705000F560507CD3A5F574002D49C1
:104FA000A0F5105088423CBF24F4705000F55050DA
:104FB00070D329482949284488423CBF24F47050C2
:104FC00000F5405066D3A5F18C702549A0F543400B
:104FD00088423CBF24F4705000F530505AD3214829
:104FE0002149284488423CBF24F4705000F52050E9
:104FF00050D31E481E49284488423CBF24F47050B8
:1050000000F5105046D3A5F1B7701A49A0F55850D5
:1050100088423CBF24F4705000F500503AD3164843
:105020001649284488423CBF24F4705000F5E050F3
:1050300030D3134813492844884224F4705024E0A4
:1050400032E055E05C03002010ED00E0401E1BFF45
:1050500040420F00E0C810002013FBFE20D61300D2
:10506000006A180000D3CEFE40771B00C05BB3FE81
:10507000C091210040AC2700C01D6AFE40E1330012
:10508000803C36FEE09C410004E034BF00F5C05097
:1050900000F5A050D9F80C10C860D9F80C104FF4E6
:1050A000005048614AF0010A009810F4801F0BD0AC
:1050B00017480068C16948468847D9F80C104FF472
:1050C000801048614AF0010A009810F4001F0BD0CC
:1050D0000F480068016A48468847D9F80C104FF419
:1050E000001048614AF0010A07B05046BDE8F08F51
:1050F000002089F802004FF4007124F47050A9F8E0
:10510000041000F51050C5E70846DFE50646EDE55A
:105110005C03002090F8CC250A7090F8CD254A70E9
:1051200090F8CE2590F8CF3502EB03224A8090F814
:10513000D02590F8D13502EB03228A8090F8D22551
:1051400090F8D33502EB032292B2CA800121C0F855
:10515000402180F81111704710B500230446402209
:105160001946FDF73AFD0023402280212046FDF735
:1051700034FD012084F81201D4F8E815A0784968BC
:105180008847002010BD10B50446D0F8E805006936
:105190008047032084F81201002010BD10B5D0F81C
:1051A000E415C969002918BF8847002010BD10B553
:1051B0000446D0F8E405026820469047D4F8E80594
:1051C00080688047002010BD10B582B00446694653
:1051D000FFF7A0FF9DF8001011F01F020BD0012A6D
:1051E0000ED0022A11D001F080012046FDF73FFDCC
:1051F00002B0002010BD6946204600F00BF8F7E72A
:105200006946204600F010FAF2E76946204600F0B1
:1052100071F9EDE7F8B50D46497800260A2980F0C6
:10522000E480DFE801F0F4EFE2EEE26A05E2D28921
:105230000446E888ADF800006888010A04297AD29B
:10524000DFE801F086020A16D4F8EC15A0780A68A7
:1052500069469047014642E0D4F8E415A0788A6A8E
:1052600069469047014602204870C4F8F01536E0C0
:10527000C0B206286CD2DFE800F0030B131B232B0F
:10528000D4F8EC15A0784A6869469047014626E0B4
:10529000D4F8EC15A0788A686946904701461EE06C
:1052A000D4F8EC15A078CA6869469047014616E024
:1052B000D4F8EC15A0780A696946904701460EE0DB
:1052C000D4F8EC15A0784A6969469047014606E093
:1052D000D4F8EC15A0788A69694690470146BDF874
:1052E000000000281CBFEA88002A3CD0824288BF08
:1052F0000246ADF80020204686E00446A888002833
:1053000004BFE888002823D1A87800F07F0594F82E
:10531000120103281CD084F8145129462046FDF7B9
:105320009EFC2046FFF7E2FA002D0CBF0120022070
:1053300084F8120117E00BE0A9786A4D04460129B0
:10534000297005D894F8120102280ED003281DD028
:1053500080212046FDF78BFC00212046FDF787FCCD
:10536000204600F0E3FC3046F8BD59B184F8101136
:10537000032084F812012046FFF719FF2046FFF7AB
:10538000B5FAF0E72046FFF7B1FAECE789B194F8F7
:1053900010018842F6D001462046FFF74FFA2978DF
:1053A00084F810112046FFF702FF2046FFF79EFA0F
:1053B000D9E7022084F8120184F810112046FFF783
:1053C0003DFA2046FFF792FACDE7E98801290CD192
:1053D00090F81211022904BF0122434914D0032975
:1053E00004BF012200F588710ED004468021FDF72C
:1053F0003EFC00212046FDF73AFC204600F096FCDA
:10540000B1E717E054E002E0FFF760FAABE790F88D
:105410001211022918BF0329E7D132494FF00102C6
:10542000CA60D0F81821002A1CBF0322CA600222D9
:105430002E49E9E7044668882946012810D0022849
:1054400004BFA98811F0FF0F8DD1206940684FEA91
:105450001121062920D2DFE801F01F1F0F13171BAF
:105460000120C4F81801D4F8E4058268204690476A
:105470002046FFF73BFA76E720F0700020300EE080
:1054800020F0700030300AE020F07000403006E07C
:1054900020F07000503002E020F07000103014490D
:1054A0000860012084F816012046FFF71FFA5AE72A
:1054B000044690F812012946022818BF03287FF4F9
:1054C00047AF488801287FF44EAF0020C4F8180188
:1054D000D4F8E4058268204690472046FFF706FA94
:1054E00041E70000640300206C03002070030020EB
:1054F0006003002070B50D4604462878002609791F
:1055000000F06000202807D0687800284CD00128DF
:105510002BD0032808D058E0D4F8E4052946826847
:1055200020469047304670BD94F81201022802D000
:10553000032808D03EE0002918BF802945D0204626
:10554000FDF795FB41E0688828B900291EBF802936
:105550002046FDF78CFBD4F8E405294682682046F6
:1055600090472046FFF7C2F92FE094F81201022875
:1055700002D0032805D01DE0002918BF8029DED104
:1055800023E0688808BB002918BF802908D020467E
:10559000FDF706FBD4F8E4052946826820469047CB
:1055A0002046FFF7A3F910E094F8120102280ED06C
:1055B000032811D080212046FDF759FB0021204609
:1055C000FDF755FB204600F0B1FB304670BD0029C9
:1055D00018BF8029B3D1F8E7114811F0800F4FF0C0
:1055E00000024FF0010309D001F07F0101EB8101BE
:1055F00004EBC10191F81E1149B106E001EB8101F4
:1056000004EBC10191F8761309B1436000E04260F8
:105610004FF0020203492046FFF758F9D5E7000092
:10562000640300206803002070B5044690F812015E
:1056300000260D4603280ED1287901280BD8D4F86E
:10564000E405826820469047E888002804BF204689
:10565000FFF74CF90AE080212046FDF708FB002106
:105660002046FDF704FB204600F060FB304670BD8D
:1056700010B590F8121180F81311042180F812115E
:10568000D0F8E805C0688047002010BD10B50A4674
:10569000024903A0FFF7DCF9004810BDD00E00203E
:1056A00056435020436F6E66696700000149002031
:1056B000487070474001002001490320487070473E
:1056C0004001002012200880004870470C02002092
:1056D00001490420487070474001002070470000D5
:1056E0000149022048707047400100200149012013
:1056F00048707047400100207047000010B50A460E
:10570000024903A0FFF7A4F9004810BDD00E002005
:1057100056435020496E74657266616365000000EF
:1057200004200880004870475C01002010B50A463C
:10573000024903A0FFF78CF9004810BDD00E0020ED
:1057400053544D6963726F656C656374726F6E69F3
:10575000637300000A4610B5044900280CBF04A07A
:105760000CA0FFF775F9014810BD0000D00E002015
:1057700053544D3332205669727475616C20436FF7
:105780006D506F727420696E204853206D6F646590
:105790000000000053544D33322056697274756115
:1057A0006C20436F6D506F727420696E20465320D9
:1057B0004D6F6465000000002DE9F0011A2008809B
:1057C0001A481C4A1A49006812680968801829D0CA
:1057D000194F0823BA1C0A24302537264FF0000C35
:1057E000B4EB107F8CBF05EB107806EB107882F8D5
:1057F000008082F801C00001921C5B1E04BF07F10B
:1058000012000422ECD100BFB4EB117F8CBF05EB7A
:10581000117306EB1173037080F801C00901801C3D
:10582000521EF1D1BDE8F00103487047107AFF1F06
:10583000147AFF1F187AFF1F1E02002043200880E1
:10584000004870479801002008B54FF4C060FDF78C
:10585000D3FD43208DF80000064881788DF80110B3
:10586000C0788DF8020001208DF803006846FDF72E
:105870008BFD08BD4001002010B5012182B0084613
:10588000FEF734F84FF4C850009003208DF805005F
:1058900002208DF8040000208DF806000F4C8DF8D2
:1058A000070069462046FDF7B3FC0A22082120467E
:1058B000FDF7FBFC0A220B212046FDF7F6FC0A222D
:1058C0000C212046FDF7F1FC01218803FEF73EF88C
:1058D00001218020FEF716F802B010BD0000024042
:1058E0004FF47A714143C1EB0111DFF818C0002079
:1058F000CB0062460146E3FB0C214908401C88426C
:10590000FCD9704749922449C0EB0010DFF818C059
:105910000021C30062460846E3FB0C204008491CF6
:105920008142FCD970470000499224492DE9F8438F
:105930000446017A4FF00008424DC06847460129ED
:1059400037D0C16841F04001C160002600970320B4
:10595000FFF7DAFFE06800690090761CAE4218D8C5
:10596000009810F0004FF2D00099002041F00101A2
:1059700000910099E2681161E1680A690092401C97
:10598000A84203D8009A12F0010FF6D10320FFF7C6
:10599000BBFF617A4FF43410002918BF4FF4741024
:1059A000E16888631420FFF79BFFE078012846D167
:1059B0003DE0816B627A21F48031002A18BF41F406
:1059C00080118163E168CA6822F0400222F49402E7
:1059D000CA60002600970320FFF796FFE068006981
:1059E0000090761CAE4218D8009810F0004FF2D00C
:1059F0000099002041F0010100910099E2681161D5
:105A0000E1680A690092401CA84203D8009A12F08B
:105A1000010FF6D10320FFF777FFE07801280ED1C0
:105A2000E16807F10A0040F020008860BDE7E16806
:105A3000886820F01E000A3040F020008860404650
:105A4000BDE8F883400D03002DE9F8430446002625
:105A5000D4F80C2135462946284616602269136879
:105A600023F4C0531360E27A012A2DD123694FF049
:105A7000030C1A686CF301021A60E2688023536217
:105A80002022D4F80CC062F31F4163F30F01CCF85D
:105A9000281001EB114161F30F00E16863F31F402F
:105AA000C1F8040100EB104161F30F00E16862F3FB
:105AB0001F40C1F8080100EB104161F30F00E168DD
:105AC00065F31F40C1F80C01102100200095009AD9
:105AD00042F020020092009A61F38A12009200992B
