:020000040800F2
:10000000603E01208102000891300008252500088B
:100010008D2C000873140008FB5500080000000038
:10002000000000000000000000000000C101000806
:100030005F200008000000001D02000801350008D4
:10004000175600089B0200089B0200089B0200084C
:100050009B0200089B0200086120000801210008A3
:100060001F2100083D2100085B2100089B020008B9
:100070009B0200089B0200089B0200089B020008EC
:100080009B0200089B0200089B02000865180008FC
:10009000751400089B0200089B02000879210008E3
:1000A00031360008353600089B0200083336000858
:1000B0006136000885360008B13600089B0200084A
:1000C0009B0200089B0200089B020008D93300082D
:1000D000DB33000859390008D5390008493A0008CF
:1000E000812000089B0200089B020008713700086D
:1000F0007F3700087D3700089B0200089B0200083C
:100100009B0200089B020008DD360008DD33000872
:10011000013900082D39000811370008453700085B
:100120009B0200089B0200089B0200089B0200083B
:100130009B0200089B0200089B0200089B0200082B
:100140009B0200089B0200089B020008193100086E
:100150009B0200089B0200089B0200089B0200080B
:100160009B0200089B0200089B0200089B020008FB
:100170009B0200089B0200089B0200080000000090
:100180009B0200089B0200089B0200089B020008DB
:100190009B0200089B0200089B0200089B020008CB
:1001A00000000000000000009B020008DFF80CD0F7
:1001B00000F0C2FD0048004729690008603E0120A8
:1001C0002C4B19680868B0E8F04F80F30988BFF33A
:1001D0006F8F4FF0000080F311887047000000001F
:1001E00008480068006880F308884FF0000080F33A
:1001F000148862B661B6BFF34F8FBFF36F8F00DF15
:1002000000BF00BF08ED00E0DFF80C00016841F41A
:1002100070010160704700BF88ED00E0EFF30980D6
:10022000BFF36F8F134B1A681EF0100F08BF20ED3D
:10023000108A20E9F04F106009B44FF0010080F3FC
:100240001188BFF34F8FBFF36F8F07F01DFD4FF085
:10025000000080F3118809BC19680868B0E8F04F05
:100260001EF0100F08BFB0EC108A80F30988BFF3AE
:100270006F8F70477C010020EFF30580704700000E
:100280000648804706480047FEE7FEE7FEE7FEE730
:10029000FEE7FEE7FEE7FEE7FEE7FEE72D35000896
:1002A000AD01000840EA01039B0703D009E008C93B
:1002B000121F08C0042AFAD203E011F8013B00F82B
:1002C000013B521EF9D27047D2B201E000F8012B77
:1002D000491EFBD270470022F6E710B513460A46C6
:1002E00004461946FFF7F0FF204610BD30B505461D
:1002F0000020034600E05B1C934205D2EC5CC85C26
:10030000201A01D1002CF6D130BD00000FB400B589
:100310008DB010A909900B9000914FF0FF300A901A
:1003200000200C9005480690054807906A4609A8E9
:100330000F9900F01BFC0DB05DF814FB890B000851
:10034000A70B00082DE9FF4F087883B09946FF28D6
:1003500005D0491C2D2804D00024002008E00020EE
:100360000BE00124F9E700EB800003EB4000491C9F
:100370000B78FF2BF7D104B140420023029314788D
:1003800019461D462D2C01D02B2C04D1521C2D2C8E
:1003900013D000240294AA461478FF2C0FD00A250B
:1003A000A3FB057801FB05814FF0000C03FB0C114A
:1003B000521CE3194AEB0101EEE70124EAE781440C
:1003C00053EA010002D019F5C87F06DA039800212C
:1003D000C0E9001107B0BDE8F08F0025AE4E2F46F2
:1003E000DFF8B882184600F083FCCDE90001B9F1CE
:1003F000000002DAC9F1000400E004460023A74A25
:100400001AEB030B42EB045A12E0E00707D02A462E
:1004100033463846414600F0ECF9074688462A46FE
:1004200033461046194600F0E4F905460E466410BE
:10043000002CEAD1DDE90001B9F1000F5A4653461C
:1004400006DA00F048FA3A46434600F044FA05E07E
:1004500000F0CFF93A46434600F0CBF9029A0AB1D0
:1004600081F00041039AC2E90001B3E72DE9FF4F93
:100470001F468DB0D7E901464FF0FF382E20454684
:100480004FF000090B90B9696D1C0E988847396AC6
:10049000824688470028F6D1BAF1FF3F0AD024F4FB
:1004A000D064002E11DDBAF12B0F08D0BAF12D0F58
:1004B0000BD102E0404611B08DE744F48064B96985
:1004C0006D1C0E9888478246761E6946600501D5E8
:1004D0002D2000E02B208DF8000001F1010B0DF123
:1004E000200809E0B9696D1C0E98884782460F986C
:1004F00044F40074761E0560002E02DDBAF1300F60
:10050000F0D00B998A453ED144F0800406E00F9963
:10051000681CA9F1010944F400740860B9696D1CF4
:10052000761E0E98884782463028F0D02BE00B9933
:100530008A4505D1200603D444F08004761E18E0D5
:10054000504605F073F908B30DF11301761E44F41B
:1005500000748B4508D2AAF130000BF8010B20067D
:1005600007D5A9F1010003E0200602D409F101003A
:100570008146A00502D50F99681C0860B9696D1CF9
:100580000E9888478246002ED1DC53E0002E51DDC4
:10059000BAF1650F02D0BAF1450F4BD1A00549D58C
:1005A000B9696D1C24F44074761E0E988847824603
:1005B000002E0CDD2B2804D0BAF12D0F07D144F406
:1005C0008074B9696D1C0E9888478246761EE005D6
:1005D00001D52D2100E02B2108F8011BCDF82C803E
:1005E00021E00DF12901761E44F4007488450CD2F7
:1005F000AAF1300010F0FF0088F8000002D10B993A
:10060000884509D908F1010806E0E00501D524482C
:1006100001E042F20F708146B9696D1C0E9888475F
:1006200082460F980560002E04DD504605F0FEF866
:100630000028D6D1F9690E988847FF208BF8000072
:1006400088F800000020069007904B466A4608A9EB
:1006500006A8FFF777FEA00502D46FF001002AE795
:1006600014F0240F0AD0E00714D1DDE9061238682F
:10067000031D3B600068C0E900120BE0DDE90601E4
:1006800000F0DAF90146E00704D13868021D3A604B
:100690000068016028460EE7000014400000F03FAB
:1006A000F1D8FFFF2DE9FE4F804681EA0300C00F1D
:1006B0000C46009021F0004123F00045B8EB020009
:1006C000A94105D24046214690461C460B460246AB
:1006D00023F00040104347D0270DC7F30A00C3F3AF
:1006E0000A510290401A019040286BDAC3F31300BC
:1006F00040F4801B0098924620B10023D2EB030AFD
:1007000063EB0B0B01985946C0F14002504600F0D4
:10071000F6F906460D4650465946019A00F00EFA83
:1007200010EB08006141002487EA115284EAE77364
:100730001A4340D0009A62B3019A012A4FEA075245
:1007400015DC001B61EB02014FF0004202EA075288
:10075000CDE90042001C41F5801132462B4600F0E5
:1007600079FA03B0BDE8F08F40462146F9E7001B57
:1007700061EB0201001C41F5801300185B41201859
:10078000A2F5001747EB030140EAD570B6196D4199
:1007900011E06D084FEA360645EAC0754FEA075288
:1007A000001B61EB0201001C41F5801149084FEA72
:1007B00030000019514132462B4603B0BDE8F04FDE
:1007C00000F039BA0098012240000023D0EB020269
:1007D00063EBE073009821464FEAE074B8EB000049
:1007E00061EB0401E9E783F000435BE781F000413E
:1007F00058E72DE9FE4F81EA030404F0004421F09C
:10080000004100944FF0000B23F0004350EA010434
:100810005ED052EA03045BD0C3F30A54C1F30A5515
:100820002C44A4F2F3340194A0FB0254C1F313014D
:1008300041F48011C3F3130343F4801301FB02441A
:1008400000FB034E840A970A44EA815447EA83571F
:10085000A4FB076802958D0A05FB07854FEA932CD8
:1008600004FB0C542705029D4FEA065847EA163749
:10087000B5EB08056EEB070C870E920E47EA811761
:1008800042EA8312A7FB0201B6EB0B0164EB000402
:100890002B0D43EA0C335E1844EB1C50DA465146EC
:1008A000E7FB0201C5F313044FEA0B3343EA145389
:1008B0004FEA0432019C43EA0603A4F10C040294BB
:1008C000009CCDE900B400F0C5F903B0BDE8F08F9D
:1008D00000200146F9E72DE9F04D81EA030404F018
:1008E000004B21F0004514464FF0000A23F0004170
:1008F00050EA050220D054EA01021DD0C5F30A5780
:100900000246C5F31303C1F31300C1F30A5640F4C2
:10091000801543F48013A7EB0608101BD64608F297
:10092000FD3873EB050002D308F1010801E09218CD
:100930005B41B8F1000F03DA00200146BDE8F08DFD
:1009400000204FF48011064684460EE0171B73EB1F
:10095000050705D3121B63EB050306434CEA010CA4
:1009600049084FEA300092185B4150EA0107EDD187
:1009700052EA030012D082EA040083EA0501084328
:1009800005D0101BAB4106D20122002306E0002255
:100990004FF0004302E06FF0010253101AEB060023
:1009A0004CEB085110EB0A0041EB0B01BDE8F04D98
:1009B00000F041B90EB5C10F80EAE0700844CA07E3
:1009C000002140F233438DE80E000A460B4600F04A
:1009D00041F903B000BDC1F30A5210B5C1F31301D0
:1009E00040F2FF3341F480119A4201DA002010BD39
:1009F00040F233439A42A2F2334203DC524200F007
:100A00008DF810BD904010BD30B5041E71F100048A
:100A100004DB4FF00044404264EB0101141E73F10B
:100A2000000405DB1C464FF00043524263EB040315
:100A3000994208BF904230BD01F0004330B421F02C
:100A4000004150EA010206D00A0DA2F56072C1F31E
:100A50001301002A02DC30BC00207047440F44EA36
:100A6000C104C100E01830BC00EBC25000F0ACB8CB
:100A700030B50B46014600202022012409E021FA6E
:100A800002F59D4205D303FA02F5491B04FA02F56B
:100A90002844151EA2F10102F1DC30BD2DE9F05F02
:100AA0000546002092469B468846064681464024DD
:100AB0001BE0284641464746224600F02FF85346A1
:100AC0005A46C01A914110D311461846224600F0EA
:100AD00016F82D1A67EB01084F4622460120002127
:100AE00000F00DF817EB00094E41201EA4F101049F
:100AF000DFDC484631462A464346BDE8F09F202ABF
:100B000004DB203A00FA02F1002070479140C2F164
:100B1000200320FA03F3194390407047202A04DB96
:100B2000203A21FA02F00021704721FA02F3D04066
:100B3000C2F120029140084319467047202A06DB83
:100B4000CB17203A41FA02F043EAE07306E041FA9B
:100B500002F3D040C2F12002914008431946704789
:100B6000026811441378016018467047D160044947
:100B700051610449116200211161114600F0F4B87D
:100B8000610B00085D0D0008426842B1016811F870
:100B9000013B23B1521EC0E90012184670470121E3
:100BA000C160881E704742685AB1C368016843B982
:100BB00083688B4205D0491E521CC0E900120020F8
:100BC00070474FF0FF3070470029A8BF7047401CA6
:100BD000490008BF20F00100704710B4B0FA80FC53
:100BE00000FA0CF050EA010404BF10BC704749B190
:100BF000CCF1200421FA04F411FA0CF118BF012100
:100C000021430843A3EB0C01CB1D4FEA00614FEADF
:100C1000102042BF002010BC704700EBC3501044AE
:100C20000029A4BF10BC7047401C490008BF20F039
:100C3000010010BC704710B5141E73F1000408DAEF
:100C4000401C41F1000192185B411A4301D120F090
:100C5000010010BD2DE9F04D92469B4611B1B1FA4D
:100C600081F202E0B0FA80F220329046FFF747FFAF
:100C700004460F4640EA0A0041EA0B0153465A4631
:100C8000084313D0114653EA010019D0C8F14002BD
:100C90005046FFF743FF05460E465046594642462A
:100CA000FFF72DFF084305D0012004E02046394618
:100CB000BDE8F08D0020054346EAE0762C4337433B
:100CC0000A986305E40AA0EB08000022FD0A44EA42
:100CD00047540A3002D500200146E9E70105101902
:100CE0006941DDE9084500196941BDE8F04DA2E719
:100CF0000EB540F2334202920022CDE900221346A3
:100D0000FFF7A8FF03B000BDC1F30A52C1F31301FE
:100D100040F2FF3341F480119A4202DA002001468A
:100D2000704740F233439A42A2F2334202DC52420D
:100D3000FFF7F4BEFFF7E3BE064C074D06E0E068A0
:100D400040F0010394E8070098471034AC42F6D312
:100D5000FFF730FAD4C30008F4C30008C0B24FF460
:100D6000F05100F097B900002DE9F34F8BB04FF030
:100D7000000801F10C000C464FF0010B46460DF146
:100D8000080A01906269012101989047051E2DD043
:100D9000252D2CD0216A8847C0B1626901210198B4
:100DA0009047216A88470028F7D1411E626901985F
:100DB000904700E0761CA1690B988847216A884714
:100DC0000028F7D1E1690B988847DBE7A1690B9808
:100DD00088470746A84201D1761CD3E7E1690B9802
:100DE00088477F1C02D1B8F1000F6FD046E1002781
:100DF00062693D463946019890472A2804D16269C4
:100E00000121019890470125DFF884926269012150
:100E100001989047A0F130010A290AD24F45E5DC3C
:100E200007EB870100EB4107303FDFD445F01005A9
:100E3000ECE7E90601D46FF000476C280AD04C2893
:100E400014D0682815D06A280DD074281CD07A28B0
:100E50001AD01DE062690121019890476C2802D0E8
:100E600045F0040514E045F002050DE045F02005CD
:100E70000AE06269012101989047682802D045F094
:100E8000080505E045F40065626901210198904775
:100E9000C4E9015765283DD019DC58287AD00CDC0C
:100EA000452837D004DC252826D0412831D131E02F
:100EB00046282FD047282CD12CE05B2877D06128FA
:100EC00028D063287CD0642823D15AE0D0E06F2852
:100ED00048D008DC66281DD067281BD0692821D09F
:100EE0006E2816D127E0702845D0732868D0752861
:100EF00047D078280DD14DE0A1690B988847054669
:100F000025283FF469AFE1690B9888476D1C3FF4D1
:100F10006AAFB3E023466A466FF001000B99FFF712
:100F2000A5FA9EE045F040006060A80723464FF018
:100F3000000236D43EE0E8077FF447AF2068011D89
:100F400021600068290501D506701BE7290701D536
:100F5000068017E7A90703D5F117C0E9006111E77B
:100F600006600FE745F040006060A80723464FF099
:100F7000080216D41EE040F60E0125EA010060606A
:100F800016E045F040006060A80723464FF00A02D3
:100F900007D40FE045F040006060A80708D523465D
:100FA00010226FF001000B99AFF3008059E007E0C9
:100FB000234610226FF001000B99AFF3008050E040
:100FC0004FF000094F464B46632802D05B2806D0FD
:100FD00040E0E80601D40120A06001273AE0626900
:100FE0000121019890475E2805D14FF001096269FF
:100FF000494601989047216939B900210A4653466C
:1010000043F82120491C0829FADBB0B3216969B9EA
:10101000C11700EBD16253110AEB830122F01F02CA
:10102000821A01200B68904003430B606269012122
:10103000019890475D28E8D1B9F1000F09D0002050
:10104000514651F82020D24341F82020401C082866
:10105000F7DB02AB224600976FF001000B99AFF36C
:10106000008000280CDA401C08D1BBF1000F05D02D
:101070004FF0FF300DB0BDE8F08FFFE74046F9E7D5
:10108000E90701D108F1010806444FF0000B79E6A9
:10109000CCCCCC0C7F2801D9002208E0064A02EB18
:1010A0005002C007127800D1120902F00F0201208D
:1010B000904008407047000094C3000870B58C1839
:1010C00010F8015B15F0070301D110F8013B2A115C
:1010D00006D110F8012B03E010F8016B01F8016B49
:1010E0005B1EF9D12B0705D40023521E0DD401F845
:1010F000013BFAE710F8013BCB1A921C03E013F80E
:10110000015B01F8015B521EF9D5A142D8D3002042
:1011100070BD00002DE9FF4F044689B00C30DDE9B9
:1011200018A90FC8DDF858B08DE80F00384E2168B7
:10113000DFF8E080B14208BF4FF0007003D04145B6
:1011400008BF4FF0C060012102F0DAF8324D60684C
:10115000294600F063F82946A06800F05FF820688F
:10116000B04214BF40450921606801F087F920684A
:10117000B04214BF40450921A06801F07FF9002565
:101180008DF81650012717988DF817708DF81200FA
:101190000A988DF813000C9806958DF814000B989A
:1011A0008DF81500ADF810B004A9206800F0DCFC43
:1011B0008DF80A508DF80B508DF80C70ADF800507A
:1011C000ADF80450ADF80250ADF80650ADF8085037
:1011D0008DF80D70684600F0BFFB012202212068E7
:1011E00000F0BAFC2068B04208BF142102D040458C
:1011F00008BF40218DF81C108DF81DA08DF81E90A1
:101200008DF81F7007A801F045FF0DB0BDE8F08F05
:10121000006400400068004001000200F0B505468F
:10122000C1F3074083B0002808BF00240AD001287A
:1012300008BF012406D0022808BF022402D00328D8
:1012400008BF0324C1F30720002808BF002702D0ED
:10125000012808BF012711F0FF0008BF002606D0B3
:10126000012808BF012602D0022808BF02262968EB
:10127000A1F18042B2F5003208BF012037D0A1F1C0
:101280008042B2F5013208BF022030D0A1F1804285
:10129000B2F5023208BF042029D0A1F18042B2F594
:1012A000033208BF082022D0A1F18042B2F50432F7
:1012B00008BF10201BD0A1F18042B2F5053208BF53
:1012C000202014D0A1F18042B2F5063208BF4020A0
:1012D0000DD0A1F18042B2F5073208BF802006D0C0
:1012E000A1F18042B2F5083208BF4FF480700121AD
:1012F00001F0EEFF686800908DF804408DF80670EC
:1013000003208DF805008DF807606946286801F014
:1013100057F803B0F0BD2DE9F04184B01C461546E6
:101320000E4680460A9F00F027F80021ADF80050D5
:10133000ADF80210ADF8081001966946404602F07B
:101340009FFA01221146404602F034FA012140463C
:1013500002F01CFA404602F035FA8DF80C008DF8C8
:101360000D408DF80E7001208DF80F0003A801F0DC
:1013700091FE04B0BDE8F081A0F18041B1F580316B
:1013800043D0B0F1804F48D0A0F18041B1F58061E9
:101390003FD0A0F18041B1F5006142D0A0F1804181
:1013A000B1F5406141D0A0F18041B1F5805140D00C
:1013B000A0F18041B1F5A0513FD0A0F18041B1F53D
:1013C00082313ED0A0F18041B1F5A0313DD0A0F1F5
:1013D0008041B1F5A2313CD0A0F18041B1F5A431FA
:1013E0003BD0A0F18041B1F5C0513AD0A0F180418D
:1013F000B1F5E05139D0A0F18041B1F5005118BFED
:1014000070470121080201F07BBF0121084601F06D
:1014100083BF0121022001F073BF0121084601F0C2
:101420006FBF0121042001F06BBF0121082001F0F2
:1014300067BF0121102001F063BF0121202001F0CE
:101440005FBF0121022001F067BF0121080401F004
:1014500063BF0121480401F05FBF0121880401F04E
:101460005BBF0121402001F04BBF0121802001F032
:1014700047BFFEE710B5F54C86B00221204600F0CC
:10148000E3FA002804BF06B010BD0421204600F096
:1014900015FAEF49204600F0F7F96A460021204688
:1014A00000F0DCFBEB4900980860EB48D0F83B10FB
:1014B000491CC0F83B100098E84940099FEDE80A34
:1014C00001283AD002281CBF06B010BD009800F0D9
:1014D0001F000A2800F0678179DC012800F01D81D7
:1014E000032800F05281042800F0808109281CBFE5
:1014F00006B010BDD9489DF80B1080F864109DF817
:101500000C1080F865109DF80D1080F866109DF89D
:101510000E1080F867109DF80F1080F86C109DF881
:10152000101080F86D109DF8111080F86E109DF865
:10153000121080F86F1006B010BD009800F01F0068
:101540000A2871D02CDC012842D003286FD004284F
:101550006CD009281CBF06B010BDC0489DF80B1008
:1015600080F860109DF80C1080F861109DF80D1047
:1015700080F862109DF80E1080F863109DF80F102F
:1015800080F868109DF8101080F869109DF811100F
:1015900080F86A109DF8121080F86B1006B010BD2C
:1015A0000F2874D0172873D019281CBF06B010BD9F
:1015B000AA489DF80B1001769DF80C1041769DF815
:1015C0000D1081769DF80E10C17606B010BD90E02A
:1015D000BDF90B10A14800EE901AB8EEE01AC1EE6A
:1015E000000A10EE901A8162BDF90D1000EE901AFB
:1015F000B8EEE01AC1EE000A10EE901A0162BDF9D1
:101600000F1000EE901AB8EEE01AC1EE000A10EECC
:10161000901A01639DF8111080F838109DF812108F
:1016200080F83A1006B010BD0FE000E031E08B48C2
:101630009DF80B1001729DF80C1041729DF80D1071
:1016400081729DF80E10C172ECE784489DF80B1072
:1016500080F850109DF80C1080F851109DF80D1076
:1016600080F852109DF80E1080F853109DF80F105E
:1016700080F858109DF8101080F859109DF811103E
:1016800080F85A109DF8121080F85B10CAE70EE03F
:101690006EE072489DF80B1001749DF80C104174B7
:1016A0009DF80D1081749DF80E10C174BAE76B4857
:1016B0009DF80B1080F878109DF80C1080F87910C8
:1016C0009DF80D1080F87A109DF80E1080F87B10B0
:1016D0009DF80F1080F880109DF8101080F8811090
:1016E0009DF8111080F882109DF8121080F8831078
:1016F00098E70F2879D017283AD0192892D157485F
:101700009DF80B1001779DF80C1041779DF80D1096
:1017100081779DF80E10C17784E7BDF90B104F4813
:1017200000EE901AB8EEE01AC1EE000A10EE901A20
:10173000C162BDF90D1000EE901AB8EEE01AC1EECC
:10174000000A10EE901A4162BDF90F1000EE901AD7
:10175000B8EEE01AC1EE000A10EE901A41639DF84F
:10176000111080F839109DF8121080F83B1059E7DD
:101770009DF80B0008709DF80C0048709DF80D0056
:1017800088709DF80E00C8704CE734489DF80B1027
:1017900001739DF80C1041739DF80D1081739DF835
:1017A0000E10C1733EE72D489DF80B1080F85410C1
:1017B0009DF80C1080F855109DF80D1080F856100B
:1017C0009DF80E1080F857109DF80F1080F85C10EF
:1017D0009DF8101080F85D109DF8111080F85E10D3
:1017E0009DF8121080F85F101CE70DE01B489DF873
:1017F0000B1001759DF80C1041759DF80D10817549
:101800009DF80E10C1750DE714489DF80B1080F877
:101810007C109DF80C1080F87D109DF80D1080F85C
:101820007E109DF80E1080F87F109DF80F1080F844
:1018300084109DF8101080F885109DF8111080F824
:1018400086109DF8121080F88710EBE600640040C7
:101850000800003220000020A0020020E902002041
:101860000000C84210B5074C0121204600F0ECF8FA
:10187000002808BF10BD01212046BDE8104000F03F
:101880001DB80000006400400B4A914202BF0021D5
:1018900081617047C1F3130211F0007F1CBFC26069
:1018A000704711F0806F1CBF0261704711F0006F2C
:1018B00014BF8260426070477000F03010B408239B
:1018C00004224FF0100CB1F5007F40D021DC20291C
:1018D00002BF036110BC704710DC012901BF1D4924
:1018E000816010BC7047042902BFC36010BC704700
:1018F000082908BFC0F80CC010BC7047402902BFBF
:10190000C0F810C010BC7047B1F5807F1FD010BC6C
:1019100070470024B1F5004F08D00BDCB1F5806FA3
:1019200015D0B1F5006F1CBF10BC704784614260D8
:1019300010BC7047B1F5803F02BF436010BC7047D8
:10194000B1F5003F08BFC0F804C010BC704742604A
:1019500010BC70470101010030B4817A354B01227F
:1019600002FA01F11A6842F001021A60DFF8C8C0F9
:10197000DCF800208A43CCF80020047B2F4AD4B93D
:1019800014688C4314604488C58844EA0544857A09
:10199000ED0005F1804505F5C045C5F840460488D1
:1019A000858844EA0544857AED0005F1804505F512
:1019B000C045C5F84446047B012C18D114680C437B
:1019C0001460847A0268E40004F1804404F5C044A1
:1019D0004FEA3242C4F84026847A4268E40004F1B7
:1019E000804404F5C0444FEA3242C4F84426C47A25
:1019F000134A002C14680CBF8C430C4314600489F8
:101A0000104A14B914688C4314600489012C02D163
:101A100014680C431460407B012804D1DCF80000FA
:101A20000843CCF80000186820F00100186030BCB2
:101A300070470000006600401C6600400C660040D5
:101A400004660040146600400246002053690B42C1
:101A500008BF7047B1F5807F64D01CDC082949D0ED
:101A60000CDC012938D002293ED0042918BF704768
:101A7000D168002011F0080F34D1704710293FD0F1
:101A8000202943D0402918BF70471169002011F068
:101A9000100F27D17047B1F5004F55D00FDCB1F5CD
:101AA000007F45D0B1F5806F48D0B1F5006F18BF09
:101AB00070479169002011F0700F13D17047B1F594
:101AC000803F29D0B1F5003F18BF70475168002012
:101AD00011F0100F06D1704791681E4A0020114284
:101AE00008BF704701207047D168002011F0030F34
:101AF000F8D17047D168002011F0100FF2D1704773
:101B00001169002011F0030FECD17047116900201A
:101B100011F0080FE6D170475168002011F0080F4E
:101B2000E0D170479169002011F0010FDAD17047C0
:101B30009169002011F0020FD4D170479169002003
:101B400011F0040FCED170475168002011F0040F3E
:101B5000C8D1704701010100002A426914BF114336
:101B600022EA0101416170470268002322F002026B
:101B70000260026842F0010202604FF6FF7200BF8D
:101B8000D0F804C01CF0010F03D1934218BF5B1CB6
:101B9000F6D1436813F0010F5DD08B79012B0368F8
:101BA0000CBF43F0800323F080030360CB79012B4B
:101BB00003680CBF43F0400323F0400303600B7A3B
:101BC000012B03680CBF43F0200323F020030360C4
:101BD0004B7A012B03680CBF43F0100323F0100372
:101BE00003608B7A012B03680CBF43F0080323F0DA
:101BF00008030360CB7A012B03680CBF43F0040396
:101C000023F0040303608B7891F803C04FEA8373D9
:101C100043EA0C6391F804C043EA0C4391F805C011
:101C2000098843EA0C53A1F1010143EA0101C161B2
:101C3000016821F0010101604FF00001436813F0D9
:101C4000010F1CBF9142491CF8D1406810F0010FF0
:101C500004BF012070474FF00000704700EB0113F4
:101C6000D3F8B0C11CF0040C82F808C0D3F8B0C19E
:101C700007BF4FEA5C5CC2F800C04FEADC0CC2F858
:101C800004C0D3F8B0C10CF0020C82F809C0D3F83C
:101C9000B4C10CF00F0C82F80AC0D3F8B4C14FEAFB
:101CA0001C2C82F813C0D3F8B8C182F80BC0D3F84B
:101CB000B8C14FEA1C2C82F80CC0D3F8B8C14FEA67
:101CC0001C4C82F80DC0D3F8B8C14FEA1C6C82F8E6
:101CD0000EC0D3F8BCC182F80FC0D3F8BCC14FEA24
:101CE0001C2C82F810C0D3F8BCC14FEA1C4C82F8FF
:101CF00011C0D3F8BC311B0E937421B1016941F0BE
:101D0000200101617047C16841F02001C160704746
:101D100010B402460020936813F0806F3FD000BFDC
:101D200002EB0012D2F8803103F00103C2F88031D7
:101D30000B7A002B42D0D2F880C14C684CEA0303E6
:101D400091F809C04CEAC40C43EA0C03C2F8803194
:101D50008B7A03F00F038B72D2F8843123F00F03D8
:101D6000C2F88431D2F8843191F80AC043EA0C03F6
:101D7000C2F88431CB7AD1F80CC043EA0C23C2F804
:101D80008831CB7B096943EA0121C2F88C11D2F872
:101D9000801141F00101C2F8801110BC70479068B9
:101DA00010F0006F18BF0120BAD1906810F0805F6A
:101DB00014BF02200420B3D110BC7047D2F8803188
:101DC00091F809C043EA0C03B1F800C043EA4C5350
:101DD000BCE700001A4A002904BF8068194907D0EF
:101DE000012904BF8068184902D0022902D022E0EC
:101DF000084002E0806815490840A0F10061A1F5A3
:101E00008071904215D008DCA8B16FF08061401855
:101E100008BF7047022810D00BE0B1F5007F0CD04E
:101E2000A1F10060B0F57F4008BF7047B0F5003FFA
:101E300003D0002070470220704701207047000047
:101E40000001000803000004000300080000031064
:101E50000A4611F0800F01F07F0310B503EB8301F8
:101E600000EBC10114BF01F58E7101F55D710B70BE
:101E7000D2094A7003F08AF9002010BD10B50A4655
:101E800011F0800F01F07F0314BF03EB830102EB1D
:101E9000820100EBC10114BF01F58E7101F55D7186
:101EA0004FF0000C81F802C00B70D2094A7003F0A9
:101EB00056F9002010BD70B58C4611F0800F01F06E
:101EC0007F0404EB840100EBC10114BF01F58E71A6
:101ED00001F55D710C705FEADC1C81F801C08A605D
:101EE000CB7018BFCC80022B04BF00220A7103F014
:101EF00007F9002070BD01F07F0C0CEB8C0110B5D0
:101F000000EBC101C1F88833C1F880230023C1F878
:101F10008C3381F8753381F874C3C37801F55D7132
:101F2000012B08BF0A611CF0FF0F03D003F068F912
:101F3000002010BD03F06FF8FAE70069002261F39A
:101F40000A12016811430160704710B50A4611F08A
:101F5000800F01F07F0314BF03EB830102EB8201CA
:101F600000EBC10114BF01F58E7101F55D714FF0F9
:101F7000010C81F802C00B70D2094A7003F026F9F7
:101F8000002010BD11F07F0C10B50CEB8C0100EBA4
:101F9000C1014FF0010481F81D4181F81CC1C1F855
:101FA0002821C1F82C2101F58E714FF00002C1E902
:101FB000053203D003F024F9002010BD03F02BF804
:101FC000FAE710B5044603F047FA4FF0010C84F825
:101FD00012C1002184F81411627840230846002AB7
:101FE00013D900EB800204EBC20282F81DC182F813
:101FF0001C01A2F8220182F81F11C2E94931C2F87E
:1020000030116278401C8242EBD8002012F0FF0FA2
:1020100013D000EB800204EBC20282F8751382F841
:102020007403A2F87A0382F87713C2E9DF31C2F8A9
:1020300088136278401C8242EBD8204602F0C4FF2D
:10204000204602F049FE0021204603F095FA204682
:1020500002F0D0FE2046BDE8104003F085B970477D
:1020600010B5012000F0C2F8002808BF10BD012003
:1020700000F0B0F8BDE81040012000F0B1B8000059
:1020800010B50A2004F0E4F91748D0F8300228BB54
:1020900016480068012804D002280CD0032814D068
:1020A0001CE01348F5EE000A90ED000A30EE200A1D
:1020B00080ED000A12E00F48F6EE000A90ED000AEB
:1020C00030EE200A80ED000A08E00B48DFED0B0A35
:1020D00090ED000A30EE200A80ED000ABDE81040C5
:1020E0004FF4805000F07CB8008041420400002092
:1020F00010000020140000200C000020CDCC4C3D2E
:1021000010B5022000F072F8002808BF10BD0220B0
:1021100000F060F8BDE81040022000F061B810B592
:10212000042000F063F8002808BF10BD042000F070
:1021300051F8BDE81040042000F052B810B5082056
:1021400000F054F8002808BF10BD082000F042F845
:10215000BDE81040082000F043B810B5102000F092
:1021600045F8002808BF10BD102000F033F8BDE886
:102170001040102000F034B810B50A2004F068F9BF
:102180001048D0F8240238B90F480168491C016092
:102190000429C4BF002101600C48D0F8200238B9DE
:1021A0000B480168491C0160042904BF012101603A
:1021B0004FF4807000F014F8BDE810404FF4007048
:1021C00000F00EB80000414208000020000040422C
:1021D000040000200149086070470000143C0140E1
:1021E0000149086070470000143C0140034A014661
:1021F000002012680A4218BF01207047143C0140B9
:1022000001490860704700000C3C02400449002866
:10221000086814BF40F4806020F480600860704754
:10222000003C02400248016841F48051016070475F
:10223000003C024030B50546002451B1012908BFD9
:102240004FF4807405D002290CBF4FF400744FF492
:10225000407400F061F8092818BF30BD0F4B1868B2
:1022600020F440701860186820431860186820F047
:10227000F8001860186845F00201084318601868F3
:1022800040F48030186000F047F8196821F002012E
:102290001960196821F0F801196030BD103C024046
:1022A0000248016841F0004101607047103C024063
:1022B00030B50C46054600F02FF8092818BF30BD90
:1022C0000A4B186820F440701860186840F40070D9
:1022D0001860186840F0010018602C6000F01CF8CD
:1022E000196821F00101196030BD0000103C024066
:1022F0000548006810F0004F08BF704703490448C4
:102300000160044901607047103C024023016745A9
:10231000043C0240AB89EFCD81B009208DF800006C
:1023200001462648026812F4803F18BF012116D1E9
:10233000026812F0100F18BF062110D1026812F4C3
:10234000807F18BF02210AD1026812F0EF0F18BF78
:10235000072104D1026812F0020F18BF08218DF87E
:1023600000109DF80010012923D10268092112F400
:10237000803F18BF012116D1026812F0100F18BF5C
:10238000062110D1026812F4807F18BF02210AD101
:10239000026812F0EF0F18BF072104D1026812F093
:1023A000020F18BF08218DF800109DF800100129B8
:1023B000DBD09DF8000001B0704700000C3C0240EB
:1023C0002DE9F001002201255FF00306D1F800C0DD
:1023D00005FA02F30CEA030C9C4537D107684FEA73
:1023E000420C06FA0CF4A74307600F79D0F800807E
:1023F00007FA0CF747EA080707600F79012F18BFA3
:10240000022F17D1876827EA040787604F79D0F831
:10241000088007FA0CF747EA08078760476827EA49
:102420000303436043688F7907FA02F7BFB243EAB8
:1024300007034360C36823EA0403C360CB7903FA4C
:102440000CF3D0F80CC043EA0C03C36002F10102A4
:10245000102ABBD3BDE8F00170474B07DB0E9A4052
:10246000C90800EB8100016A4FF00F0C0CFA03F36E
:1024700099430162016A11430162704743680A4649
:10248000B3F5807F08BF082144D020DC102B08BFA3
:1024900004213FD00FDC012B08BF00213AD0022BD2
:1024A00008BF012136D0042B08BF022132D0082BEF
:1024B00008BF03212EE0202B08BF05212AD0402B86
:1024C00008BF062126D0802B08BF072122E0B3F5E4
:1024D000805F08BF0C211DD00EDCB3F5007F08BF64
:1024E000092117D0B3F5806F08BF0A2112D0B3F5C8
:1024F000006F08BF0B210DE0B3F5005F08BF0D2191
:1025000008D0B3F5804F08BF0E2103D0B3F5004FBC
:1025100008BF0F210068FFF7A0BF41837047018308
:10252000704700000348006810F0010F00D000BEA3
:10253000FEE70000F0ED00E02DE9F047274D0F46E3
:1025400004461E4690464FF02A0908212846FFF708
:10255000E4FF484600F056FB08212846FFF7DFFF5E
:10256000601C84B2200A00F04DFBE0B200F04AFB90
:1025700008F1010084B2200A00F044FBE0B200F050
:1025800041FB2B2408212846FFF7C7FF204600F017
:1025900039FB08212846FFF7C2FF07F11A0084B271
:1025A000200A00F02FFBE0B200F02CFB06F11A002D
:1025B00084B2200A00F026FBE0B200F023FB2C24BA
:1025C00008212846FFF7A9FF204600F01BFB2846FC
:1025D000BDE8F0470821FFF7A2BF0000001002404D
:1025E00070B54FF00111FA48FEF718FE4FF00111D7
:1025F000F848FEF713FE4FF00111F748FEF70EFE04
:102600004FF00111F548FEF709FE4FF00111F448B3
:10261000FEF704FEF34D7C212846FFF780FF2021C2
:102620002846FFF77AFF642003F012FF2021284696
:10263000FFF775FF642003F00BFF112408212846E3
:10264000FFF76BFF204600F0DDFA08212846FFF770
:1026500066FF782003F0FCFEB12408212846FFF72E
:102660005CFF204600F0CEFA08212846FFF757FF0E
:10267000052000F0C7FA3C2000F0C4FA3C2000F02E
:10268000C1FAB22408212846FFF747FF204600F090
:10269000B9FA08212846FFF742FF052000F0B2FAF8
:1026A0003C2000F0AFFA3C2000F0ACFAB324082143
:1026B0002846FFF732FF204600F0A4FA08212846FA
:1026C000FFF72DFF052000F09DFA3C2000F09AFA5C
:1026D0003C2000F097FA052000F094FA3C2000F02E
:1026E00091FA3C2000F08EFAB42408212846FFF726
:1026F00014FF204600F086FA08212846FFF70FFF56
:10270000032000F07FFAC02408212846FFF705FFC8
:10271000204600F077FA08212846FFF700FFAB209B
:1027200000F070FA0B2000F06DFA042000F06AFA55
:10273000C12408212846FFF7F0FE204600F062FA87
:1027400008212846FFF7EBFEC52000F05BFAC22403
:1027500008212846FFF7E1FE204600F053FA082141
:102760002846FFF7DCFE0D2000F04CFA002000F0B8
:1027700049FAC32408212846FFF7CFFE204600F07F
:1027800041FA08212846FFF7CAFE8D2000F03AFAE8
:102790006A2000F037FAC42408212846FFF7BDFE5E
:1027A000204600F02FFA08212846FFF7B8FE8D20BA
:1027B00000F028FAEE2000F025FAC524082128466A
:1027C000FFF7ABFE204600F01DFA08212846FFF770
:1027D000A6FE0F2000F016FAE02408212846FFF795
:1027E0009CFE204600F00EFA08212846FFF797FECF
:1027F000072000F007FA0E2000F004FA082000F08D
:1028000001FA072000F0FEF9102000F0FBF9072084
:1028100000F0F8F9022000F0F5F9072000F0F2F9D5
:10282000092000F0EFF90F2000F0ECF9252000F06E
:10283000E9F9362000F0E6F9002000F0E3F908207D
:1028400000F0E0F9042000F0DDF9102000F0DAF9E2
:10285000E12408212846FFF760FE204600F0D2F967
:1028600008212846FFF75BFE0A2000F0CBF90D2077
:1028700000F0C8F9082000F0C5F9072000F0C2F9FF
:102880000F2000F0BFF9072000F0BCF9022000F093
:10289000B9F9072000F0B6F9092000F0B3F90F20CC
:1028A00000F0B0F9252000F0ADF9352000F0AAF9CC
:1028B000002000F0A7F9092000F0A4F9042000F09E
:1028C000A1F9102000F09EF9FC2408212846FFF70A
:1028D00024FE204600F096F908212846FFF71FFE47
:1028E000802000F08FF93A2408212846FFF715FED2
:1028F000204600F087F908212846FFF710FE052042
:1029000000F080F9362408212846FFF706FE20460D
:1029100000F078F908212846FFF701FE782000F042
:1029200071F9212408212846FFF7F7FD204600F021
:1029300069F908212846FFF7F2FD292408212846D5
:10294000FFF7EBFD204600F05DF908212846FFF770
:10295000E6FD2A2408212846FFF7DFFD204600F087
:1029600051F908212846FFF7DAFD002000F04AF966
:102970001A2000F047F9002000F044F9692000F027
:1029800041F92B2408212846FFF7C7FD204600F017
:1029900039F908212846FFF7C2FD002000F032F97E
:1029A000012000F02FF9002000F02CF9A02000F009
:1029B00029F92C2408212846FFF7AFFD204600F016
:1029C00021F92846BDE870400821FFF7A8BD0000A6
:1029D0006CC3000874C300087CC3000884C30008EB
:1029E0008CC30008001002402DE9FF4F87B0044659
:1029F00082461598DDF858B04FEA50084FF00009AC
:102A000018F0070018BF012000EBD80115984843C3
:102A10000090A2F12000C5B2159908980844401E04
:102A200083B204EB0800401E82B220460899FFF7EB
:102A300083FD0098002600289CBF0BB0BDE8F08FF6
:102A4000334905EB450001EB80010591314901EB6C
:102A500005110491304901EB001003902F4800EB61
:102A60008510029015980C2808BF05980DD01028E5
:102A700008BF049809D0182808BF039805D020285B
:102A80000EBF02980BB0BDE8F08F875D5FF00005C8
:102A9000BBF1000F4FF0010000FA05F000EA07005B
:102AA00017D050B10A9A0899019220460B46224647
:102AB000FFF742FD019800F09BF8601C84B2A4EB84
:102AC0000A00404518D108985446401C80B208902E
:102AD00016E0002814BF0A98149800F089F809F14C
:102AE000010000F0FF09B9FBF8F008FB1090002886
:102AF00008BF4FF0000903D0681CC5B2082DC7D32A
:102B0000701C86B200988642ACD30BB0BDE8F08F43
:102B1000308A0008A48E00089494000864A6000877
:102B20002DE9FF4F80462DED020B83B0DFED2E0A1D
:102B3000DDE9129620EE200A15004FEA56074FF005
:102B40000004BCEEC00A10EE100A1FFA80FA04BF9F
:102B500009B0BDE8F08F0A22281B401EC1B2012037
:102B60000B1EA1F101010ADD11F0010F08BF0A20BF
:102B7000491C491003D050435043491EFBD1BAFBB6
:102B8000F0F01A49A1FB0021C908494201EB81017B
:102B900000EB410BA81E844210D10021CDF800901B
:102BA000CDE9016100FB078080B22E22089B0699C7
:102BB000FFF71AFF601CC4B2681CC5B20020CDF834
:102BC0000090CDE901600BF13000C2B204FB078038
:102BD00080B2089B0699FFF707FF601CC4B2AC42A5
:102BE000B9D309B0BDE8F08F0000C842CDCCCCCC41
:102BF00010B50446000A00F005F8E0B2BDE8104048
:102C0000AFF3008070B5134E054610213046FFF734
:102C100084FC002404213046FFF77FFC15F0800F70
:102C20004FF04001304602D0FFF779FC01E0FFF79A
:102C300074FC04213046FFF772FC6806050E601C28
:102C4000C4B2082CE6D33046BDE870401021FFF72F
:102C500066BC00000010024010B582B008490A208E
:102C6000CDE9000100234FF4807206A1064805F06B
:102C7000A1FB044603F04CFDC46102B010BD00008E
:102C8000960200204C434400E9680008FEE700007B
:102C90002DE9F04184B010260024DFF8A883CDE9A7
:102CA0000046D8F800001F2300EE100A042202217B
:102CB0006E20FFF735FFCDE90046D8F818004BF637
:102CC000404300EE100A04220F216E20FFF728FF78
:102CD000DD4F0C25B87801281BD003280DD005281E
:102CE00022D1DAA00095CDE9014000234FF61F0262
:102CF0000F211E2000F0DAFB16E0D7A00095CDE9E9
:102D0000014000234FF61F020F211E2000F0CEFBD2
:102D10000AE0D4A00095CDE9014000234FF61F0240
:102D20000F211E2000F0C2FBCDE9004578684BF66C
:102D3000404300EE100A052228217320FFF7F0FE21
:102D4000CDE90045F8684BF6404300EE100A052235
:102D500035217320FFF7E4FE786900EE100AB5EE26
:102D6000C00AF1EE10FA00EE100A14DD4BF64043F3
:102D700005221B217320CDE90045FFF7D1FEBCA041
:102D80000096CDE9014000234BF640421E2166200B
:102D900000F08CFB15E0B1EE400A4BF640430522F3
:102DA0001B217320CDE90045FFF7BAFEB1A00096C4
:102DB000CDE9014000234BF640421E21662000F081
:102DC00075FB786800EE100AB5EEC00AF1EE10FA55
:102DD00000EE100A14DD4BF6404305222821732033
:102DE000CDE90045FFF79CFEA1A00096CDE901408A
:102DF00000234BF640422921662000F057FB15E0E6
:102E0000B1EE400A4BF64043052228217320CDE95C
:102E10000045FFF785FE97A00096CDE9014000230D
:102E20004BF640422921662000F040FBF86800EE96
:102E3000100AB5EEC00AF1EE10FA00EE100A14DD29
:102E40004BF64043052235217320CDE90045FFF7BD
:102E500067FE87A00096CDE9014000234BF6404273
:102E60003421662000F022FB15E0B1EE400A4BF65B
:102E70004043052235217320CDE90045FFF750FE80
:102E80007CA00096CDE9014000234BF6404234215E
:102E9000662000F00BFBD8F8280000EE100AB5EE13
:102EA000C00AF1EE10FA00EE100A14DD4BF64043B2
:102EB00005221B212A20CDE90045FFF731FE6CA039
:102EC0000096CDE9014000234BF640421E211B2015
:102ED00000F0ECFA15E0B1EE400A4BF64043052253
:102EE0001B212A20CDE90045FFF71AFE61A00096BC
:102EF000CDE9014000234BF640421E211B2000F08B
:102F0000D5FAD8F8200000EE100AB5EEC00AF1EEAE
:102F100010FA00EE100A14DD4BF64043052228217A
:102F20002A20CDE90045FFF7FBFD51A00096CDE931
:102F3000014000234BF6404229211B2000F0B6FA45
:102F400015E0B1EE400A4BF64043052228212A2025
:102F5000CDE90045FFF7E4FD46A00096CDE901402C
:102F600000234BF6404229211B2000F09FFAD8F89D
:102F7000300000EE100AB5EEC00AF1EE10FA00EED5
:102F8000100A14DD4BF64043052235212A20CDE9F5
:102F90000045FFF7C5FD36A00096CDE901400023AE
:102FA0004BF6404234211B2000F080FA15E0B1EED0
:102FB000400A4BF64043052235212A20CDE9004541
:102FC000FFF7AEFD2BA00096CDE9014000234BF6A4
:102FD000404234211B2000F069FA38781B2814D0B5
:102FE000632820D06D281CBF04B0BDE8F08122A06A
:102FF0000095CDE9014000234FF4FC6202211E2020
:1030000000F054FA04B0BDE8F0811DA00095CDE9B0
:10301000014000234FF4FC6202211E2000F046FA1A
:1030200004B0BDE8F08118A00095CDE9014000236F
:103030004FF4FC6202211E2000F038FA04B0BDE813
:10304000F0810000E9020020A002002054726170AB
:103050005F506F730000000052616D705F56656CC9
:103060000000000052616D705F4375720000000047
:103070002B0000002D000000456E61626C650000B1
:1030800052656C617800000043616C6900000000CB
:103090007047000010B4C27801780F244FF0010C83
:1030A0000AB3174A126801F1E02102F4E062C2F5A6
:1030B000E062C2F30722C2F10403D44042789A408E
:1030C000837823401A43120181F80024007800F02D
:1030D0001F010CFA01F14009800000F1E020C0F866
:1030E000001110BC704701F01F000CFA00F04909F4
:1030F000890001F1E021C1F8800110BC7047000097
:103100000CED00E0034940F0FD7040F08060086085
:10311000704700000CED00E0014800F0CDBE00005B
:10312000D80C002010B582B008480321CDE900106A
:1031300000234FF4007206A1074805F03BF904464E
:1031400003F0E6FA046202B010BD0000D2020020D3
:103150004F44524956450000DD6900082DE9F0470B
:103160008A4607461D469146002614210820DDF8B0
:10317000208002F03FFF09EB4A110160002101723B
:10318000417204468572002D4FD005F0070208F108
:1031900001000B46B2F1010C0AD400BF04EB010997
:1031A00010F8018B491C5B1C89F80B806345F5DD29
:1031B000AA423ADA04EB010C10F8013B8CF80B3010
:1031C000491C04EB010C10F8013B8CF80B30491C36
:1031D00004EB010C10F8013B8CF80B30491C04EB9C
:1031E000010C10F8013B8CF80B30491C04EB010C6E
:1031F00010F8013B8CF80B30491C04EB010C10F863
:10320000013B8CF80B30491C04EB010C10F8013B1E
:103210008CF80B30491C04EB010C10F8013B491CE5
:1032200008328CF80B30AA42C4DB21463846FEF740
:103230006FFD804601463846FEF7CCFD002808BFEA
:1032400040F6FF7509D1701C86B2AE4205D24146E8
:103250003846FEF7BFFD0028F5D02046BDE8F04710
:103260001422082102F0E0BE2DE9F0410E46074687
:10327000904600241421082002F0BCFE054608EB0D
:1032800046102860122068600020287202206872B0
:1032900029463846FEF73CFD804601463846FEF793
:1032A00099FD002808BF40F6FF7609D1601C84B262
:1032B000B44205D241463846FEF78CFD0028F5D0D1
:1032C0002846BDE8F0411422082102F0ADBE0000FE
:1032D000044A0029116814BF084321EA0000106065
:1032E0007047000030380240044A0029116814BFBA
:1032F000084321EA000010607047000034380240A3
:10330000044A0029116814BF084321EA0000106034
:103310007047000040380240044A0029116814BF79
:10332000084321EA00001060704700004438024062
:10333000254A30B41168254B11F00C0106D05C1001
:10334000042908BF046002D008291ED00360116858
:103350000F2303EA11111E4B595CD0F800C02CFA60
:1033600001F14160D2F800C0072404EA9C2C13F854
:103370000CC021FA0CFCC0F808C0126804EA5232F2
:103380009A5CD140C16030BC70471249D1F800C08E
:10339000CCF38055D1F800C0002D0CF03F0C14BFC9
:1033A000B4FBFCF3B3FBFCF3D1F800C00968CCF329
:1033B000881C03FB0CF3C1F30141491C4900B3FB1A
:1033C000F1F10160C3E70000083802400024F40076
:1033D00048010020043802407047704770470000E1
:1033E00070B5264D24496A688854501C6860B0F551
:1033F000C87F05DA084410F8010C0A2818BF70BD10
:1034000002221FA11C48FCF771FF1F4C58B904F1A0
:103410000C021EA11848FCF779FF94ED030AB1EEE7
:10342000400A84ED040A02221AA11348FCF75EFF49
:10343000022219A11048FCF759FF022217A10E48D9
:10344000FCF754FF28B99FED160A84ED040A84EDB9
:10345000030A022213A10848FCF748FF022212A126
:103460000548FCF743FF4FF4C8710348FCF733FFEE
:103470000020686070BD0000CC1200203C010020DC
:10348000563D0A2000000000A0020020563D25669F
:103490000A000000410A2000530A2000440A2000CC
:1034A00000000000510A2000520A20002DE9F047D8
:1034B000C4B09146DDE94C688A4605461F464FAACE
:1034C00004A84E9902F0CEF89DF8100004AC002834
:1034D00004BF44B0BDE8F087CDF80880CDE90076A0
:1034E00022784B4651462846FFF77EFA05EB5600F8
:1034F00085B214F8010F0028EED144B0BDE8F08782
:1035000010B5012080F31188BFF34F8FBFF36F8F89
:1035100005F02AF818B104494FF0805008600020E7
:1035200080F3118810BD000004ED00E0374882B040
:10353000016841F4700101603548016841F0010102
:103540000160344900230B60026822F4102222F04B
:103550008072026000F1040C2F4ACCF8002002684F
:1035600022F4802202600A1D136001930093026816
:1035700042F480320260026802F400320092019A42
:10358000521C0192009A1AB9019AB2F5A04FF2D1D9
:10359000026812F4003F08BF009331D0012200926C
:1035A0001E4A136843F0805313601D4A136843F4A6
:1035B000404313600A680A600A6842F400420A60E5
:1035C0000A6842F4A0520A60164ACCF80020026849
:1035D00042F080720260026812F0007FFBD0124A53
:1035E00040F205601060086820F003000860086879
:1035F00040F002000860086800F00C000828FAD1CA
:103600000A494FF00060086002B0704788ED00E0A2
:103610000038024008380240103000244038024090
:1036200000700040085A4007003C024008ED00E0EE
:103630007047704710B5094C0121204600F0AFF8E3
:10364000002808BF10BD0121204600F09CF820464C
:10365000BDE81040012100F093B8000000000140D7
:1036600010B50121880700F09AF8002808BF10BDA6
:103670000121880700F087F80121BDE81040880784
:1036800000F07EB810B5094C0121204600F087F803
:10369000002808BF10BD0121204600F074F8204624
:1036A000BDE81040012100F06BB8000000040040AC
:1036B00010B5094C0121204600F071F8002808BF20
:1036C00010BD0121204600F05EF82046BDE8104004
:1036D000012100F055B800000008004010B50A4C68
:1036E0000121204600F05BF8002808BF10BD012131
:1036F000204600F048F80121204600F041F8034838
:103700004168491C416010BD000C00403C02002093
:1037100010B50A4C0121204600F041F8002808BFEE
:1037200010BD0121204600F02EF80121204600F0B6
:1037300027F803480168491C016010BD00100040D3
:103740001800002010B5094C0121204600F027F890
:10375000002808BF10BD0121204600F014F82046C3
:10376000BDE81040012100F00BB80000001400403B
:103770000421014800F013B800140040704770475E
:10378000C94301827047C9430182704700290188FB
:1037900014BF41F0010121F0010101807047038A4B
:1037A000002280890B4200EA01001CBF0028012290
:1037B00010467047002A828914BF114322EA010192
:1037C000818170470146B0F1804F04BF1C207047D3
:1037D000A1F18042B2F5806204BF1D207047A1F1C3
:1037E0008042B2F5006204BF1E207047A1F1804202
:1037F000B2F5406204BF32207047A1F18042B2F5B9
:10380000805204BF36207047A1F18042B2F5A05229
:1038100004BF37207047A1F18042B2F5A03204BF47
:1038200018207047A1F18042B2F5A23226D0A1F152
:103830008042B2F5A43204BF1A207047A1F1804241
:10384000B2F5C05204BF2B207047A1F18042B2F5FF
:10385000E05211D0A1F18042B2F5005204BF2D20F8
:103860007047A1F18042B2F5803207D0A0F18042CA
:10387000B2F5823218BF70472C207047192070476C
:1038800010B402881C4BDFF874C0984218BF604522
:1038900011D0B0F1804F1CBFA0F18044B4F580641A
:1038A00009D0A0F18044B4F500641CBFA0F18044AD
:1038B000B4F5406403D14C8822F070022243A0F199
:1038C0008044B4F580541CBFA0F18044B4F5A054EA
:1038D00003D00C8922F44072224302804A68C262FB
:1038E0000A880285984212BF6045897A01864FF0A6
:1038F0000101818210BC70470000014000040140BA
:1039000010B5094C40F22551204600F0CAF840B1EC
:10391000204600F061F9012240F22551204600F0D6
:10392000E6F8002010BD0000004C004010B5094C26
:1039300040F22551204600F0B4F840B1204600F096
:103940004BF9012240F22551204600F0D0F800202A
:1039500010BD00000050004070B51B4D40F22551D5
:10396000284600F09EF860B3284600F035F9C4B24E
:103970002046FFF735FD15494A8812F4004F1AD149
:1039800012F4804F4FF0000004D00A2C08BF42F41C
:1039900000400FE00D2C08BF42F480400AD0C2F373
:1039A0000D03DFF82CC0521C92B20CF803404A8081
:1039B000C72A00D94880012240F22551284600F04C
:1039C00096F8002070BD0000001001403C0100206E
:1039D0008C14002070B5194D40F22771284600F074
:1039E00060F8C0B1174C16492078095C401C207063
:1039F000284600F0F5F840F22771284600F03AF822
:103A000020786178884211D1002240F2277128463F
:103A100000F06DF80AE040F22551284600F041F828
:103A200020B140F22551284600F024F82846BDE890
:103A300070404FF4587100F01DB800000044004081
:103A4000541500203C01002010B5094C40F22551CE
:103A5000204600F026F840B1204600F0BDF80122D3
:103A600040F22551204600F042F8002010BD000031
:103A700000480040090A012202FA01F1C94301800D
:103A800070470029818914BF41F4005121F400518D
:103A9000818170470246002012880A4218BF012027
:103AA000704710B401F01F0201240023C1F3421C2F
:103AB00004FA02F2BCF1010F04BFB0F80CC00CEA2A
:103AC000020208D0BCF1020F0CBFB0F810C0B0F871
:103AD00014C00CEA0202090A008804FA01F1084045
:103AE000002A1CBF00280123184610BC7047C1F3F0
:103AF000421301F01F014FF0010C0CFA01F1012BF0
:103B000008BF0C3003D0022B0CBF10301430002A39
:103B1000026814BF114322EA0101016070470000EE
:103B200030B50446008A85B00D46C98820F440505F
:103B300008432082A089A9882A8920F403701143B0
:103B40006A8920F4A05010430843A081A08AA98963
:103B500020F440700843A0826846FFF7E9FBA4F117
:103B60008040B0F588301BBFA4F18040B0F58A30AA
:103B700003980298A18911F4004F00EBC00101EBFA
:103B80000010296814BF49008900B0FBF1F0114A08
:103B90006FF0180CA2FB0031490909010B0903FB66
:103BA0000CF300EB8300A38913F4004F4FF03203B2
:103BB00014BF03EBC00003EB0010A2FB00204FEA90
:103BC000501014BF00F0070000F00F0008432081E0
:103BD00005B030BD1F85EB518088C0F308007047E9
:103BE000C1F308018180704710B5D0F8E425526810
:103BF0009047002010BD10B5134600240A46214608
:103C0000FEF779F9204610BD10B5134600240A4688
:103C10002146FEF7B7F9204610BD10B504468021B5
:103C2000FEF793F900212046FEF78FF92046BDE804
:103C3000104001F051BA10B5C0F894230323C0F826
:103C4000902380F81131134600240A462146FEF7DE
:103C500052F9204610BD70B505460024052085F8B0
:103C600011012346224621462846FEF744F92846FC
:103C700001F032FA204670BD10B5C0F83C21022395
:103C8000C0F8382180F81131134600240A46214635
:103C9000FEF778F9204610BD70B5054600240420D3
:103CA00085F811012346224621462846FEF76AF987
:103CB000284601F011FA204670BD000070B5054697
:103CC00059B1D5F8E4054269002A56D095F8120199
:103CD000032804BF284690474FE095F811010026BD
:103CE00005F58E7402283ED1E169A068814215D99C
:103CF000081AE061E878012803D1D4E902100844E9
:103D0000E060A08BE16882B22846FFF77DFF0023C8
:103D10001A4619462846FEF7EEF824E0216AB1FB60
:103D2000F0F200FB12128AB981420FD3606A81421D
:103D30000CD2002211462846FFF766FF00231A46E0
:103D4000194628466662FEF7D6F80CE0D5F8E40579
:103D5000C16829B195F81201032804BF2846884795
:103D60002846FFF778FF95F81601012805D1044889
:103D700000682969486085F81661002070BD000060
:103D80000402002010B5044659B1D4F8E405826954
:103D9000002A31D094F81201032804BF204690472E
:103DA0002AE094F8110104F55D71032824D1CA6951
:103DB0008868824213D9101AC861E078012803D1BB
:103DC000D1E902201044C860CA698868824238BFBD
:103DD000104682B2C9682046FFF70DFF0CE0D4F808
:103DE000E405016929B194F81201032804BF2046B3
:103DF00088472046FFF750FF002010BD30B4002553
:103E0000002804BF30BC7047034604784FF0000C14
:103E100044B100BF13F8014F0CF1010C0CF0FF0C82
:103E2000002CF7D1022303EB4C0313804B556A1C83
:103E300003238B540378AA1C002B12BF002330BC31
:103E4000704700BF10F801CB01F802C0521CD2B27B
:103E50008B54521C90F800C0D2B2BCF1000FF1D1CB
:103E600030BC70472DE9F0411D4617468846044690
:103E7000069E00F0D7FEC4F8EC75C4F8E86541462C
:103E80002046C4F8E455FEF79CF8D4F8E80500682D
:103E900080472046BDE8F04100F0ACBE10B5D0F838
:103EA000E415096A8847002010BD10B5D0F8E41564
:103EB000496A8847002010BD2DE9F04F87B0814640
:103EC0004FF0000A01F08CFA002800F0E382484627
:103ED00001F08EFA0090002804BF07B0BDE8F08F13
:103EE00010F4002F58D00024484601F08CFA060048
:103EF00050D0DFF8FC844FF0080B022716F0010FBA
:103F000045D0E1B2484601F084FA054610F0010FB1
:103F100028D009EB84000125416D8D6099F80310CC
:103F200001290CD1406D006904EB840209EBC20148
:103F3000C0F31200D1F87C23101AC1F88C03D8F812
:103F40000000E1B202684846904799F80300012852
:103F500008BF002C06D199F81101052804BF484676
:103F600001F0BAF815F0020F04D009EB84003D46C9
:103F7000406D876015F0080F09D0D8F800008168FF
:103F80004846884709EB8400406DC0F808B0641CBF
:103F90007608B3D14AF0010A009810F4802F73D04C
:103FA000C8460024484601F028FA5FEA000B6CD0AE
:103FB0001BF0010F6AD0D8F81010E2B20B69486B01
:103FC000D04008EB820200F00100926943EAC01081
:103FD000926802EA000515F0010F1DD001254A6B19
:103FE00005FA04F022EA0000486308EB84008069C7
:103FF0008560FF48E1B2006842684046904798F803
:104000000300012808BF002C06D198F811010428EC
:1040100004BF404601F060F815F0080F04D008EB2B
:10402000840008258069856015F0100F04D008EB26
:10403000840010258069856015F0400F04D008EBDE
:10404000840040258069856015F0020F04D008EBDC
:10405000840002258069856015F0800F42D004EB52
:10406000840008EBC00000F58E75D5E90501401A03
:10407000A968884200F21E82C01C870808EB8400F1
:1040800001908069806924E033E030E02AE0461A3C
:10409000A868B042C0F01082F01C8708B3B2E2B248
:1040A0004046E96801F07EFAE8683044E860A869B3
:1040B0008119A9610198806980696A698A4208D179
:1040C0002A7801219140D8F81020536B23EA01018E
:1040D000516380B2B84284BFD5E90501884201D955
:1040E0000028D4D1641C5FEA5B0B7FF461AF4AF017
:1040F000010A009810F0020F03D0D9F80C1002202A
:104100004861009810F0004F1AD099F80A0028B1C1
:10411000D9F80C01016821F003010160D9F8100001
:10412000416821F001014160B14800688169484659
:104130008847D9F80C104FF0004048614AF0010A56
:10414000009810F4006F35D000208DF8040099F825
:1041500012018DF80400A648006841694846884766
:10416000D9F810008068D9F80C204FF40061516133
:1041700099F80A10002918BF10F0010F18D099F80B
:104180001501012804BF9DF80400032810D1D9F8B7
:104190000C01016841F001010160D9F80C010168CE
:1041A00041F0030101609348016841F0060101609C
:1041B0004AF0010A009810F0080F0AD08C480068F5
:1041C000C16848468847D9F80C10082048614AF071
:1041D000010A009810F0100F3ED0D9F80C00816948
:1041E00021F010018161D9F80C00056A05F00F007B
:1041F00000EB800109EBC10000F55D74C5F343409D
:10420000072821D2DFE800F020200420202015001C
:1042100047F6F070054217D0C5F30A121546484616
:10422000E16801F0FEF8E0682844E060A0692844F5
:1042300009E00822484609F2CC5101F0F2F8A069E1
:10424000C5F30A110844A061D9F80C00816941F056
:10425000100181614AF0010A009810F4805F4CD08F
:10426000D9F810004FF000044FF00105416821F02B
:10427000010141602146484601F07EF899F80100AD
:104280000021002888BFFF220BD900BF09EB810065
:1042900083699A60406D826099F80100491C8842E8
:1042A000F4D8D9F810004FF0FF3181612046D9F8D9
:1042B000101065F30F0065F31F40C861D9F81010A6
:1042C00044F00B004861D9F8101044F00B0008616D
:1042D000D9F81000016821F4FE610160484600F041
:1042E000FBFED9F80C104FF480504861404800683C
:1042F0000169484688474AF0010A009810F4005FB7
:1043000074D0484600F068FE02A8FFF711F8D9F80B
:104310000C00039DC16821F47054C460484601F04C
:104320004FF8032863D0012089F802004020A9F843
:10433000040031483149284488423CBF24F470507D
:1043400000F560507CD3A5F574002D49A0F5105000
:1043500088423CBF24F4705000F5505070D3294877
:104360002949284488423CBF24F4705000F540504D
:1043700066D3A5F18C702549A0F5434088423CBF27
:1043800024F4705000F530505AD321482149284474
:1043900088423CBF24F4705000F5205050D31E4892
:1043A0001E49284488423CBF24F4705000F5105048
:1043B00046D3A5F1B7701A49A0F5585088423CBFC2
:1043C00024F4705000F500503AD31648164928449A
:1043D00088423CBF24F4705000F5E05030D31348BD
:1043E00013492844884224F4705024E032E055E018
:1043F0000002002010ED00E0401E1BFF40420F00B5
:10440000E0C810002013FBFE20D61300006A18003D
:1044100000D3CEFE40771B00C05BB3FEC0912100ED
:1044200040AC2700C01D6AFE40E13300803C36FEF0
:10443000E09C410004E034BF00F5C05000F5A050FE
:10444000D9F80C10C860D9F80C104FF4005048612E
:104450004AF0010A009810F4801F0BD0174800683A
:10446000C16948468847D9F80C104FF4801048615C
:104470004AF0010A009810F4001F0BD00F480068A2
:10448000016A48468847D9F80C104FF4001048617B
:104490004AF0010A07B05046BDE8F08F002089F8C5
:1044A00002004FF4007124F47050A9F8041000F5D4
:1044B0001050C5E70846DFE50646EDE5000200209E
:1044C00090F8CC250A7090F8CD254A7090F8CE254A
:1044D00090F8CF3502EB03224A8090F8D02590F86F
:1044E000D13502EB03228A8090F8D22590F8D3359B
:1044F00002EB032292B2CA800121C0F8402180F869
:104500001111704710B50023044640221946FDF7EB
:10451000D2FC0023402280212046FDF7CCFC012064
:1045200084F81201D4F8E815A0784968884700207B
:1045300010BD10B50446D0F8E80500698047032097
:1045400084F81201002010BD10B5D0F8E415C96937
:10455000002918BF8847002010BD10B50446D0F8C8
:10456000E405026820469047D4F8E8058068804753
:10457000002010BD10B582B004466946FFF7A0FFC9
:104580009DF8001011F01F020BD0012A0ED0022A54
:1045900011D001F080012046FDF7D7FC02B00020C9
:1045A00010BD6946204600F00BF8F7E76946204643
:1045B00000F010FAF2E76946204600F071F9EDE7E5
:1045C000F8B50D46497800260A2980F0E480DFE836
:1045D00001F0F4EFE2EEE26A05E2D2890446E888EF
:1045E000ADF800006888010A04297AD2DFE801F0FA
:1045F00086020A16D4F8EC15A0780A686946904736
:10460000014642E0D4F8E415A0788A6A69469047EA
:10461000014602204870C4F8F01536E0C0B2062802
:104620006CD2DFE800F0030B131B232BD4F8EC153E
:10463000A0784A6869469047014626E0D4F8EC1510
:10464000A0788A686946904701461EE0D4F8EC15C8
:10465000A078CA6869469047014616E0D4F8EC1580
:10466000A0780A696946904701460EE0D4F8EC1537
:10467000A0784A6969469047014606E0D4F8EC15EF
:10468000A0788A69694690470146BDF80000002875
:104690001CBFEA88002A3CD0824288BF0246ADF89F
:1046A0000020204686E00446A888002804BFE88849
:1046B000002823D1A87800F07F0594F81201032880
:1046C0001CD084F8145129462046FDF736FC2046BC
:1046D000FFF7E2FA002D0CBF0120022084F812013E
:1046E00017E00BE0A9786A4D04460129297005D826
:1046F00094F8120102280ED003281DD080212046F4
:10470000FDF723FC00212046FDF71FFC204600F0AA
:10471000E3FC3046F8BD59B184F81011032084F849
:1047200012012046FFF719FF2046FFF7B5FAF0E720
:104730002046FFF7B1FAECE789B194F810018842FE
:10474000F6D001462046FFF74FFA297884F8101179
:104750002046FFF702FF2046FFF79EFAD9E7022026
:1047600084F8120184F810112046FFF73DFA204624
:10477000FFF792FACDE7E98801290CD190F81211E0
:10478000022904BF0122434914D0032904BF012296
:1047900000F588710ED004468021FDF7D6FB00217C
:1047A0002046FDF7D2FB204600F096FCB1E717E06B
:1047B00054E002E0FFF760FAABE790F8121102292B
:1047C00018BF0329E7D132494FF00102CA60D0F87F
:1047D0001821002A1CBF0322CA6002222E49E9E7E1
:1047E000044668882946012810D0022804BFA988F9
:1047F00011F0FF0F8DD1206940684FEA1121062981
:1048000020D2DFE801F01F1F0F13171B0120C4F88F
:104810001801D4F8E4058268204690472046FFF747
:104820003BFA76E720F0700020300EE020F07000B8
:1048300030300AE020F07000403006E020F07000D8
:10484000503002E020F07000103014490860012060
:1048500084F816012046FFF71FFA5AE7044690F83D
:1048600012012946022818BF03287FF447AF488861
:1048700001287FF44EAF0020C4F81801D4F8E405F5
:104880008268204690472046FFF706FA41E700007D
:104890000802002010020020140200200402002060
:1048A00070B50D46044628780026097900F06000AE
:1048B000202807D0687800284CD001282BD0032866
:1048C00008D058E0D4F8E40529468268204690478D
:1048D000304670BD94F81201022802D0032808D097
:1048E0003EE0002918BF802945D02046FDF72DFB6A
:1048F00041E0688828B900291EBF80292046FDF7BD
:1049000024FBD4F8E40529468268204690472046D7
:10491000FFF7C2F92FE094F81201022802D0032811
:1049200005D01DE0002918BF8029DED123E068886A
:1049300008BB002918BF802908D02046FDF79EFA41
:10494000D4F8E40529468268204690472046FFF7C0
:10495000A3F910E094F8120102280ED0032811D018
:1049600080212046FDF7F1FA00212046FDF7EDFAFF
:10497000204600F0B1FB304670BD002918BF8029E9
:10498000B3D1F8E7114811F0800F4FF000024FF05B
:10499000010309D001F07F0101EB810104EBC101AA
:1049A00091F81E1149B106E001EB810104EBC10150
:1049B00091F8761309B1436000E042604FF00202C3
:1049C00003492046FFF758F9D5E700000802002008
:1049D0000C02002070B5044690F8120100260D4626
:1049E00003280ED1287901280BD8D4F8E405826871
:1049F00020469047E888002804BF2046FFF74CF97E
:104A00000AE080212046FDF7A0FA00212046FDF7AC
:104A10009CFA204600F060FB304670BD10B590F85F
:104A2000121180F81311042180F81211D0F8E80552
:104A3000C0688047002010BD10B50A46024903A097
:104A4000FFF7DCF9004810BDD80B0020564350207A
:104A5000436F6E6669670000014900204870704727
:104A600028000020014903204870704728000020DA
:104A70001220088000487047F400002001490420FB
:104A8000487070472800002070470000014902204C
:104A90004870704728000020014901204870704785
:104AA000280000207047000010B50A46024903A004
:104AB000FFF7A4F9004810BDD80B00205643502042
:104AC000496E7465726661636500000004200880A9
:104AD000004870474400002010B50A46024903A070
:104AE000FFF78CF9004810BDD80B002053544D69D6
:104AF00063726F656C656374726F6E6963730000D7
:104B00000A4610B5044900280CBF04A00CA0FFF70A
:104B100075F9014810BD0000D80B002053544D33E7
:104B200032205669727475616C20436F6D506F72DC
:104B30007420696E204853206D6F6465000000008A
:104B400053544D3332205669727475616C20436F33
:104B50006D506F727420696E204653204D6F6465EE
:104B6000000000002DE9F0011A2008801A481C4AB4
:104B70001A49006812680968801829D0194F08235B
:104B8000BA1C0A24302537264FF0000CB4EB107FF6
:104B90008CBF05EB107806EB107882F8008082F865
:104BA00001C00001921C5B1E04BF07F11200042229
:104BB000ECD100BFB4EB117F8CBF05EB117306EB9A
:104BC0001173037080F801C00901801C521EF1D1DD
:104BD000BDE8F00103487047107AFF1F147AFF1FE9
:104BE000187AFF1F06010020432008800048704704
:104BF0008000002008B54FF4C060FEF783FA432020
:104C00008DF80000064881788DF80110C0788DF885
:104C1000020001208DF803006846FEF73BFA08BD4C
:104C20002800002010B5012182B00846FEF750FB95
:104C30004FF4C850009003208DF8050002208DF835
:104C4000040000208DF806000F4C8DF8070069461F
:104C50002046FDF7B5FB0A2208212046FDF7FDFBA3
:104C60000A220B212046FDF7F8FB0A220C212046E0
:104C7000FDF7F3FB01218803FEF74EFB01218020A5
:104C8000FEF732FB02B010BD000002404FF47A7113
:104C90004143C1EB0111DFF818C00020CB00624690
:104CA0000146E3FB0C214908401C8842FCD97047AF
:104CB00049922449C0EB0010DFF818C00021C3005E
:104CC00062460846E3FB0C204008491C8142FCD99F
:104CD00070470000499224492DE9F8430446017ABF
:104CE0004FF00008424DC0684746012937D0C168DF
:104CF00041F04001C160002600970320FFF7DAFF72
:104D0000E06800690090761CAE4218D8009810F058
:104D1000004FF2D00099002041F00101009100996C
:104D2000E2681161E1680A690092401CA84203D858
:104D3000009A12F0010FF6D10320FFF7BBFF617A52
:104D40004FF43410002918BF4FF47410E1688863E1
:104D50001420FFF79BFFE078012846D13DE0816BEE
:104D6000627A21F48031002A18BF41F480118163F6
:104D7000E168CA6822F0400222F49402CA60002668
:104D800000970320FFF796FFE06800690090761C0B
:104D9000AE4218D8009810F0004FF2D000990020D1
:104DA00041F0010100910099E2681161E1680A692E
:104DB0000092401CA84203D8009A12F0010FF6D1CD
:104DC0000320FFF777FFE07801280ED1E16807F1B3
:104DD0000A0040F020008860BDE7E168886820F0A4
:104DE0001E000A3040F0200088604046BDE8F8838D
:104DF000400D03002DE9F84304460026D4F80C21A9
:104E000035462946284616602269136823F4C053A4
:104E10001360E27A012A2DD123694FF0030C1A683E
:104E20006CF301021A60E268802353622022D4F8F6
:104E30000CC062F31F4163F30F01CCF8281001EBA3
:104E4000114161F30F00E16863F31F40C1F80401F1
:104E500000EB104161F30F00E16862F31F40C1F8FD
:104E6000080100EB104161F30F00E16865F31F409A
:104E7000C1F80C01102100200095009A42F0200298
:104E80000092009A61F38A1200920099E26811611F
:104E90004B4FE1680A690092401CB84203D8009A5F
:104EA00012F0200FF6D10320FFF704FF0020009539
:104EB000009941F0100100910099E2681161E168E8
:104EC0000A690092401CB84203D8009A12F0100FF1
:104ED000F6D10320FFF7EEFE2069056120694561E8
:104EE00020694FF0FF3787612069C5616178002034
:104EF0004FF090484FF0FF0C002912D904EB8002CC
:104F00009369196811F0004F14BF41462946196092
:104F100091690D619169C1F808C06178401C8142B6
:104F2000ECD8002011F0FF0F13D000BF04EB80027B
:104F3000536D196811F0004F14BF4146294619609E
:104F4000516D0D61516DC1F808C06178401C8142FE
:104F5000ECD82069016941F480710161E078012891
:104F60000CD103206FF38A0000F5807040F480308C
:104F700021696FF3594000F500000863E06885611E
:104F8000E1686FF080404861E1684F60E168486126
:104F9000E1680C488861E078002808BF102545F4D6
:104FA0008720E16840F4002040F008008A6940F45E
:104FB00040108243104388613046BDE8F88300000A
:104FC000400D030000080080C0680021826822F0C4
:104FD000010282600846704701690023D1F808C0C9
:104FE00082691168CCF3410CBCF1000F18BFBCF111
:104FF000010F06D0BCF1020F04BF6FF30A01C91CF8
:1050000001D06FF30A0111600069416841F48071B9
:1050100041601846704770B44A7800254B69012AF0
:1050200016D00A7800EB820CDCF854201468126960
:10503000002B0EBF0B7A8B684B6163F30602DCF822
:10504000543042F400221A61C278012A39D132E088
:10505000D0F818C0DCF80060DCF81020002B04BF8A
:1050600022F07F0242F4002209D08C68A34286BF5E
:105070004C6164F3060263F3060242F40022CCF8AA
:105080001020C278012A05D10B780A6900EB83034E
:105090009B695A6146F00442CCF80020C278BAB944
:1050A0004A69AAB109780069012202FA01F1426B4A
:1050B000114341630CE00B780A6900EB83035B6DDD
:1050C0005A61097844F0044200EB8100406D0260AF
:1050D000284670BC70470000426D08491161C178D4
:1050E000012918BF704700F2CC51426D5161406DEB
:1050F00001684FF0802101607047000018000860CF
:1051000070B40A7800244E78012500EB820C05FA71
:1051100002F22346012E07BFDCF818C062F30F032A
:10512000DCF854C062F31F43DCF8002012F4004F97
:105130000ED10D8965F30A02CD78897965F3934222
:1051400061F3995242F4004141F08051CCF80010D3
:105150000069C1691943C161204670BC70470246AD
:1051600091F801C00B78002002EB8302BCF1010F23
:105170000CBF9269526D1368C97823F40013032998
:1051800014BF022943F080531360704710B40246E5
:105190000B784C784FF0010C02EB830100200CFAE5
:1051A00003F3012C0CBFD1F818C0D1F854C001464C
:1051B0000CBF63F30F0163F31F41CCF800001269C9
:1051C000D36923EA0101D16110BC704702464B78D4
:1051D0000978002002EB8101012B05D0496D0A6896
:1051E00042F400120A6070478A69116811F0004F9A
:1051F00018BF41F0804141F4001111607047000078
:1052000070B44A780B784C694FF0000C00EB8306C1
:10521000012A19D0726D13681269002C7ED08D6836
:105220002C44641EB4FBF5F464F3DC42C2F3C944BD
:105230006C4364F31202C2F312044C61746D226178
:10524000C278012A7AD173E0B5692B682A6984B1E2
:105250008E6864F312023444641EB4FBF6F464F303
:10526000DC42CC78012C04BF22F0C04202F1005293
:1052700005E06FF312026FF3DC4202F500222A61AF
:10528000C278012A1AD0CA78012A1ED04A6952B1BE
:105290000A78012404FA02F20469656B2A43626306
:1052A000CA78012A11D043F004420B7800EB830343
:1052B0009B691A60CA78012A4BD110E00C780A6900
:1052C00000EB8404A4696261EAE70269926812F45F
:1052D000807F0CBF43F0005343F08053E3E70B782B
:1052E000CA68898AC47889B29CBBC91C00EB830058
:1052F0008C08D0F8D0102CD014F0010002D052F855
:10530000043B0B60A04224D252F8043B0B6052F8DD
:10531000043B0B60801CA042F6D31AE000E00DE0D5
:105320008C6864F312026FF3DC4202F5002285E719
:105330000C780A6900EB8404646D6261CA78012A02
:105340000AD000BF097843F0044200EB8100406DB1
:10535000026070BC604670474A79002A14BF43F06F
:10536000005343F08053EDE7C0680021826842F0AB
:10537000010282600846704738B500242246009436
:10538000009B43F020030093009B61F38A1300937A
:105390000099C3681961094BD0F80C10D1F810C0FE
:1053A000CDF800C0521C9A4203D8009810F0200F8C
:1053B000F4D10320FFF77EFC204638BD400D0300EA
:1053C00000698068C0F34100002804BF03207047D3
:1053D000012803D0022804BF012070470220704733
:1053E000C068406910F0010F0CBF01200020704719
:1053F000C068416980690840704700698169C06977
:10540000084080B2704700698169C0690840000C9B
:10541000704700EB8101496D896800694069084067
:105420007047D21CD0F8D030920813D012F001008F
:1054300003D0D3F800C041F804CB90420AD2D3F88D
:1054400000C041F804CBD3F800C0801C41F804CB65
:105450009042F4D30846704770B40022C2704FF0F7
:10546000010C402480F802C01546134684800129AF
:1054700001D069B115E080F80BC00821017004214A
:105480004FF0A04241709115C1800221017208E0E5
:10549000C3720C21017006214170364A4FF4A0619D
:1054A000C18002F50061C0E903214378002B18BFD9
:1054B00000210DD002EB411C00EB81040CF51066BD
:1054C0000CF5306C491CC4F854C0A6615B1EF1D1C8
:1054D00002F5806141614031C0F8CC1090F800C005
:1054E000BCF1000F3ED000231CF0010104D002F5F6
:1054F000A063C0F8903001238C4519D902EB431CFE
:1055000000EB83040CF5A06C5B1CC4F890C002EBAC
:10551000431C00EB83040CF5A06CC4F890C090F819
:1055200000C0891C5B1C8C45E8D81CF0FF0F19D00B
:105530000CF0FF0313F001011CBF02F5805CC0F802
:10554000D0C08B420ED900BF02EB013303F580546B
:1055500000EB810C03F50053CCE934430378891C3C
:105560008B42F1D802F56061C0F80C11284670BC7E
:10557000704700000000044010B5C0680024C268F5
:10558000012922F0C04208BF42F0005203D0002996
:1055900008BF42F08042C2603220FFF777FB20460E
:1055A00010BD000010B4844600209CF80340002C7D
:1055B0001CBF10BC7047DB1C0CEB82029B08D2F8AE
:1055C000D0C004BF10BC704713F0010203D051F8E3
:1055D000044BCCF800409A4224BF10BC704700BF77
:1055E00051F8044BCCF8004051F8044BCCF8004083
:1055F000921C9A42F4D310BC7047FEE7002070471B
:1056000010B501F05BFF002010BD002070470020A6
:1056100070470020704770470FB4054B10B503A9C1
:10562000044A029800F00AF910BC5DF814FB00006F
:105630009D660008440100207CB5044600201D46FC
:10564000164600290BD0491ECDE90041044B6A469D
:105650002946304600F0F2F8009A002111707CBD16
:105660006B5F000837B514460846064B6A4621466C
:1056700000F0E4F804466946002000F081FC204672
:105680003EBD0000815F000802E008C8121F08C18B
:10569000002AFAD170477047002001E001C1121FB3
:1056A000002AFBD1704700002DE9FF5F82B0002186
:1056B000DDE90430020DDDF840B0034318D044F6B4
:1056C0001050A2F2FF3242431514119801281FD046
:1056D000A5EB0B00401C5FEA000A4FF000064E4F9E
:1056E000DFF83891B046504615D5CAF1000413E0F2
:1056F000119801244AA3012801D16FEA0B010298F5
:10570000119AC0E90031C0E9024206B0BDE8F09F3D
:10571000CBF10000DFE704460021404A491842EB84
:105720000450CDE9001012E0E00707D032463B46B6
:1057300040464946FBF75DF88046894632463B467F
:1057400010461946FBF755F806460F466410002C24
:10575000EAD1DDE90401DDE90023BAF1000F06DA40
:10576000FBF747F842464B46FBF743F805E0FBF7EB
:10577000B2F842464B46FBF7AEF804460E4600220E
:10578000284BFBF741F903D84FF0FF30014607E003
:105790000022254B20463146FAF784FFFBF7B4FA86
:1057A000102409E0002C0ADB0A220023FBF776F91B
:1057B000039B30321A55641E50EA0102F2D1641C78
:1057C000039AC4F111031444119A012A03D001224F
:1057D00008430DD10AE0084304D000204FF0110B1C
:1057E000119072E7A3EB0B056D1E0DE05B4504DD28
:1057F0004FF0000205F1010504E003DA4FF000026A
:10580000A5F10105002AECD002981199C0E90231F6
:10581000C0E9004579E70000000014400000F03FB7
:10582000300000000000F0430000E03F30380A285C
:1058300001D2012070470020704700002DE9FF4F82
:1058400095B09B468946064600250FE2252877D16C
:1058500000242746F84A0121059400E0044316F885
:10586000013F203B01FA03F01042F7D130782A289B
:1058700011D06FF02F033078A0F13002092A16D82A
:10588000059A44F0020402EB820203EB4202104448
:10589000761C0590EFE759F8042B0592002A03DAED
:1058A000504244F40054059044F00204761C3078D1
:1058B0002E2816D116F8010F44F004042A280DD022
:1058C0006FF02F023078A0F13003092B09D807EBD5
:1058D000870302EB4303C718761CF3E759F8047BF0
:1058E000761C30786C280FD006DC4C2817D068283E
:1058F0000DD06A2814D104E0742810D07A280FD172
:105900000DE044F400140AE044F4801401E044F48F
:1059100040147278824202D104F58014761C761C01
:10592000307866280BD013DC582877D009DC0028A3
:1059300075D04528F6D04628F4D047281AD19DE1E5
:1059400018E0632835D0642879D0652812D195E114
:10595000702873D008DC6728F1D069286FD06E28D2
:105960000DD06F2806D1B5E073282CD0752875D0DE
:10597000782874D05A46179990476D1C75E1C4F386
:105980000250022809D003280DD0D9F800100428AD
:105990000DD00D6009F1040967E1D9F80010EA178C
:1059A000C1E90052F6E7D9F800100D80F2E70D705A
:1059B000F0E719F8041B8DF8001000208DF80100A5
:1059C000EA46012003E059F804AB4FF0FF306107CD
:1059D0004FF0000102D40DE008F101018846B94200
:1059E0000FDA8045F8DB1AF808100029F4D108E036
:1059F00008F1010188468142FADB1AF808100029F3
:105A0000F6D105985B46A0EB080721463846179A61
:105A100000F094FA284400EB080507E04DE029E186
:105A20000DE01AF8010B5A4617999047B8F1010892
:105A3000F7D25B4621463846179A13E142E00A2224
:105A40000092C4F302524FF0000A022A08D059F81B
:105A500004CB032A4FEAEC710AD00DE029E02AE0DA
:105A600009F1070121F00702F2E802C1914609E0BD
:105A70000FFA8CFC4FEAEC71042A03D14FFA8CFC2C
:105A80004FEAEC71002907DA0A460021DCF1000C2C
:105A900061EB02012D2202E0220504D52B228DF8B4
:105AA0000420012203E0E20701D02022F7E790461C
:105AB00059E00A2102E010220DE010214FF0000A07
:105AC00000910BE010224FF0000A44F00404082774
:105AD000009203E008224FF0000A0092C4F3025241
