:020000040800F2
:10000000E83B012061020008E1410008D13D000801
:1000100089400008FF160008D377000800000000A0
:10002000000000000000000000000000A101000826
:100030000736000800000000FD010008854F000899
:10004000EF7700087B0200087B0200087B020008B3
:100050007B0200087B020008CB38000869390008E1
:10006000A5390008C3390008E13900087B020008FF
:100070007B0200087B0200087B0200087B0200086C
:100080007B0200087B0200087B0200086117000861
:10009000011700087B0200087B020008FF390008F6
:1000A000B5500008B95000087B020008B75000089E
:1000B000E9500008795300087B0200087B02000821
:1000C0007B0200087B0200087B0200080D49000843
:1000D0000F49000869600008016100085D610008BF
:1000E000E93800087B0200087B020008A1530008E1
:1000F000AF530008AD5300087B0200087B020008E4
:100100007B0200087B0200088D530008114900089B
:10011000C15F0008F95F00087B0200087B0200084D
:100120007B0200087B0200087B0200087B020008BB
:100130007B0200087B0200087B02000861230008A4
:10014000D51800087B0200087B020008E143000884
:100150007B0200087B0200087B0200087B0200088B
:100160007B0200087B0200087B0200087B0200087B
:100170007B0200087B0200087B0200087B0200086B
:100180007B0200087B020008DFF810D000F04CFE74
:100190000048004771890008AFF30080E83B012068
:1001A0002C4B19680868B0E8F04F80F30988BFF35A
:1001B0006F8F4FF0000080F311887047000000003F
:1001C00008480068006880F308884FF0000080F35A
:1001D000148862B661B6BFF34F8FBFF36F8F00DF35
:1001E00000BF00BF08ED00E0DFF80C00016841F43B
:1001F00070010160704700BF88ED00E0EFF30980F7
:10020000BFF36F8F134B1A681EF0100F08BF20ED5D
:10021000108A20E9F04F106009B44FF0010080F31C
:100220001188BFF34F8FBFF36F8F0AF02FF84FF095
:10023000000080F3118809BC19680868B0E8F04F25
:100240001EF0100F08BFB0EC108A80F30988BFF3CE
:100250006F8F70476C030020EFF30580704700003C
:100260000648804706480047FEE7FEE7FEE7FEE750
:10027000FEE7FEE7FEE7FEE7FEE7FEE7B14F000818
:100280008901000840EA01039B0703D009E008C97F
:10029000121F08C0042AFAD203E011F8013B00F84B
:1002A000013B521EF9D27047D2B201E000F8012B97
:1002B000491EFBD270470022F6E710B513460A46E6
:1002C00004461946FFF7F0FF204610BD30B505463D
:1002D0000020034600E05B1C934205D2EC5CC85C46
:1002E000201A01D1002CF6D130BD00000FB400B5AA
:1002F0008DB010A909900B9000914FF0FF300A903B
:1003000000200C9005480690054807906A4609A809
:100310000F9900F033FC0DB05DF814FB990B000849
:10032000B70B00082DE9FF5F1D464FF0FF3BD5E9F5
:10033000014691465F464FF00008A9697F1C01986D
:100340008847296A824688470028F6D1BAF1FF3FDC
:100350000CD024F4C064002E19DD600614D5BAF167
:100360002B0F09D0BAF12D0F0ED103E0584604B07F
:10037000BDE8F09F44F48064A9697F1C0198884718
:10038000761E8246002E02DDBAF1300F03D0B9F19D
:10039000000F26D032E0A969761E44F400747F1C59
:1003A000019888478246002E05DDBAF1780F06D005
:1003B000BAF1580F03D0B9F1000F10D01EE0B9F117
:1003C000000F02D0B9F1100F18D1A969761E24F4DC
:1003D00000747F1C019888478246102002E00820A4
:1003E00000E00A20814609E008FB0908A969761E99
:1003F00044F400747F1C019888478246002E05DD76
:100400004946504600F0A6FB0028EDDAE96901985C
:100410008847A00502D46FF00100A8E7E00725D1C6
:10042000600613D5600502D5C8F1000000E0404623
:1004300029680A1D2A600968220501D5087015E09F
:10044000220701D5088011E008600FE02868011D2F
:1004500029600068210502D580F8008006E02107A8
:1004600002D5A0F8008001E0C0F8008038467EE7A1
:100470002DE9FF4F087883B09946FF2805D0491C25
:100480002D2804D00024002008E000200BE00124E7
:10049000F9E700EB800003EB4000491C0B78FF2BD1
:1004A000F7D104B1404200230293147819461D4647
:1004B0002D2C01D02B2C04D1521C2D2C13D0002418
:1004C0000294AA461478FF2C0FD00A25A3FB0578C6
:1004D00001FB05814FF0000C03FB0C11521CE319CA
:1004E0004AEB0101EEE70124EAE7814453EA010007
:1004F00002D019F5C87F06DA03980021C0E900117F
:1005000007B0BDE8F08F0025AE4E2F46DFF8B88269
:10051000184600F064FCCDE90001B9F1000002DAF0
:10052000C9F1000400E004460023A74A1AEB030BBC
:1005300042EB045A12E0E00707D02A463346384619
:10054000414600F0ECF9074688462A4633461046F5
:10055000194600F0E4F905460E466410002CEAD175
:10056000DDE90001B9F1000F5A46534606DA00F002
:10057000C7FB3A46434600F0C3FB05E000F0CFF965
:100580003A46434600F0CBF9029A0AB181F00041A5
:10059000039AC2E90001B3E72DE9FF4F1F468DB072
:1005A000D7E901464FF0FF382E2045464FF00009AD
:1005B0000B90B9696D1C0E988847396A8246884746
:1005C0000028F6D1BAF1FF3F0AD024F4D064002EFF
:1005D00011DDBAF12B0F08D0BAF12D0F0BD102E0CB
:1005E000404611B08DE744F48064B9696D1C0E98E3
:1005F00088478246761E6946600501D52D2000E0B9
:100600002B208DF8000001F1010B0DF1200809E00D
:10061000B9696D1C0E98884782460F9844F400749F
:10062000761E0560002E02DDBAF1300FF0D00B9976
:100630008A453ED144F0800406E00F99681CA9F178
:10064000010944F400740860B9696D1C761E0E98A7
:10065000884782463028F0D02BE00B998A4505D197
:10066000200603D444F08004761E18E0504607F0BC
:1006700033FA08B30DF11301761E44F400748B4570
:1006800008D2AAF130000BF8010B200607D5A9F11A
:10069000010003E0200602D409F101008146A00513
:1006A00002D50F99681C0860B9696D1C0E988847BF
:1006B0008246002ED1DC53E0002E51DDBAF1650FE9
:1006C00002D0BAF1450F4BD1A00549D5B9696D1CCF
:1006D00024F44074761E0E9888478246002E0CDD66
:1006E0002B2804D0BAF12D0F07D144F48074B969D6
:1006F0006D1C0E9888478246761EE00501D52D2197
:1007000000E02B2108F8011BCDF82C8021E00DF131
:100710002901761E44F4007488450CD2AAF13000F9
:1007200010F0FF0088F8000002D10B99884509D924
:1007300008F1010806E0E00501D5244801E042F295
:100740000F708146B9696D1C0E98884782460F98D4
:100750000560002E04DD504607F0BEF90028D6D112
:10076000F9690E988847FF208BF8000088F8000090
:100770000020069007904B466A4608A906A8FFF796
:1007800077FEA00502D46FF001002AE714F0240FD1
:100790000AD0E00714D1DDE906123868031D3B607A
:1007A0000068C0E900120BE0DDE9060100F04EF937
:1007B0000146E00704D13868021D3A600068016014
:1007C00028460EE7000014400000F03FF1D8FFFF7C
:1007D0002DE9FE4F804681EA0300C00F0C460090D1
:1007E00021F0004123F00045B8EB0200A94105D2F9
:1007F0004046214690461C460B46024623F00040E8
:10080000104347D0270DC7F30A00C3F30A510290E3
:10081000401A019040286BDAC3F3130040F4801BA8
:100820000098924620B10023D2EB030A63EB0B0B36
:1008300001985946C0F14002504600F06AF9064658
:100840000D4650465946019A00F072F910EB080027
:100850006141002487EA115284EAE7731A4340D0C9
:10086000009A62B3019A012A4FEA075215DC001B75
:1008700061EB02014FF0004202EA0752CDE900426B
:10088000001C41F5801132462B4600F0EBF903B015
:10089000BDE8F08F40462146F9E7001B61EB0201FD
:1008A000001C41F5801300185B412018A2F50017C9
:1008B00047EB030140EAD570B6196D4111E06D08B0
:1008C0004FEA360645EAC0754FEA0752001B61EB56
:1008D0000201001C41F5801149084FEA300000195F
:1008E000514132462B4603B0BDE8F04F00F0ABB9A2
:1008F0000098012240000023D0EB020263EBE0737A
:10090000009821464FEAE074B8EB000061EB040167
:10091000E9E783F000435BE781F0004158E72DE908
:10092000FE4F81EA030404F0004421F000410094EA
:100930004FF0000B23F0004350EA01045ED052EA6E
:1009400003045BD0C3F30A54C1F30A552C44A4F248
:10095000F3340194A0FB0254C1F3130141F480115C
:10096000C3F3130343F4801301FB024400FB034E63
:10097000840A970A44EA815447EA8357A4FB07682C
:1009800002958D0A05FB07854FEA932C04FB0C5456
:100990002705029D4FEA065847EA1637B5EB0805CA
:1009A0006EEB070C870E920E47EA811742EA83121C
:1009B000A7FB0201B6EB0B0164EB00042B0D43EA2D
:1009C0000C335E1844EB1C50DA465146E7FB02013B
:1009D000C5F313044FEA0B3343EA14534FEA0432CE
:1009E000019C43EA0603A4F10C040294009CCDE9A7
:1009F00000B400F037F903B0BDE8F08F00200146E5
:100A0000F9E70EB540F2334102910021CDE9001122
:100A10000A460B4600F026F903B000BD30B5041EAF
:100A200071F1000404DB4FF00044404264EB01012B
:100A3000141E73F1000405DB1C464FF000435242C4
:100A400063EB0403994208BF904230BD01F00043BC
:100A500030B421F0004150EA010206D00A0DA2F59F
:100A60006072C1F31301002A02DC30BC0020704721
:100A7000440F44EAC104C100E01830BC00EBC2508E
:100A800000F0AAB830B50B46014600202022012410
:100A900009E021FA02F59D4205D303FA02F5491B4C
:100AA00004FA02F52844151EA2F10102F1DC30BD62
:100AB0002DE9F05F0546002092469B468846064693
:100AC000814640241BE0284641464746224600F026
:100AD000BDF953465A46C01A914110D311461846E3
:100AE000224600F016F82D1A67EB01084F46224601
:100AF0000120002100F00DF817EB00094E41201EE7
:100B0000A4F10104DFDC484631462A464346BDE8ED
:100B1000F09F202A04DB203A00FA02F100207047FF
:100B20009140C2F1200320FA03F31943904070472B
:100B3000202A06DBCB17203A41FA02F043EAE073A1
:100B400006E041FA02F3D040C2F12002914008438E
:100B5000194670473A2800D2303820F02002412A46
:100B600001D3A2F13700884201D34FF0FF30704724
:100B7000026811441378016018467047D160044937
:100B800051610449116200211161114600F074B9EC
:100B9000710B00086D0E0008426842B1016811F83F
:100BA000013B23B1521EC0E90012184670470121D3
:100BB000C160881E704742685AB1C368016843B972
:100BC00083688B4205D0491E521CC0E900120020E8
:100BD00070474FF0FF3070470029A8BF7047401C96
:100BE000490008BF20F00100704710B4B0FA80FC43
:100BF00000FA0CF050EA010404BF10BC704749B180
:100C0000CCF1200421FA04F411FA0CF118BF0121EF
:100C100021430843A3EB0C01CB1D4FEA00614FEACF
:100C2000102042BF002010BC704700EBC35010449E
:100C30000029A4BF10BC7047401C490008BF20F029
:100C4000010010BC704710B5141E73F1000408DADF
:100C5000401C41F1000192185B411A4301D120F080
:100C6000010010BD2DE9F04D92469B4611B1B1FA3D
:100C700081F202E0B0FA80F220329046FFF749FF9D
:100C800004460F4640EA0A0041EA0B0153465A4621
:100C9000084313D0114653EA010019D0C8F14002AD
:100CA000504600F0D3F805460E4650465946424697
:100CB000FFF72FFF084305D0012004E02046394606
:100CC000BDE8F08D0020054346EAE0762C4337432B
:100CD0000A986305E40AA0EB08000022FD0A44EA32
:100CE00047540A3002D500200146E9E701051019F2
:100CF0006941DDE9084500196941BDE8F04DA2E709
:100D00002DE9F04D81EA030404F0004B21F0004589
:100D100014464FF0000A23F0004150EA050220D0AB
:100D200054EA01021DD0C5F30A570246C5F3130366
:100D3000C1F31300C1F30A5640F4801543F4801345
:100D4000A7EB0608101BD64608F2FD3873EB05002A
:100D500002D308F1010801E092185B41B8F1000FDD
:100D600003DA00200146BDE8F08D00204FF4801129
:100D7000064684460EE0171B73EB050705D3121BCE
:100D800063EB050306434CEA010C49084FEA3000C7
:100D900092185B4150EA0107EDD152EA030012D0EC
:100DA00082EA040083EA0501084305D0101BAB4129
:100DB00006D20122002306E000224FF0004302E0A9
:100DC0006FF0010253101AEB06004CEB085110EBC8
:100DD0000A0041EB0B01BDE8F04DFFF734BF0EB543
:100DE00040F2334202920022CDE900221346FFF77F
:100DF00039FF03B000BDC1F30A52C1F3130140F241
:100E0000FF3341F480119A4202DA00200146704714
:100E100040F233439A42A2F2334202DC524200F0E3
:100E200015B8FFF776BE0000064C074D06E0E068F7
:100E300040F0010394E8070098471034AC42F6D321
:100E4000FFF7A6F9CCB20008ECB20008202A04DBB8
:100E5000203A21FA02F00021704721FA02F3D04033
:100E6000C2F120029140084319467047C0B24FF4C6
:100E7000F05100F099B900002DE9F34F8BB04FF01D
:100E8000000801F10C000C464FF0010B46460DF135
:100E9000080A01906269012101989047051E2DD032
:100EA000252D2CD0216A8847C0B1626901210198A3
:100EB0009047216A88470028F7D1411E626901984E
:100EC000904700E0761CA1690B988847216A884703
:100ED0000028F7D1E1690B988847DBE7A1690B98F7
:100EE00088470746A84201D1761CD3E7E1690B98F1
:100EF00088477F1C02D1B8F1000F6FD047E100276F
:100F000062693D463946019890472A2804D16269B2
:100F10000121019890470125DFF88892626901213B
:100F200001989047A0F130010A290AD24F45E5DC2B
:100F300007EB870100EB4107303FDFD445F0100598
:100F4000ECE7E90601D46FF000476C280AD04C2882
:100F500014D0682815D06A280DD074281CD07A289F
:100F60001AD01DE062690121019890476C2802D0D7
:100F700045F0040514E045F002050DE045F02005BC
:100F80000AE06269012101989047682802D045F083
:100F9000080505E045F40065626901210198904764
:100FA000C4E9015765283DD019DC58287AD00CDCFB
:100FB000452837D004DC252826D0412831D131E01E
:100FC00046282FD047282CD12CE05B2877D06128E9
:100FD00028D063287CD0642823D15AE0D1E06F2840
:100FE00048D008DC66281DD067281BD0692821D08E
:100FF0006E2816D127E0702845D0732868D0752850
:1010000047D078280DD14DE0A1690B988847054657
:1010100025283FF469AFE1690B9888476D1C3FF4C0
:101020006AAFB4E023466A466FF001000B99FFF700
:10103000B3FA9FE045F040006060A80723464FF0F8
:10104000000236D43EE0E8077FF447AF2068011D78
:1010500021600068290501D506701BE7290701D525
:10106000068017E7A90703D5F117C0E9006111E76A
:1010700006600FE745F040006060A80723464FF088
:10108000080216D41EE040F60E0125EA0100606059
:1010900016E045F040006060A80723464FF00A02C2
:1010A00007D40FE045F040006060A80708D523464C
:1010B00010226FF001000B99AFF300805AE007E0B7
:1010C000234610226FF001000B99FFF72BF951E036
:1010D0004FF000094F464B46632802D05B2807D0EB
:1010E00041E02079C00601D40120A06001273AE048
:1010F00062690121019890475E2805D14FF00109EE
:101100006269494601989047216939B900210A4628
:10111000534643F82120491C0829FADBB0B3216962
:1011200069B9C11700EBD16253110AEB830122F0B8
:101130001F02821A01200B68904003430B60626912
:101140000121019890475D28E8D1B9F1000F09D03D
:101150000020514651F82020D24341F82020401C65
:101160000828F7DB02AB224600976FF001000B99CD
:10117000AFF3008000280CDA401C08D1BBF1000F4F
:1011800005D04FF0FF300DB0BDE8F08FFFE74046CF
:10119000F9E7E90701D108F1010806444FF0000B17
:1011A00078E60000CCCCCC0C7F2801D9002208E0E6
:1011B000064A02EB5002C007127800D1120902F071
:1011C0000F02012090400840704700008CB20008D8
:1011D00070B58C1810F8015B15F0070301D110F8F9
:1011E000013B2A1106D110F8012B03E010F8016B26
:1011F00001F8016B5B1EF9D12B0705D40023521EA9
:101200000DD401F8013BFAE710F8013BCB1A921C10
:1012100003E013F8015B01F8015B521EF9D5A1420E
:10122000D8D3002070BD0029816814BF41F00101AE
:1012300021F00101816070470849D1F80423084B6F
:101240001A40D0E9003C43EA0C03D0E902C04CEA62
:10125000000018431043C1F8040370470020014008
:10126000E030FCFF0021016041608160C160704797
:101270000029816814BF41F4807121F4807181607C
:1012800070470029816814BF41F4007121F4007196
:101290008160704710B4426891F804C022F48072F3
:1012A00022F040720B6842EA0C221A4342608268C4
:1012B0000C4B4C791A40D1E903C343EA0C03D1F833
:1012C00008C04CEA440C43EA0C031A438260C26A29
:1012D000097D22F47002491EC9B242EA0151C1627D
:1012E00010BC7047FDF7FFC030B4072409290DD9A1
:1012F000C568A1F10A0C0CEB4C0C04FA0CF425EABD
:10130000040403FA0CF32343C3600AE0056901EB0C
:10131000410C04FA0CF425EA040403FA0CF3234309
:1013200003611F23072A0CD2D0F834C0521E02EBEF
:10133000820293402CEA030391401943416330BC7D
:1013400070470D2A0CD2D0F830C0D21F02EB8202B7
:1013500093402CEA030391401943016330BC70476A
:10136000D0F82CC00D3A02EB820293402CEA030322
:1013700091401943C16230BC7047816841F080419F
:101380008160704700210160017141718160C1601D
:1013900001610121017570472DE9FF4F044689B0B5
:1013A0000C30DDE918A90FC8DDF858B08DE80F0042
:1013B0003A4E2168DFF8E880B14208BF4FF0007074
:1013C00003D0414508BF4FF0C060012103F058F938
:1013D000344D6068294600F067F82946A06800F09F
:1013E00063F82068B04214BF40450921606802F0EC
:1013F00069FC2068B04214BF40450921A06802F092
:1014000061FC00258DF81650012717988DF817708C
:101410008DF812000A988DF813000C9806958DF837
:1014200014000B988DF81500ADF810B004A92068D1
:1014300001F04EF90E2001F01FFA8DF80A508DF8D8
:101440000B508DF80C70ADF80050ADF80450ADF8AD
:101450000250ADF80650ADF808508DF80D70684692
:1014600001F02EF801220221206801F029F92068FC
:10147000B04208BF142102D0404508BF40218DF87A
:101480001C108DF81DA08DF81E908DF81F7007A8F8
:1014900002F0A8FE0DB0BDE8F08F0000006400402F
:1014A0000068004001000200F0B50546C1F30740A6
:1014B00083B0002808BF00240AD0012808BF0124F7
:1014C00006D0022808BF022402D0032808BF032444
:1014D000C1F30720002808BF002702D0012808BF59
:1014E000012711F0FF0008BF002606D0012808BF21
:1014F000012602D0022808BF02262968A1F18042F5
:10150000B2F5003208BF012037D0A1F18042B2F518
:10151000013208BF022030D0A1F18042B2F5023280
:1015200008BF042029D0A1F18042B2F5033208BFE0
:10153000082022D0A1F18042B2F5043208BF102069
:101540001BD0A1F18042B2F5053208BF202014D093
:10155000A1F18042B2F5063208BF40200DD0A1F1C2
:101560008042B2F5073208BF802006D0A1F1804248
:10157000B2F5083208BF4FF48070012103F074F80F
:10158000686800908DF804408DF8067003208DF88F
:1015900005008DF807606946286802F035FB03B046
:1015A000F0BD2DE9F04184B01C4615460E4680463C
:1015B0000A9F00F027F80021ADF80050ADF80210A6
:1015C000ADF8081001966946404603F079FF012204
:1015D0001146404603F00DFF0121404603F0EEFEA8
:1015E000404603F00EFF8DF80C008DF80D408DF88D
:1015F0000E7001208DF80F0003A802F0F3FD04B077
:10160000BDE8F081A0F18041B1F5803143D0B0F167
:10161000804F48D0A0F18041B1F580613FD0A0F16A
:101620008041B1F5006142D0A0F18041B1F5406147
:1016300041D0A0F18041B1F5805140D0A0F180416E
:10164000B1F5A0513FD0A0F18041B1F582313ED03B
:10165000A0F18041B1F5A0313DD0A0F18041B1F5BC
:10166000A2313CD0A0F18041B1F5A4313BD0A0F132
:101670008041B1F5C0513AD0A0F18041B1F5E051BF
:1016800039D0A0F18041B1F5005118BF7047012158
:10169000080202F0F5BF0121084603F009B8012154
:1016A000022002F0EDBF0121084602F0E9BF01214E
:1016B000042002F0E5BF0121082002F0E1BF012172
:1016C000102002F0DDBF0121202002F0D9BF01214E
:1016D000022002F0EDBF0121080402F0E9BF012160
:1016E000480402F0E5BF0121880402F0E1BF0121B6
:1016F000402002F0C5BF0121802002F0C1BFFEE7FB
:1017000038B5124C0221204600F052FF002808BFD5
:1017100038BD0421204600F067FE0D49204600F048
:1017200049FE0C4A0021204601F04CF80A48C169E4
:101730000C3000910FC803F0EDF801F0F3FB0748FF
:10174000D0F8A310491CC0F8A31038BD00640040B5
:101750000800003280070020740700202C040020BD
:1017600010B5094C0121204600F022FF002808BFD7
:1017700010BD0121204600F037FE20460322BDE8BF
:101780001040002102F0D4BE0064004010B582B0C9
:1017900008490B20CDE9000100234FF4007206A197
:1017A000084809F025FA044607F0DEF8846202B022
:1017B00010BD00007407002043414E325F54617336
:1017C0006B000000852300082DE9F04F8BB08146A7
:1017D0001E46174688463D48DDF850A000F052FEF0
:1017E000684601F05FF80121022002F03DFF01216F
:1017F000480602F045FF0121880602F041FF602003
:10180000089002208DF8240000248DF82640032043
:101810008DF82500DFF8B8B001258DF8275008A90C
:10182000584602F0F1F909220521584602F039FA2A
:1018300009220621584602F034FA8DF806408DF848
:1018400008408DF807408DF809508DF802A08DF8FA
:101850000A408DF803908DF804708DF80B408DF8D8
:101860000580ADF800606946184800F031FF0F2090
:1018700001F002F80F208DF816008DF817408DF852
:101880001850ADF80C40ADF81040ADF80E40ADF872
:101890001240ADF814408DF8195003A800F010FE66
:1018A00001220221094800F00BFF40208DF81C00A6
:1018B00004208DF81D008DF81E408DF81F5007A8DC
:1018C00002F090FC0BB0BDE8F08F00000068004013
:1018D0000004024010B5FF4C86B00221204600F003
:1018E00067FE002804BF06B010BD0421204600F0AA
:1018F0007BFDF949204600F05DFD6A460021204647
:1019000000F060FFF54900980860F549D1F8A32080
:10191000521CC1F8A32041092FD0022900F0728186
:10192000042900F0B98206291CBF06B010BD00F0E2
:101930001F000F2800F0B98400F31684042800F07B
:10194000A18400F3EA83012800F0398403281CBF36
:1019500006B010BDE3489DF80B1080F82C109DF8E0
:101960000C1080F82D109DF80D1080F82E109DF8A9
:101970000E1080F82F1006B010BD00F01F000F28C9
:1019800072D044DC042870D018DC01286FD0032802
:101990001CBF06B010BDD3489DF80B1080F8201076
:1019A0009DF80C1080F821109DF80D1080F8221081
:1019B0009DF80E1080F8231006B010BD092878D0CD
:1019C0000A281CBF06B010BDC6489DF80B1080F851
:1019D000E8109DF80C1080F8E9109DF80D1080F8C3
:1019E000EA109DF80E1080F8EB109DF80F1080F8AB
:1019F000F8109DF8101080F8F9109DF8111080F87B
:101A0000FA109DF8121080F8FB1006B010BD1628D1
:101A100050D01D287ED01E287DD01F281CBF06B0A8
:101A200010BDB0489DF80B1080F870109DF80C1098
:101A300080F871109DF80D1080F872109DF80E104E
:101A400080F873109DF80F1080F880109DF810102A
:101A500080F881109DF8111080F882109DF8121006
:101A600080F8831006B010BD75E062E0FFE79D4886
:101A70009DF80B1080F8A0109DF80C1080F8A110B4
:101A80009DF80D1080F8A2109DF80E1080F8A3109C
:101A90009DF80F1080F8B0109DF8101080F8B41069
:101AA0009DF8111080F8B8109DF8121080F8BC1045
:101AB000D8E719E08B489DF80B1001709DF80C10C9
:101AC00041709DF80D1081709DF80E10C1709DF849
:101AD0000F1001749DF8101041749DF8111081745D
:101AE0009DF81210C174BDE77E489DF80B1080F878
:101AF00008119DF80C1080F809119DF80D1080F860
:101B00000A119DF80E1080F80B119DF80F1080F847
:101B1000181101E053E040E09DF8101080F8191111
:101B20009DF8111080F81A119DF8121080F81B1101
:101B300098E76C489DF80B1080F830109DF80C1059
:101B400080F831109DF80D1080F832109DF80E10BD
:101B500080F8331086E763489DF80B1080F8381141
:101B60009DF80C1080F839119DF80D1080F83A118D
:101B70009DF80E1080F83B119DF80F1080F8481169
:101B80009DF8101080F849119DF8111080F84A1145
:101B90009DF8121080F84B1164E752489DF80B1025
:101BA00080F860109DF80C1080F861109DF80D1001
:101BB00080F862109DF80E1080F8631052E74948D3
:101BC0009DF80B1080F840109DF80C1080F8411023
:101BD0009DF80D1080F842109DF80E1080F843100B
:101BE0009DF80F1080F850109DF8101080F85110DB
:101BF0009DF8111080F852109DF8121080F85310C3
:101C000030E700BF00F01F000F2862D040DC04283E
:101C10006AD016DC012874D003287FF423AF314842
:101C20009DF80B1080F824109DF80C1080F82510FA
:101C30009DF80D1080F826109DF80E1080F82710E2
:101C400010E709287DD00A287FF40CAF25489DF8BD
:101C50000B1080F8EC109DF80C1080F8ED109DF83A
:101C60000D1080F8EE109DF80E1080F8EF109DF822
:101C70000F1080F8FC109DF8101080F8FD109DF8F2
:101C8000111080F8FE109DF8121080F8FF10E9E6A0
:101C900016285AD01D2872D01E2871D01F287FF414
:101CA000E1AE10489DF80B1080F874109DF80C10F0
:101CB00080F875109DF80D1080F876109DF80E10C4
:101CC00080F877109DF80F1080F884109DF81010A0
:101CD0000CE08AE000680040080000321400002098
:101CE0002C040020DD0400206DE00AE080F885105F
:101CF0009DF8111080F886109DF8121080F887105A
:101D0000B0E6FE489DF80B1080F8A4109DF80C106A
:101D100080F8A5109DF80D1080F8A6109DF80E1003
:101D200080F8A7109DF80F1080F8B1109DF81010E2
:101D300080F8B5109DF8111080F8B9109DF81210B8
:101D400000E01EE080F8BD108CE6EC489DF80B101A
:101D500001719DF80C1041719DF80D1081719DF875
:101D60000E10C1719DF80F1001759DF8101041758E
:101D70009DF8111081759DF81210C17572E668E02A
:101D800055E0DE489DF80B1080F80C119DF80C1002
:101D900080F80D119DF80D1080F80E119DF80E10B1
:101DA00080F80F119DF80F1080F81C119DF810108D
:101DB00080F81D119DF8111080F81E119DF8121069
:101DC00080F81F114EE6CD489DF80B1080F83410B6
:101DD0009DF80C1080F835109DF80D1080F8361025
:101DE0009DF80E1080F837103CE6C4489DF80B10A3
:101DF00080F83C119DF80C1080F83D119DF80D10F5
:101E000080F83E119DF80E1080F83F119DF80F10DC
:101E100080F84C119DF8101080F84D119DF81110AC
:101E200080F84E119DF8121080F84F111AE6B34851
:101E30009DF80B1080F864109DF80C1080F8651068
:101E40009DF80D1080F866109DF80E1080F8671050
:101E500008E6AA489DF80B1080F844109DF80C1075
:101E600080F845109DF80D1080F846109DF80E1072
:101E700080F847109DF80F1080F854109DF810104E
:101E800080F855109DF8111080F856109DF812102A
:101E900080F85710E6E500BF00F01F000F287CD047
:101EA00040DC04287AD016DC012866D003287FF4B1
:101EB000D9AD92489DF80B1080F828109DF80C10B1
:101EC00080F829109DF80D1080F82A109DF80E104A
:101ED00080F82B10C6E5092874D00A287FF4C2AD1B
:101EE00086489DF80B1080F8F0109DF80C1080F8D3
:101EF000F1109DF80D1080F8F2109DF80E1080F88A
:101F0000F3109DF80F1080F800119DF8101080F864
:101F100001119DF8111080F802119DF8121080F83F
:101F200003119FE516284ED01D287CD01E287BD09B
:101F30001F287FF497AD71489DF80B1080F878103A
:101F40009DF80C1080F879109DF80D1080F87A102B
:101F50009DF80E1080F87B109DF80F1080F8881007
:101F60009DF8101080F889109DF8111080F88A10E3
:101F70009DF8121080F88B1074E560489DF80B10E6
:101F800080F8A8109DF80C1080F8A9109DF80D108D
:101F900080F8AA109DF80E1001E065E052E080F88C
:101FA000AB109DF80F1080F8B2109DF8101080F85B
:101FB000B6109DF8111080F8BA109DF8121080F834
:101FC000BE104FE519E04D489DF80B1001729DF8C9
:101FD0000C1041729DF80D1081729DF80E10C172A7
:101FE0009DF80F1001769DF8101041769DF81110A4
:101FF00081769DF81210C17634E540489DF80B10AB
:1020000080F810119DF80C1080F811119DF80D103A
:1020100080F812119DF80E1080F813119DF80F1022
:1020200080F8201101E053E040E09DF8101080F8A6
:1020300021119DF8111080F822119DF8121080F8DE
:1020400023110FE52D489DF80B1080F838109DF8EE
:102050000C1080F839109DF80D1080F83A109DF89A
:102060000E1080F83B10FDE424489DF80B1080F81A
:1020700040119DF80C1080F841119DF80D1080F86A
:1020800042119DF80E1080F843119DF80F1080F852
:1020900050119DF8101080F851119DF8111080F822
:1020A00052119DF8121080F85311DBE413489DF88B
:1020B0000B1080F868109DF80C1080F869109DF8DE
:1020C0000D1080F86A109DF80E1080F86B10C9E4AE
:1020D0000A489DF80B1080F848109DF80C1080F805
:1020E00049109DF80D1080F84A109DF80E1080F8E8
:1020F0004B109DF80F1080F8581001E0DD0400200F
:102100009DF8101080F859109DF8111080F85A10A1
:102110009DF8121080F85B10A4E4092871D00A28F9
:102120007FF4A0AC8D489DF80B1080F8F4109DF85A
:102130000C1080F8F5109DF80D1080F8F6109DF841
:102140000E1080F8F7109DF80F1080F804119DF81C
:10215000101080F805119DF8111080F806119DF8F7
:10216000121080F807117DE416284BD01D287DD071
:102170001E287CD01F287FF475AC78489DF80B1082
:1021800080F87C109DF80C1080F87D109DF80D10E3
:1021900080F87E109DF80E1080F87F109DF80F10CB
:1021A00080F88C109DF8101080F88D109DF811109B
:1021B00080F88E109DF8121080F88F1052E4674856
:1021C0009DF80B1080F8AC109DF80C1080F8AD1045
:1021D0009DF80D1080F8AE109DF80E1080F8AF102D
:1021E0009DF80F1080F8B3109DF8101080F8B7100C
:1021F0009DF8111080F8BB109DF8121080F8BF10E8
:1022000030E419E055489DF80B1001739DF80C104F
:1022100041739DF80D1081739DF80E10C1739DF8E8
:102220000F1001779DF8101041779DF811108177FC
:102230009DF81210C17715E448489DF80B1080F8FE
:1022400014119DF80C1080F815119DF80D1080F8F0
:1022500016119DF80E1080F817119DF80F1080F8D8
:1022600024119DF8101080F8251101E053E03FE0A3
:102270009DF8111080F826119DF8121080F8271192
:10228000FFF7F0BB35489DF80B1080F83C109DF827
:102290000C1080F83D109DF80D1080F83E109DF850
:1022A0000E1080F83F10FFF7DDBB2C489DF80B1097
:1022B00080F844119DF80C1080F845119DF80D1020
:1022C00080F846119DF80E1080F847119DF80F1008
:1022D00080F854119DF8101080F855119DF81110D8
:1022E00080F856119DF8121080F85711FFF7BABB0D
:1022F0001A489DF80B1080F86C109DF80C1080F8AF
:102300006D109DF80D1080F86E109DF80E1080F87D
:102310006F10FFF7A7BB11489DF80B1080F84C1009
:102320009DF80C1080F84D109DF80D1080F84E109F
:102330009DF80E1080F84F109DF80F1080F85C107B
:102340009DF8101080F85D109DF8111080F85E1057
:102350009DF8121080F85F10FFF784BBDD040020A9
:1023600010B5074C0121204600F022F9002808BFD3
:1023700010BD01212046BDE8104000F035B8000036
:102380000068004082B008F007FD094C0090002072
:10239000207101250521684607F038FE20790028C4
:1023A00008BF2571D4F80510491CC4F80510F1E7E1
:1023B000740700200B4A914202BF002181617047DF
:1023C000C1F3130211F0007F1CBFC260704711F00F
:1023D000806F1CBF0261704711F0006F14BF8260F4
:1023E000426070477000F03010B4082304224FF0B0
:1023F000100CB1F5007F40D021DC202902BF036121
:1024000010BC704710DC012901BF1D49816010BC60
:102410007047042902BFC36010BC7047082908BF79
:10242000C0F80CC010BC7047402902BFC0F810C0F3
:1024300010BC7047B1F5807F1FD010BC70470024DE
:10244000B1F5004F08D00BDCB1F5806F15D0B1F5B8
:10245000006F1CBF10BC70478461426010BC7047A5
:10246000B1F5803F02BF436010BC7047B1F5003F3B
:1024700008BFC0F804C010BC7047426010BC704771
:1024800001010100A0F1804110B5B1F5C8414FF044
:10249000010109D0880602F0FFF8BDE810400021D4
:1024A0004FF0806002F0F8B84FF0007002F0F4F8DE
:1024B000BDE8104000214FF0007002F0EDB80000C0
:1024C00030B4817A354B012202FA01F11A6842F0E8
:1024D00001021A60DFF8C8C0DCF800208A43CCF89B
:1024E0000020047B2F4AD4B914688C4314604488BC
:1024F000C58844EA0544857AED0005F1804505F577
:10250000C045C5F840460488858844EA0544857A74
:10251000ED0005F1804505F5C045C5F84446047B4E
:10252000012C18D114680C431460847A0268E4000A
:1025300004F1804404F5C0444FEA3242C4F8402616
:10254000847A4268E40004F1804404F5C0444FEA10
:102550003242C4F84426C47A134A002C14680CBFD3
:102560008C430C4314600489104A14B914688C43DA
:1025700014600489012C02D114680C431460407B60
:10258000012804D1DCF800000843CCF800001868EA
:1025900020F00100186030BC704700000066004069
:1025A0001C6600400C660040046600401466004053
:1025B0000246002053690B4208BF7047B1F5807F87
:1025C00064D01CDC082949D00CDC012938D0022950
:1025D0003ED0042918BF7047D168002011F0080FC1
:1025E00034D1704710293FD0202943D0402918BF4B
:1025F00070471169002011F0100F27D17047B1F515
:10260000004F55D00FDCB1F5007F45D0B1F5806F9C
:1026100048D0B1F5006F18BF70479169002011F0E4
:10262000700F13D17047B1F5803F29D0B1F5003F4D
:1026300018BF70475168002011F0100F06D1704785
:1026400091681E4A0020114208BF70470120704760
:10265000D168002011F0030FF8D17047D168002035
:1026600011F0100FF2D170471169002011F0030F23
:10267000ECD170471169002011F0080FE6D17047C6
:102680005168002011F0080FE0D1704791690020D7
:1026900011F0010FDAD170479169002011F0020F9B
:1026A000D4D170479169002011F0040FCED170474A
:1026B0005168002011F0040FC8D1704701010100DA
:1026C000002A426914BF114322EA010141617047A7
:1026D0000268002322F002020260026842F0010256
:1026E00002604FF6FF7200BFD0F804C01CF0010F6B
:1026F00003D1934218BF5B1CF6D1436813F0010F5E
:102700005DD08B79012B03680CBF43F0800323F06D
:1027100080030360CB79012B03680CBF43F04003B7
:1027200023F0400303600B7A012B03680CBF43F0D6
:10273000200323F0200303604B7A012B03680CBFB6
:1027400043F0100323F0100303608B7A012B03681E
:102750000CBF43F0080323F008030360CB7A012B7E
:1027600003680CBF43F0040323F0040303608B7879
:1027700091F803C04FEA837343EA0C6391F804C0F5
:1027800043EA0C4391F805C0098843EA0C53A1F1D0
:10279000010143EA0101C161016821F00101016009
:1027A0004FF00001436813F0010F1CBF9142491C18
:1027B000F8D1406810F0010F04BF012070474FF0BE
:1027C0000000704700EB0113D3F8B0C11CF0040CFB
:1027D00082F808C0D3F8B0C107BF4FEA5C5CC2F80A
:1027E00000C04FEADC0CC2F804C0D3F8B0C10CF052
:1027F000020C82F809C0D3F8B4C10CF00F0C82F8B7
:102800000AC0D3F8B4C14FEA1C2C82F813C0D3F825
:10281000B8C182F80BC0D3F8B8C14FEA1C2C82F8BB
:102820000CC0D3F8B8C14FEA1C4C82F80DC0D3F8E5
:10283000B8C14FEA1C6C82F80EC0D3F8BCC182F854
:102840000FC0D3F8BCC14FEA1C2C82F810C0D3F8DB
:10285000BCC14FEA1C4C82F811C0D3F8BC311B0E2E
:10286000937421B1016941F0200101617047C16891
:1028700041F02001C160704709490A6842F0010235
:102880000A600A6822F4877222F478520A600A68A1
:1028900042EA00200860086820F0010008607047E4
:1028A0000066004000218171C17101724172817224
:1028B000C1728170C1700321017102214171012136
:1028C0000180704710B402460020936813F0806FB7
:1028D00051D000BF02EB0012D2F8803103F00103A7
:1028E000C2F880310B7A002B54D0D2F880C14C68EA
:1028F0004CEA030391F809C04CEAC40C43EA0C0308
:10290000C2F880318B7A03F00F038B72D2F88431D6
:1029100023F00F03C2F88431D2F8843191F80AC051
:1029200043EA0C03C2F88431CB7A91F80EC00C7BD9
:1029300043EA0C6391F80DC04FEA0C4C4CEA042CAE
:1029400043EA0C03C2F88831CB7B91F812C043EA0A
:102950000C6391F811C0097C4FEA0C4C4CEA012140
:102960001943C2F88C11D2F8801141F00101C2F86C
:10297000801110BC7047906810F0006F18BF0120E4
:10298000A8D1906810F0805F14BF02200420A1D16C
:1029900010BC7047D2F8803191F809C043EA0C03AB
:1029A000B1F800C043EA4C53AAE700001A4A0029D4
:1029B00004BF8068194907D0012904BF80681849FD
:1029C00002D0022902D022E0084002E080681549C6
:1029D0000840A0F10061A1F58071904215D008DC9B
:1029E000A8B16FF08061401808BF7047022810D06E
:1029F0000BE0B1F5007F0CD0A1F10060B0F57F4095
:102A000008BF7047B0F5003F03D000207047022098
:102A10007047012070470000000100080300000417
:102A200000030008000003102DE9F047534C86B066
:102A3000E07B401C10F0FF00E07304BF06B0BDE86F
:102A4000F0874F4800260178491CC9B2017015294A
:102A500088BF067020784B4F4FF0530940F6FF783F
:102A600028B1082000F0AAF82078002843D18DF87A
:102A7000086008208DF809608DF80A004248CDF8FA
:102A80000090002500788DF80B0040488DF80C6010
:102A9000694600788DF80D003D488DF80E6000788D
:102AA0008DF80F003B4800788DF810003A48007808
:102AB0008DF811008DF812603846FFF703FF82464B
:102AC00051463846FFF772FF20B945453CBF681CA8
:102AD00085B2F5D33148E67006603148A6700670BD
:102AE000304806703048268306603048067030480B
:102AF000067030480670E07B02283CBF06B0BDE897
:102B0000F08708208DF808608DF80960CDF80090F6
:102B10008DF80A00207B00258DF80B00032804BFE8
:102B20002673607A04D0052804BF2673A07A01D1E9
:102B30008DF80C0020488DF80D608DF80E6000684F
:102B4000010C8DF80F10010A8DF810108DF811008E
:102B500001208DF8120069463846FFF7B3FE814622
:102B600049463846FFF722FF20B945453CBF681C5F
:102B700085B2F5D3E67306B0BDE8F087B401002056
:102B80009D01002000640040360100209E010020CD
:102B9000AC010020A00100203501002058010020D8
:102BA0002F01002031010020780100203301002096
:102BB00096010020320100208C010020F0B585B084
:102BC00000248DF808408DF809408DF80A002C4843
:102BD0005221009190ED000A2146BCEEC00A10EE91
:102BE000100A8DF80B00274800788DF80C00264855
:102BF00003682648002B027822F0030218BF42F037
:102C000001020270224A1278D34013F0010F0ED055
:102C100000788DF80D001F4850F822008DF8100044
:102C2000010C8DF80E10010A8DF80F1007E08DF8D9
:102C30000D108DF80E108DF80F108DF8101010EE8D
:102C4000100A164E8DF811001348694600788DF869
:102C500012003046FFF736FE074640F6FF7539464C
:102C60003046FFF7A3FE20B9AC423CBF601C84B2E3
:102C7000F5D3AC422CBF0120002005B0F0BD000010
:102C800054010020B4010020580100202F01002031
:102C90009D010020A807002078010020006400406A
:102CA0002DE9F05F894EDFF82892DFF828A2707BCB
:102CB0000024401C7073B07BFE25401CC0B2B07372
:102CC00099F800209AF800101127A04601281ED07C
:102CD000022872D0032800F0DF80042888BF86F81D
:102CE0000E8018BFBDE8F09F307C00F10100C0B23B
:102CF0003074022838BFBDE8F09F86F81080BDE828
:102D0000F05F01F10A00C1B2092001F06BB872480E
:102D10000078F0B1714C2078012818BFBDE8F09F11
:102D200005216F4B04201D70597098706D48DA7042
:102D30000068020C1A71020A5A7198711A461846F4
:102D4000D7711572092201F05FF984F80080BDE89F
:102D5000F09FDFF894B1DBF80000002818BF0029CD
:102D600086BFDFF8888108F10209BDE8F09F00BF47
:102D7000DBF80000E040012816D1601C307501210D
:102D800088F80050022288F8011088F80220504A82
:102D9000127888F8032088F8040054480722477105
:102DA00089F8045001F030F9601CC4B29AF80000B0
:102DB0008442DDD3BDE8F09FFFE74D4C2078012829
:102DC0000ED14C4803210123057041708370C270FD
:102DD000024617715571062201F016F984F8008039
:102DE00045480178012905D180F800801521A220ED
:102DF00001F0BEFC41480078012834D1404E022148
:102E00004FF06A0A3570717086F802A099F80000D8
:102E1000F0703C4B301DDFF8F0C03C4A5FF0150409
:102E2000B3F800B0641ECBF3032B00F801BB13F81A
:102E300004BB00F801BB1CF801BB00F802BBB2F8F0
:102E400000B04FEA1B2B00F801BC12F802BB00F8DF
:102E500001BBE5D106EB0A000AF10502C770057156
:102E6000274801F0D1F82A4C2078012818BFBDE886
:102E7000F09FA1212748012205704170827099F8C6
:102E80000020C270024617715571062201F0BCF88D
:102E900084F80080BDE8F09F1F480078012818BF23
:102EA000BDE8F09F00211D48032305704170837029
:102EB000C2701B4A1288130A03714271024697714D
:102EC000D571BDE8F05F082201F09EB8B401002082
:102ED00094010020A001002036010020880100207C
:102EE000C30D0020640100205C010020F2010020DD
:102EF00095010020E00100209C01002096010020A7
:102F0000030D0020FC0700207A0800205008002054
:102F10009B010020CD0D002032010020F90100208E
:102F2000740100208C490878012818BF70472DE9EA
:102F3000F04F85B00027CF72D1E90D40D1F81CC009
:102F40000190D1E90B300090887802908348B1F865
:102F5000149091F80AA0027890F803B0B0F80180BC
:102F60004E6CCDF81080808802F00F0502F0F0085A
:102F70000390C87A421C944507D1794F4FF000095D
:102F800007F800B0012787403E43BAF1000F06D092
:102F9000944542D1022D5ED0032D73D08BE0012DDC
:102FA00021D0022D08BF944537D1DFF8B8E11EF8D3
:102FB000007007F10107FFB20EF800704FF0010E2C
:102FC0000EFA00FE23EA0E03012F35D0DFF894E15C
:102FD000EE2F24BFEE270EF800700027DFF888E1FF
:102FE0000EF8007067E0944565D15F4F17F800E078
:102FF0000EF1010E0EF0FF0E07F800E0BEF1010F1A
:103000000CD0BEF1EE0F24BF4FF0EE0E07F800E03B
:103010000027DFF850E10EF800704CE0012707FAB6
:1030200000FE0297009F4EEA0707DFF840E1009795
:1030300000278EF80070EBE7CF7823EA0E0327F025
:10304000030747F00207CF707746DDF800E02EEA6D
:1030500007070097C1E7DFF80CE11EF800707F1C3E
:10306000FFB20EF800704FF0010E0EFA00FE23EAD8
:103070000E03012F07D0DFF8ECE0EE2F28BFEE277C
:10308000AED218E00BE0CF7827F0030747F0020735
:10309000CF707746DDF804E047EA0E070AE0DFF874
:1030A000C4E000270EF80070012707FA00FE019F18
:1030B00027EA0E070197B8F1100F2AD0B8F1200FB8
:1030C00008BF944512D1CF78DFF8A4E027F00C07B1
:1030D00047F00807CF704FF0010707FA00F724EA1E
:1030E00007044FF0000700BF0EF80070D0B2C8729E
:1030F0001528FFF43EAF4C630198CB6288630098BB
:103100000863029888704E64A1F8149005B0BDE879
:10311000F08F9445EAD1DFF858E01EF800707F1C6C
:10312000FFB20EF80070012F04D0EE2F28BFEE275B
:10313000DAD2DBE7049FDFF83CE07FBA4EF820707C
:10314000039F0EF1540E7FBA2EF81070012707FA74
:1031500000F00443CAE700002C0100207C0100209D
:103160007A08002092080020A7080020BC01002057
:10317000BC080020FC0700200A4611F0800F01F077
:103180007F0310B503EB830100EBC10114BF01F510
:103190008E7101F55D710B70D2094A7004F090F9DF
:1031A000002010BD10B50A4611F0800F01F07F031A
:1031B00014BF03EB830102EB820100EBC10114BFDA
:1031C00001F58E7101F55D714FF0000C81F802C0C0
:1031D0000B70D2094A7004F05CF9002010BD70B584
:1031E0008C4611F0800F01F07F0404EB840100EBAA
:1031F000C10114BF01F58E7101F55D710C705FEABC
:10320000DC1C81F801C08A60CB7018BFCC80022B17
:1032100004BF00220A7104F00DF9002070BD01F016
:103220007F0C0CEB8C0110B500EBC101C1F88833A9
:10323000C1F880230023C1F88C3381F8753381F8FD
:1032400074C3C37801F55D71012B08BF0A611CF0DE
:10325000FF0F03D004F06EF9002010BD04F075F8E4
:10326000FAE70069002261F30A1201681143016064
:10327000704710B50A4611F0800F01F07F0314BFAC
:1032800003EB830102EB820100EBC10114BF01F5E6
:103290008E7101F55D714FF0010C81F802C00B7069
:1032A000D2094A7004F02CF9002010BD11F07F0CF7
:1032B00010B50CEB8C0100EBC1014FF0010481F85B
:1032C0001D4181F81CC1C1F82821C1F82C2101F54C
:1032D0008E714FF00002C1E9053203D004F02AF9E3
:1032E000002010BD04F031F8FAE70000064A9042D1
:1032F00034BF0648064811F0005F064A01EA0201A1
:1033000014BFC160816070471064024000600240D9
:10331000006402407D0F7D0F0029016814BF41F059
:10332000010121F0010101607047000010B5174C48
:1033300090B0204600F032F84FF000600090144842
:10334000019014480021CDE9020140F23240CDE95C
:1033500004012015CDE906018010CDE908104002D6
:10336000CDE90A010120CDE90C010E916946204604
:1033700000F0FCF801212046FFF7CEFF012240219A
:10338000054802F016FF10B010BD00008860024032
:1033900004440040D1080020004400402DE9F0031F
:1033A000016821F00101016000210160416081603C
:1033B000C160016121214161434A3D24434990425A
:1033C00002BF8C60BDE8F0037047414A4FF474655A
:1033D000904202BF8D60BDE8F00370473D4A4FF454
:1033E0007418904202BFC1F80880BDE8F00370472E
:1033F000394A4FF07466904202BF8E60BDE8F00318
:103400007047364B364A984202BFCA60BDE8F003A7
:103410007047DFF8D0C0344B604502BFCB60BDE8D9
:10342000F0037047314FDFF8C8C0B84202BFC1F89F
:103430000CC0BDE8F0037047DFF8B8904FF03D577F
:10344000484502BFCF60BDE8F0037047DFF8A890A1
:103450002A49484502BF0C60BDE8F0037047284C7C
:10346000A04202BF0D60BDE8F0037047254CA042AA
:1034700002BFC1F80080BDE8F0037047224CA042B3
:1034800002BF0E60BDE8F0037047204C2049A04207
:1034900002BF0A60BDE8F00370471E4A904202BFB7
:1034A0000B60BDE8F00370471B4A904202BFC1F8B1
:1034B00000C0BDE8F0037047184A904208BF0F6093
:1034C000BDE8F00370470000106002400060024059
:1034D0002860024040600240586002407060024034
:1034E0003D00002088600240400F0020A0600240A4
:1034F00000003D20B86002401064024008640240B1
:1035000028640240406402405864024070640240F3
:103510000C64024088640240A0640240B864024027
:1035200001460020096811F0010F18BF0120704703
:10353000406880B2704700000246084B00209A4263
:1035400034BF074A074A11F0005F14BF526812687F
:10355000054B1A400A4218BF012070471064024010
:1035600000600240006402407D0F7D0F10B40268CD
:103570001B4BD1F80CC01A400B6843EA0C03D1E98D
:1035800005C44CEA040C43EA0C03D1F81CC043EA1E
:103590000C03D1F820C043EA0C03D1F824C043EA5D
:1035A0000C03D1F828C043EA0C03D1F834C043EA35
:1035B0000C03D1F838C043EA0C031A430260426995
:1035C000D1E90B3C22F0070243EA0C031A434261A3
:1035D0000A6942604A6882608968C16010BC7047AD
:1035E0003F801CF00021016041608160C160016189
:1035F00041618161C161016241628162C1620163B5
:10360000416381637047704770B582B00121022029
:1036100001F04EF8012480208DF8044003250C4E63
:1036200000908DF805508DF807406946304600F04F
:10363000EBFA102000908DF804408DF80550022020
:103640008DF807006946304600F0DEFA02B070BD22
:10365000000402402DE9F041044600F0A3F80028E0
:1036600008BFBDE8F081A02000F078F800F0BAF8BB
:10367000314D00284CD0204600F070F800F0B2F830
:1036800000F090F8A12000F069F800F0ABF80024F9
:103690001021284600F06EFB284F07266006040E16
:1036A0008021284600F064FB8021284600F062FB60
:1036B000386810F0100F18BF44F00104711ECEB22C
:1036C000ECD28021284600F053FB8021284600F0F0
:1036D0004FFB1021284600F04DFB8021284600F0CA
:1036E00049FB8021284600F043FB8021284600F05A
:1036F0003FFB1021284600F03BFB8021284600F0CC
:1037000039FB1021284600F035FB2046BDE8F0814A
:103710008021284600F02CFB1021284600F028FBD1
:103720008021284600F026FB1021284600F022FBCD
:103730000020BDE8F08100000004024010040240B7
:1037400070B50446401CC0B2FFF784FF0546204612
:10375000FFF780FF05EB002080B270BD70B5104E02
:10376000054607248021304600F002FB15F0800F4B
:103770004FF01001304602D000F0FCFA01E000F0FA
:10378000F7FA6806050E8021304600F0F3FA611E54
:10379000CCB2E7D23046BDE87040802100F0E8BAF4
:1037A0000004024070B50D4D1021284600F0E2FAE9
:1037B0008021284600F0DEFA094C206810212846B6
:1037C00000F0D6FA206810F0100F1CBF002070BD6A
:1037D0001021284600F0CCFA012070BD0004024000
:1037E0001004024010B50E4C8021204600F0C0FAB3
:1037F0001021204600F0BEFA8021204600F0BAFADF
:10380000084800684FF0800110F0100F204603D0E8
:1038100000F0AEFA002010BD00F0AAFA012010BDA1
:10382000000402401004024070B50D460646FFF742
:10383000B9FF002808BF70BDA020FFF78FFFFFF77A
:10384000D1FF184CD8B13046FFF788FFFFF7CAFF09
:103850002846FFF783FFFFF7C5FF8021204600F0D1
:1038600087FA1021204600F083FA8021204600F0DC
:1038700081FA1021204600F07DFA012070BD8021E0
:10388000204600F075FA1021204600F071FA8021E0
:10389000204600F06FFA1021204600F06BFA00205D
:1038A00070BD00000004024070B505460C46401C87
:1038B000C9B2C0B2FFF7B8FF052004F0F5FE210A37
:1038C0002846FFF7B1FF012070BD10B5012000F0C0
:1038D000B1F8002808BF10BD012000F09FF8BDE836
:1038E0001040012000F0A0B810B50A2004F0DCFE62
:1038F0001748D0F8300228BB16480068012804D0C9
:1039000002280CD0032814D01CE01348F5EE000A5E
:1039100090ED000A30EE200A80ED000A12E00F4818
:10392000F6EE000A90ED000A30EE200A80ED000A63
:1039300008E00B48DFED0B0A90ED000A30EE200A9C
:1039400080ED000ABDE810404FF4805000F06CB8E4
:1039500000804142040000200C00002010000020E4
:1039600008000020CDCC4C3D10B5022000F062F8DC
:10397000002808BF10BD022000F050F8022000F01F
:1039800053F80748F7EE000AD0F8021000EE101ABC
:1039900030EE200A10EE101AC0F8021010BD000020
:1039A0001801002010B5042000F044F8002808BFDA
:1039B00010BD042000F032F8BDE81040042000F0F3
:1039C00033B810B5082000F035F8002808BF10BD46
:1039D000082000F023F8BDE81040082000F024B8CB
:1039E00010B5102000F026F8002808BF10BD1020E8
:1039F00000F014F8BDE81040102000F015B810B524
:103A0000402000F017F8002808BF10BD402000F04B
:103A100005F8BDE81040402000F006B801490860F4
:103A200070470000143C01400149086070470000E5
:103A3000143C0140034A0146002012680A4218BFA4
:103A400001207047143C01400149086070470000A4
:103A50000C3C024004490028086814BF40F4806010
:103A600020F4806008607047003C02400248016812
:103A700041F4805101607047003C024030B505467A
:103A8000002451B1012908BF4FF4807405D00229E8
:103A90000CBF4FF400744FF4407400F061F8092833
:103AA00018BF30BD0F4B186820F4407018601868BC
:103AB00020431860186820F0F8001860186845F076
:103AC000020108431860186840F48030186000F064
:103AD00047F8196821F002011960196821F0F8010E
:103AE000196030BD103C02400248016841F00041BD
:103AF00001607047103C024030B50C46054600F0AE
:103B00002FF8092818BF30BD0A4B186820F4407000
:103B10001860186840F400701860186840F00100E0
:103B200018602C6000F01CF8196821F00101196080
:103B300030BD0000103C02400548006810F0004F06
:103B400008BF704703490448016004490160704799
:103B5000103C024023016745043C0240AB89EFCD95
:103B600081B009208DF8000001462648026812F451
:103B7000803F18BF012116D1026812F0100F18BF44
:103B8000062110D1026812F4807F18BF02210AD1E9
:103B9000026812F0EF0F18BF072104D1026812F07B
:103BA000020F18BF08218DF800109DF800100129A0
:103BB00023D10268092112F4803F18BF012116D1D8
:103BC000026812F0100F18BF062110D1026812F41B
:103BD000807F18BF02210AD1026812F0EF0F18BFD0
:103BE000072104D1026812F0020F18BF08218DF8D6
:103BF00000109DF800100129DBD09DF8000001B0F5
:103C0000704700000C3C02402DE9F0010022012524
:103C10005FF00306D1F800C005FA02F30CEA030CCA
:103C20009C4537D107684FEA420C06FA0CF4A743CB
:103C300007600F79D0F8008007FA0CF747EA080709
:103C400007600F79012F18BF022F17D1876827EA65
:103C5000040787604F79D0F8088007FA0CF747EA25
:103C600008078760476827EA0303436043688F7942
:103C700007FA02F7BFB243EA07034360C36823EAC7
:103C80000403C360CB7903FA0CF3D0F80CC043EA09
:103C90000C03C36002F10102102ABBD3BDE8F0019E
:103CA00070474B07DB0E9A40C90800EB8100016AA0
:103CB0004FF00F0C0CFA03F399430162016A1143B0
:103CC0000162704743680A46B3F5807F08BF082148
:103CD00044D020DC102B08BF04213FD00FDC012B87
:103CE00008BF00213AD0022B08BF012136D0042B97
:103CF00008BF022132D0082B08BF03212EE0202B61
:103D000008BF05212AD0402B08BF062126D0802BD2
:103D100008BF072122E0B3F5805F08BF0C211DD04A
:103D20000EDCB3F5007F08BF092117D0B3F5806F13
:103D300008BF0A2112D0B3F5006F08BF0B210DE0B8
:103D4000B3F5005F08BF0D2108D0B3F5804F08BF61
:103D50000E2103D0B3F5004F08BF0F210068FFF715
:103D6000A0BF0246002012690A4218BF0120704716
:103D700041837047018370474FF6FF710160002156
:103D8000017141718171C1717047000030B40D4DF6
:103D9000002228462988B5F802C0042330F8044FD1
:103DA0006144B0F802C022445B1EF7D18818698ACA
:103DB00008440549A1FB00100449C008086030BC54
:103DC000704700006E0E0020CDCCCCCC6C010020E2
:103DD0000348006810F0010F00D000BEFEE70000AD
:103DE000F0ED00E02DE9F00F444E4FF0FE08444A9C
:103DF00086F800800F467070B7701278F270414AF2
:103E000000213171127872713F4AB0EE001AB1EEA2
:103E1000040AD2ED000ADFF80491DFF804A100EEF5
:103E2000810ABCEEC00A10EE102AB271374A92ED38
:103E3000000ABCEEC00A10EE102AF271882232721B
:103E4000334A12787272334A1278B272324A127856
:103E5000F27299F800C086F80CC0ACF10102002A99
:103E60001BDDAAF1010206F10C031CF0010F03D1C6
:103E700012F801CF03F801CF99F800C05478ACF1E3
:103E8000010C5FEA6C0C08D012F8025F5C70547889
:103E900003F8025FBCF1010CF6D199F80020521E24
:103EA00003D41AF80230324453737B1E002B14DD06
:103EB000B21C17F0010F03D112F801CF8CEA0101F7
:103EC00092F801C05B1008D012F8024F81EA0C0191
:103ED00092F801C061405B1EF6D17A1E02D43244D2
:103EE000D2785140F219D17082F804807A1DBDE871
:103EF000F00F0146014800F087B800007B0D00205C
:103F0000940100209001002068010020540100204D
:103F1000B40100203601002078010020A00100201B
:103F20007A0800202DE9F04182B00121082000F03C
:103F30009BFB0121062000F097FB0121480500F0C2
:103F400093FB002404208DF80440032500908DF895
:103F5000055001268DF8076069462848FFF754FE92
:103F600008208DF80440264F00908DF805508DF8FC
:103F7000076069463846FFF747FE30038DF8044076
:103F8000DFF8808000908DF805508DF80760694655
:103F90004046FFF739FE40208DF8044000908DF830
:103FA00005508DF8076069464046FFF72DFE8020DA
:103FB0008DF8044000908DF805508DF80760694633
:103FC0004046FFF721FEA8038DF8044000908DF8CD
:103FD00005508DF8076069463846FFF715FE280240
:103FE0008DF8044000908DF805508DF80760694603
:103FF0004046FFF709FE02B0BDE8F081000C024028
:1040000000040240000802402DE9F0411A4B962AB4
:10401000DA7184BF0020BDE8F081BAB1411E1748B3
:1040200012F0010F03D011F801CF00F801CFC2F355
:1040300047025AB191F801C080F801C011F802CFCF
:10404000521E00F802CF12F0FF02F3D1DD790C4EC0
:104050000024002D88BF0B4F0BD93988384611F04A
:10406000400FFAD0315D02F051F9601CC4B2A54294
:10407000F3D80120BDE8F081B4010020D60D002066
:10408000D70D002000100140FEE7000070B50A487F
:10409000FDF773F9094D0A4C29462046FFF74CFA03
:1040A0000028F9D029462046FFF720F901212046B3
:1040B000FFF732F9034870BD0020014020000010D6
:1040C00010640240040200202DE9F0439DB001215C
:1040D000042000F0C9FA1AA8FFF74EFE03208DF85D
:1040E0006C0000248DF86E4002258DF86F401A9503
:1040F0008DF86D501AA93548FFF786FD0121080299
:1041000000F0D6FA16A8FDF7ADF84FF44070EE03B4
:10411000CDE91840CDE9164616A8FDF78DF810A890
:10412000FDF730F98DF8454001208DF844004FF03F
:10413000C060CDE91240264F109414948DF854506D
:1041400010A93846FDF7A6F8032301220B213846B3
:10415000FDF7CAF801213846FDF78AF801213846F3
:10416000FDF78FF80121DFF86C90DFF86C8088058F
:1041700000F07AFA6846FFF735FA28030890C01075
:104180000690CDE90049CDF80880400007900594DD
:104190000D940E94CDE9034504200A960994CDE9C7
:1041A0000B040E4C2046FFF7BBF90128FAD06946F4
:1041B0002046FFF7DBF901212046FFF7ADF801218A
:1041C0003846FDF730F81DB0BDE8F0830008024026
:1041D000002001404C2001400402002010640240F5
:1041E0007047000010B4C27801780F244FF0010C22
:1041F0000AB3174A126801F1E02102F4E062C2F545
:10420000E062C2F30722C2F10403D44042789A402C
:10421000837823401A43120181F80024007800F0CB
:104220001F010CFA01F14009800000F1E020C0F804
:10423000001110BC704701F01F000CFA00F0490992
:10424000890001F1E021C1F8800110BC7047000035
:104250000CED00E0034940F0FD7040F08060086024
:10426000704700000CED00E02DE9F8430327DDE97D
:1042700008452C44022694F8348000240125DDF8FA
:1042800028C0B8F1070F7DD2DFE808F00415273801
:10429000495A6C008CF801508CF802408CF80340AD
:1042A0008CF804408CF805508CF806408CF80740D8
:1042B0008CF8084066E08CF801508CF802408CF8CD
:1042C00003408CF8044006258CF805508CF8064015
:1042D0008CF807408CF8084054E08CF801608CF8AA
:1042E00002408CF803408CF804408CF805508CF8A0
:1042F00006408CF807408CF8084043E08CF80160D9
:104300008CF802408CF803408CF804408CF805606F
:104310008CF806408CF807408CF8084032E08CF8A6
:1043200001708CF802408CF803408CF804408CF843
:1043300005508CF806408CF807408CF8084021E0C6
:104340008CF801708CF802408CF803408CF8044023
:1043500005258CF805508CF806408CF807408CF841
:1043600008400FE08CF801708CF802408CF8034094
:104370008CF804408CF805708CF806408CF80740E7
:104380008CF80840CDF800C000F04CF8BDE8F88388
:1043900038B5DDE9044504EB8504DDF818C0257C5B
:1043A0008CF80150657C8CF80250A57C8CF8035089
:1043B000E57C8CF8045094F820508CF8055094F863
:1043C00021508CF8065094F822508CF8075094F83D
:1043D00023408CF80840CDF800C000F023F838BD29
:1043E000014802F0E3B80000C417002010B582B005
:1043F00008480321CDE9001000234FF4806206A194
:10440000074806F0F5FB044604F0AEFA046202B079
:1044100010BD0000C60400204F445249564500001C
:10442000258A00082DE9F0478A4607461D46914631
:10443000002614210820DDF8208003F005FF09EB99
:104440004A11016000210172417204468572002DFB
:104450004FD005F0070208F101000B46B2F1010C44
:104460000AD400BF04EB010910F8018B491C5B1C46
:1044700089F80B806345F5DDAA423ADA04EB010CBA
:1044800010F8013B8CF80B30491C04EB010C10F8C0
:10449000013B8CF80B30491C04EB010C10F8013B7C
:1044A0008CF80B30491C04EB010C10F8013B8CF824
:1044B0000B30491C04EB010C10F8013B8CF80B305D
:1044C000491C04EB010C10F8013B8CF80B30491C23
:1044D00004EB010C10F8013B8CF80B30491C04EB89
:1044E000010C10F8013B491C08328CF80B30AA4231
:1044F000C4DB21463846FEF7E5F9804601463846DA
:10450000FEF754FA002808BF40F6FF7509D1701C69
:1045100086B2AE4205D241463846FEF747FA002839
:10452000F5D02046BDE8F0471422082103F0A6BECE
:104530002DE9F0418846074616460024142108203C
:1045400003F082FE054606EB4810286012206860E2
:1045500000212972697229463846FEF7B3F9804670
:1045600001463846FEF722FA002808BF40F6FF76DB
:1045700009D1601C84B2B44205D241463846FEF7E8
:1045800015FA0028F5D02846BDE8F041142208218C
:1045900003F074BE2D4830EEC00A2D4AD0ED1F0A3C
:1045A0009FED282ADFED281A70EE800AB1EE0C1A72
:1045B00010EE901AC0ED1F0A91422FDC10EE901AF7
:1045C000244A91422FD800BF62EE000A90ED1F2AC4
:1045D00041EE820AD0ED1E1A70EE611A41EE210AF8
:1045E00010EE901AC0ED1D0A80ED1E0AB1F17F5F3A
:1045F0001EDC00BF10EE901A174A91421DD800BF72
:10460000B0EEC00A10EE101AB1F17D5FBABF9FED97
:10461000130A80ED1D0AB0EE600A7047DFED100A44
:10462000C0ED1F0ACAE7DFED0F0AC0ED1F0ACBE796
:10463000F7EE080AC0ED1D0ADCE7FFEE080AC0ED40
:104640001D0ADDE7AE47613D6F12833A1C00002072
:104650000000C8420000C8C20000C0BF0000000047
:104660000000C8420000C8C2044A0029116814BFF3
:10467000084321EA00001060704700003038024013
:10468000044A0029116814BF084321EA00001060A1
:104690007047000040380240044A0029116814BFE6
:1046A000084321EA000010607047000020380240F3
:1046B000044A0029116814BF084321EA0000106071
:1046C0007047000044380240254A30B41168254B39
:1046D00011F00C0106D05C10042908BF046002D060
:1046E00008291ED0036011680F2303EA11111E4B25
:1046F000595CD0F800C02CFA01F14160D2F800C03A
:10470000072404EA9C2C13F80CC021FA0CFCC0F816
:1047100008C0126804EA52329A5CD140C16030BCD1
:1047200070471249D1F800C0CCF38055D1F800C0D1
:10473000002D0CF03F0C14BFB4FBFCF3B3FBFCF3F7
:10474000D1F800C00968CCF3881C03FB0CF3C1F35B
:104750000141491C4900B3FBF1F10160C3E70000CE
:10476000083802400024F4003803002004380240D6
:104770002DE9F35F0C460020FEF7E2FF5049088068
:104780000220FEF767FF4F4D28700420FEF762FFFE
:104790004D4E30700520FEF75DFF4C4F38700620FF
:1047A000FEF758FFDFF8288188F800000720FEF7A1
:1047B00051FFDFF8209189F800000820FEF74AFF3A
:1047C000DFF814A18AF800000920FEF743FF4349EF
:1047D00008700A20FEF73EFF414908700B20FEF7E3
:1047E00039FF404908700C20FEF734FF3E4908703D
:1047F0000D20FEF72FFF3D4908700E20FEF72AFF1F
:104800003B4908700F20FEF79BFF3A4908801120B2
:10481000FEF720FFDFF8E0B08BF800001220FEF773
:1048200019FF3649FE23087035490B70009A4A700B
:10483000344A8C701278CA70214A12884FEA122CBE
:1048400081F804C04A712B4A12884FEA122C81F871
:1048500006C0CA712C4A12780A722A784A723278D3
:104860008A729AF80020CA723A780A7398F800207F
:104870004A7399F800208A73184A1278CA73184A42
:1048800012780A74174A12784A7401228A74164AF6
:104890001278CA74154A12780A75154A12784A7540
:1048A0009BF800208A75C87508191122C27003711F
:1048B000009902B0621DBDE8F05F1148FFF7A4BB8C
:1048C0009E0100203501002036010020A1010020BA
:1048D000A2010020A3010020A4010020A5010020C6
:1048E000A6010020A7010020A8010020A9010020A6
:1048F000AA010020AC010020AE010020AF01002081
:104900009E0D002094010020A001002070477047F8
:1049100070470000DFF834C0009912F0FF0FCCF8A8
:104920001C000FD10CF15000120E027043701A0AD5
:1049300082701A0CC2701A0E027141710A0A8271D9
:10494000090CC17101208CF8000070472C01002077
:104950002DE9F047854D844FDFF8149229784FF008
:1049600000087854491C2970AA68A7F54871885432
:10497000501CA860B0F5C87F05DA084410F8010C97
:104980000A2840F0B78002227AA17C48FBF79EFCFF
:104990007B4C012670B904F148027AA17748FBF7F5
:1049A000A5FCA06C00EE100AB1EE400A10EE100A51
:1049B000E0646E71022275A17048FBF787FC28B98C
:1049C00004F1380273A16D48FBF790FC042273A137
:1049D0006A48FBF77BFC4FF01B0A40B984F830A013
:1049E000052084F8340084F86E6084F8686004223E
:1049F0006CA16248FBF76AFC40B984F830A0032040
:104A000084F8340084F86E6084F86860042267A13A
:104A10005A48FBF75BFC002804BF84F830A084F8F8
:104A20006860092263A15548FBF750FC38B9544A25
:104A300063A15248FBF75AFC206860606E7109223E
:104A400063A14E48FBF742FC40B904F1100263A198
:104A50004A48FBF74BFC206960616E71142263A128
:104A60004648FBF733FC40B904F1200265A14348F6
:104A7000FBF73CFC206A60626E71042267A13F482C
:104A8000FBF724FC38B9674C67A1A21C3B48FBF735
:104A90002DFC84F80080042265A13848FBF716FC41
:104AA000654C38B9C4F8098009F1020263A13348A2
:104AB000FBF71CFC042263A13048FBF707FC30B96C
:104AC000C4F80960614A62A12C48FBF70FFC02227E
:104AD00061A12A48FBF7FAFB28B904F1090260A199
:104AE0002648FBF703FC4FF4C8712448FBF7E3FBAF
:104AF000C5F808803878FC281FBF7878052885F825
:104B00000080BDE8F0872878042838BFBDE8F0872A
:104B1000F878B97841EA002000B241F27B4110FBFD
:104B200001F1CA14A2EBE17100EE101A4E4981FBAB
:104B300000214A11A2EBE1716FF01802514300EB22
:104B4000810000EE900AB8EEC00AF8EEE00A9FED90
:104B5000471A00EE810A10EE100AC9F8020085F823
:104B60000080BDE8F0870000D8200020240300204A
:104B70001E010020563D0A2000000000B81D002044
:104B80002C040020563D25660A000000503D0A20F6
:104B900000000000503D25660A000000506F730AB7
:104BA0002000000056656C0A200000005365740A5E
:104BB00020000000506F735F6761696E3D0A20003E
:104BC000506F735F6761696E3D25660A00000000E3
:104BD00056656C5F6761696E3D0A200056656C5FC3
:104BE0006761696E3D25660A0000000056656C5FCE
:104BF000696E7465677261746F725F6761696E3D3B
:104C00000A20000056656C5F696E74656772617496
:104C10006F725F6761696E3D25660A004F59593DA5
:104C20000A200000180100204F59593D25660A004E
:104C30004D4F413D0A200000370700204D4F413DB8
:104C400025660A004D4F423D0A2000002601002043
:104C50004D4F423D25660A00463D0A2000000000F7
:104C6000463D25640A0000001F85EB510AD7233C0E
:104C70002DE9F047824D814900276A788854521CFB
:104C8000D2B26A700B78FC2B1FBF4B78052B6F706C
:104C9000BDE8F087042A38BFBDE8F087CA78897874
:104CA00041EA022109B241F27B4211FB02F2D31424
:104CB000A3EBE27200EE102A724A82FB013253111A
:104CC000A3EBE2726FF018035A4301EB820100EE8E
:104CD000901AB8EEC00AF8EEE00A9FED6B1ADFF802
:104CE000AC8100EE810A10EE101AC8F802106F7045
:104CF0006749EA688854501CE860B0F5C87F06DA56
:104D0000084410F8010C0A2818BFBDE8F0870222F9
:104D100060A15F48FBF7DAFA604C012670B904F134
:104D200048025FA15A48FBF7E1FAA06C00EE100AB6
:104D3000B1EE400A10EE100AE0646E7102225AA130
:104D40005348FBF7C3FA28B904F1380258A1504878
:104D5000FBF7CCFA042258A14D48FBF7B7FA4FF005
:104D60001B0940B984F83090052084F8340084F899
:104D70006E6084F86860042251A14548FBF7A6FAEA
:104D800040B984F83090032084F8340084F86E60D1
:104D900084F8686004224CA13D48FBF797FA00288C
:104DA00004BF84F8309084F86860092248A138482C
:104DB000FBF78CFA38B9394A48A13548FBF796FA1F
:104DC000206860606E71092248A13148FBF77EFAC5
:104DD00040B904F1100248A12D48FBF787FA206979
:104DE00060616E71142248A12948FBF76FFA40B93F
:104DF00004F120024AA12648FBF778FA206A606293
:104E00006E7104224CA12248FBF760FA30B94C4C79
:104E10004CA1A21C1E48FBF769FA277004224BA183
:104E20001B48FBF753FA4B4C38B9C4F8097008F12A
:104E3000020249A11648FBF759FA042248A1144876
:104E4000FBF744FA30B9C4F80960474A47A1104853
:104E5000FBF74CFA022247A10D48FBF737FA28B9B5
:104E600004F1090245A10A48FBF740FA4FF4C87162
:104E70000748FBF720FAEF60BDE8F087D221002059
:104E8000240300201F85EB510AD7233C1E0100207C
:104E9000481F0020563D0A20000000002C0400207E
:104EA000563D25660A000000503D0A200000000023
:104EB000503D25660A000000506F730A2000000074
:104EC00056656C0A200000005365740A200000003B
:104ED000506F735F6761696E3D0A2000506F735FAA
:104EE0006761696E3D25660A0000000056656C5FCB
:104EF0006761696E3D0A200056656C5F6761696E87
:104F00003D25660A0000000056656C5F696E746599
:104F1000677261746F725F6761696E3D0A2000009D
:104F200056656C5F696E7465677261746F725F67F6
:104F300061696E3D25660A004F59593D0A200000FF
:104F4000180100204F59593D25660A004D4F413D3B
:104F50000A200000370700204D4F413D25660A001A
:104F60004D4F423D0A200000260100204D4F423D9A
:104F700025660A00463D0A2000000000463D2564E3
:104F80000A00000010B5012080F31188BFF34F8F95
:104F9000BFF36F8F05F006FF18B104494FF0805042
:104FA0000860002080F3118810BD000004ED00E0CF
:104FB000374882B0016841F47001016035480168EA
:104FC00041F001010160344900230B60026822F4C2
:104FD000102222F08072026000F1040C2F4ACCF8FB
:104FE0000020026822F4802202600A1D13600193EF
:104FF0000093026842F480320260026802F40032D8
:105000000092019A521C0192009A1AB9019AB2F5C3
:10501000A04FF2D1026812F4003F08BF009331D0D4
:10502000012200921E4A136843F0805313601D4A08
:10503000136843F4404313600A680A600A6842F444
:1050400000420A600A6842F4A0520A60164ACCF88C
:105050000020026842F080720260026812F0007F55
:10506000FBD0124A40F205601060086820F003008F
:105070000860086840F002000860086800F00C0052
:105080000828FAD10A494FF00060086002B0704762
:1050900088ED00E00038024008380240103000245B
:1050A0004038024000700040085A4007003C02406F
:1050B00008ED00E07047704710B5094C012120460B
:1050C00000F08CF9002808BF10BD0121204600F037
:1050D00072F92046BDE81040012100F069B90000D6
:1050E00000000140000000002DE9F0410121880787
:1050F00000F06DF9012818BFBDE8F081884C894F98
:10510000894DA06AB84208DB2878062818BF012814
:1051100003D1A08900F10100A081E0894FF00006D1
:1051200000F1010080B2E081218A01F101012182B8
:10513000618A01F101016182A18A01F1010189B253
:10514000A182B1F5487F28BF6664E18A491C89B213
:10515000E182B1F57A7F28BF267128283CD3E68109
:10516000FEF794FF7149724B08600288714801880C
:1051700023F81120491C89B201800A2928BF068022
:10518000FEF704FE206CFBF73CFC9FED6B1B53EC21
:10519000112BFBF7C4FB9FED6A1B53EC112BFBF7A4
:1051A000BEFB9FED691B53EC112BFBF7B8FB9FED8A
:1051B000681B53EC112BFBF7B2FBFBF747FC00EE2F
:1051C000100AF2EE040A84ED0F0A20EE200ABCEE6B
:1051D000C00A10EE100A60835F48D0F80CC25F4B23
:1051E0005F491422BCF1000F04BFD3F808C2BCF120
:1051F000000F08D0D0F80C02012802BFD3F8080233
:105200000128268312E0208B00F1010080B2208368
:10521000012803D0142828BF228307E0A06C401C7B
:1052200000F00103A06403EB500008804D48D0F863
:105230001832002B04BFD0F83032002B09D0D0F840
:105240001812012901BFD0F83002012866702672B9
:1052500050E0607800F10100C0B26070A36ABB4208
:1052600008DB2B78062B18BF012B03D1636A03F1EF
:105270000103636201280CD0142828BF6270606AA1
:10528000C82837D3207A401CC7B22772012F11D10A
:1052900008E0E06C6662401CE064617A884208BF06
:1052A000266227E0E079401CE071E664A06C206291
:1052B0000E80A6640120A07160712B4854210670F5
:1052C0002A48E662FAF7F7FF0220022F88BF207211
:1052D000E179022988BFE0712A782549062A04BFAE
:1052E00003222A7005D0012A02BFE279022A28701F
:1052F00000D1087000F0AEFB1E48F3EE060A012153
:10530000D0F81C0100EE100A880720EE200A84ED78
:105310000A0ABDE8F04100F04BB8000000000000B0
:105320002C01002000002041B401002008020020D0
:105330006E0E0020020200206666666666660A40FF
:105340000000000000003140000000000000303F7D
:10535000000000000000E03F008040420080414229
:10536000CC01002000004142B7010020A807002026
:10537000B5010020DD04002003480188018821F0E8
:1053800001010180704700001004004003480188BB
:10539000018821F00101018070470000100C0040DD
:1053A0000421014800F01AB800140040704770470B
:1053B000C94301827047C9430182704700290188AF
:1053C00014BF41F0010121F0010101807047024644
:1053D0000020128A0A4218BF01207047038A002267
:1053E00080890B4200EA01001CBF00280122104600
:1053F0007047002A828914BF114322EA010181818A
:1054000070470146B0F1804F04BF1C207047A1F1E6
:105410008042B2F5806204BF1D207047A1F1804236
:10542000B2F5006204BF1E207047A1F18042B2F5C0
:10543000406204BF32207047A1F18042B2F5805231
:1054400004BF36207047A1F18042B2F5A05204BFDC
:1054500037207047A1F18042B2F5A03204BF182076
:105460007047A1F18042B2F5A23226D0A1F180426C
:10547000B2F5A43204BF1A207047A1F18042B2F500
:10548000C05204BF2B207047A1F18042B2F5E05218
:1054900011D0A1F18042B2F5005204BF2D20704717
:1054A000A1F18042B2F5803207D0A0F18042B2F57E
:1054B000823218BF70472C207047192070470000B7
:1054C00010B402881C4BDFF874C0984218BF6045C6
:1054D00011D0B0F1804F1CBFA0F18044B4F58064BE
:1054E00009D0A0F18044B4F500641CBFA0F1804451
:1054F000B4F5406403D14C8822F070022243A0F13D
:105500008044B4F580541CBFA0F18044B4F5A0548D
:1055100003D00C8922F44072224302804A68C2629E
:105520000A880285984212BF6045897A01864FF049
:105530000101818210BC704700000140000401405D
:105540002DE9F05FF84F012600253878FD280ED0B0
:10555000FC2818BFBDE8F09FB7F80300F34940BA34
:105560000880F3480670F3480580BDE8F09F78781E
:10557000DFF8C483F14CA12804BF2078002840F054
:10558000B180A562F978A16207F103004FF00A012A
:10559000427894F82830491E82EA0302D2B2A2620D
:1055A00010F8023F83EA0202A262F1D1E08A384495
:1055B00010F8020C90427DD1B88841BAE0480180D1
:1055C0000020FEF771F9052003F06EF8DD48797AC6
:1055D00001700220FEF728F9052003F065F8B97A7A
:1055E00088F800100420FEF71FF9052003F05CF88E
:1055F000D548397B01700520FEF716F9052003F028
:1056000053F8D248797B01700620FEF70DF905208A
:1056100003F04AF8CE48B97B01700720FEF704F981
:10562000052003F041F8CB48F97A01700820FEF715
:10563000FBF8052003F038F8C748F97B0170092012
:10564000FEF7F2F8052003F02FF8C448397C01700A
:105650000A20FEF7E9F8052003F026F8C048797C17
:1056600001700B20FEF7E0F8052003F01DF8BD489F
:10567000F97C01700C20FEF7D7F8052003F014F830
:10568000B948397D01700D20FEF7CEF8052003F0F2
:105690000BF8B648797D01700E20FEF7C5F805209D
:1056A00003F002F8F88841BAB14801800F20FEF7F4
:1056B000FBF800E016E0052002F0F6FFAD48B97DEA
:1056C00001701120FEF7B0F8052002F0EDFFAA48A6
:1056D000F97D01701220FEF7A7F8052002F0E4FF23
:1056E000A64806709048A74FC178A54890F800904A
:1056F000494504BF98F80000012865D1DFF828C2A9
:105700009CF8010005285FD1E08A0CEB000A1AF82A
:10571000010CDF2858D121620CF1030015214278D9
:10572000236A491E5A40226210F8023F5A40226200
:1057300011F0FF01F3D12B20E07494F820002062D7
:105740001AF8021C81423FD18F4A0CF104008F4BA2
:1057500000214FF0150C00BF12F801ABBAF1000F99
:105760002AD101F1010A90F800B04FEA0A4A4AEA48
:105770000B2A90F801B04AEA0B0AC3F800A0DFF840
:1057800010A28AF8006097F800A02AF0030A4AF0F5
:10579000010A87F800A0B0F800A09AFA9AFABAF1C4
:1057A000000F09D0DFF8ECA106FA01FBDAF800E0FF
:1057B0004BEA0E0BCAF800B0801C491C1B1DACF153
:1057C000010C1CF0FF0CC7D1574A1078FD2818BFF8
:1057D000BDE8F09FD178704B49450AD15078012837
:1057E0001BD002287CD0042873D00B2872D00C2840
:1057F00071D05078694FDFF8A8C1DFF8A88103287D
:105800006AD0002869D0062868D00A2867D0A22864
:1058100004BF65480670BDE8F09F98F800000028B6
:1058200018BFBDE8F09F25751079604BC35C002B55
:1058300018BFBDE8F09F4140537992F806C0594027
:105840008CEA01016162E48A224412F8022C8A4245
:1058500018BFBDE8F09F010441EA03214B4A41EA29
:105860000C0102EB80020B0442F8041C1B0C18D044
:105870008BB2334909888B4210D2A0F1010006FA9D
:1058800000F14448026841EA02010160387820F0E2
:10589000030040F001003870BDE8F09F98BFBDE8FC
:1058A000F09F27490988A1F1010141EA004142F82E
:1058B000041CA0F1010006FA00F13648026841EA32
:1058C00002010160387820F0030040F001001FE081
:1058D00006E020E072E082E088E09BE0A0E0ABE040
:1058E0002078052809D11D70A67054213048FAF798
:1058F000E2FC2A212F48FAF7DEFC98F80000012884
:1059000018BFBDE8F09F387820F00C0040F004008C
:105910003870BDE8F09F1079401E06FA00F1264865
:10592000026811430160EEE7D108002090010020D9
:10593000300100204201002036010020B401002087
:105940009E01002035010020A1010020A2010020BD
:10595000A3010020A4010020A5010020A601002031
:10596000A7010020A8010020A9010020AA01002011
:10597000AC010020AE010020AF0100209B010020FF
:10598000940100202F0100207A080020A8070020A1
:105990008801002058010020960100209801002075
:1059A00033010020320100209C01002079080020F2
:1059B000FC070020500800208C01002050790128AD
:1059C00007D0002818BFBDE8F09F1079607204204E
:1059D00009E01079607203202073BDE8F09F107910
:1059E000A072E67205202073BDE8F09F154865742B
:1059F000A574057014480670144826703D70057033
:105A00001348258305608CF800501D7088F80050FD
:105A1000BDE8F09F494508BF88F80050BDE8F09FF9
:105A200001291CBF3D70BDE8F09F3E706574A574F0
:105A30008CF80050BDE8F09F908840BA6083BDE8C4
:105A4000F09F000097010020950100203101002007
:105A5000780100202DE9F04FF54C04270025A078AF
:105A6000012806D1F348006818B906202070677035
:105A7000A570DFF8C48398F80010B9B1EF48F04B77
:105A8000002200BFD3F800C02CFA02FC1CF0010F6A
:105A900090F800C00CBF4CF0800C2CF0800C00F88B
:105AA00001CB491E521C11F0FF01EBD1E548E64B3A
:105AB000E64900780126012809D1E54A92ED000A5D
:105AC000B5EEC00AF1EE10FA08BF257011D02278A9
:105AD000062A18BF012A0CD1B3F800C00A78ACEB33
