:020000040800F2
:10000000E03C01205D020008B54B00088942000871
:100010005D4A00084F1700086B87000800000000C9
:100020000000000000000000000000009D0100082A
:10003000DB37000800000000F90100081D5A000825
:100040008787000877020008770200087702000817
:1000500077020008770200088D3C00082D3D00085B
:10006000513D00086F3D00088D3D000877020008F3
:10007000770200087702000877020008770200087C
:10008000770200087702000877020008B11700081D
:10009000511700087702000877020008AD3D0008FC
:1000A000DD5B0008E15B000877020008DF5B000809
:1000B0000D5C0008915D00087702000877020008D7
:1000C0007702000877020008770200087D530008D5
:1000D0007F530008816D0008196E0008816E0008CA
:1000E000AD3C00087702000877020008355E000882
:1000F000435E0008415E00087702000877020008AE
:100100007702000877020008215E0008815300088A
:10011000D96C0008116D000877020008770200080A
:1001200077020008770200087702000877020008CB
:100130007702000877020008770200088924000887
:100140002519000877020008770200080D4E000804
:10015000770200087702000877020008770200089B
:10016000770200087702000877020008770200088B
:10017000770200087702000877020008770200087B
:100180007702000877020008DFF80CD000F086FE46
:1001900000480047A19B0008E03C01202C4B196857
:1001A0000868B0E8F04F80F30988BFF36F8F4FF015
:1001B000000080F3118870470000000008480068C4
:1001C000006880F308884FF0000080F3148862B65E
:1001D00061B6BFF34F8FBFF36F8F00DF00BF00BF6B
:1001E00008ED00E0DFF80C00016841F470010160E7
:1001F000704700BF88ED00E0EFF30980BFF36F8F19
:10020000134B1A681EF0100F08BF20ED108A20E96A
:10021000F04F106009B44FF0010080F31188BFF374
:100220004F8FBFF36F8F0BF091F94FF0000080F309
:10023000118809BC19680868B0E8F04F1EF0100F6B
:1002400008BFB0EC108A80F30988BFF36F8F704746
:1002500010040020EFF30580704700000648804737
:1002600006480047FEE7FEE7FEE7FEE7FEE7FEE79B
:10027000FEE7FEE7FEE7FEE7495A000889010008AD
:1002800040EA01039B0703D009E008C9121F08C018
:10029000042AFAD203E011F8013B00F8013B521E98
:1002A000F9D27047D2B201E000F8012B491EFBD20F
:1002B00070470022F6E710B513460A460446194671
:1002C000FFF7F0FF204610BD30B50546002003467D
:1002D00000E05B1C934205D2EC5CC85C201A01D1A3
:1002E000002CF6D130BD00000FB400B58DB010A9C0
:1002F00009900B9000914FF0FF300A9000200C9075
:1003000005480690054807906A4609A80F9900F02D
:10031000DFFC0DB05DF814FBED0C00080B0D0008C0
:100320002DE9FF5F1D464FF0FF3BD5E901469146A1
:100330005F464FF00008A9697F1C01988847296A29
:10034000824688470028F6D1BAF1FF3F0CD024F44A
:10035000C064002E19DD600614D5BAF12B0F09D048
:10036000BAF12D0F0ED103E0584604B0BDE8F09F5E
:1003700044F48064A9697F1C01988847761E8246F0
:10038000002E02DDBAF1300F03D0B9F1000F26D0F4
:1003900032E0A969761E44F400747F1C01988847F6
:1003A0008246002E05DDBAF1780F06D0BAF1580F5B
:1003B00003D0B9F1000F10D01EE0B9F1000F02D048
:1003C000B9F1100F18D1A969761E24F400747F1CAE
:1003D000019888478246102002E0082000E00A20A9
:1003E000814609E008FB0908A969761E44F40074F7
:1003F0007F1C019888478246002E05DD49465046FD
:1004000000F052FC0028EDDAE96901988847A00560
:1004100002D46FF00100A8E7E00725D1600613D5EC
:10042000600502D5C8F1000000E0404629680A1DB9
:100430002A600968220501D5087015E0220701D558
:10044000088011E008600FE02868011D296000683D
:10045000210502D580F8008006E0210702D5A0F82A
:10046000008001E0C0F8008038467EE72DE9FF4FAC
:10047000087883B09946FF2805D0491C2D2804D060
:100480000024002008E000200BE00124F9E700EB45
:10049000800003EB4000491C0B78FF2BF7D104B11F
:1004A000404200230293147819461D462D2C01D09A
:1004B0002B2C04D1521C2D2C13D000240294AA46BC
:1004C0001478FF2C0FD00A25A3FB057801FB0581CA
:1004D0004FF0000C03FB0C11521CE3194AEB010115
:1004E000EEE70124EAE7814453EA010002D019F55E
:1004F000C87F06DA03980021C0E9001107B0BDE803
:10050000F08F0025AE4E2F46DFF8B882184600F077
:10051000A1FCCDE90001B9F1000002DAC9F1000443
:1005200000E004460023A74A1AEB030B42EB045AEF
:1005300012E0E00707D02A4633463846414600F02D
:10054000ECF9074688462A4633461046194600F01D
:10055000E4F905460E466410002CEAD1DDE90001FD
:10056000B9F1000F5A46534606DA00F048FA3A4607
:10057000434600F044FA05E000F0CFF93A4643461E
:1005800000F0CBF9029A0AB181F00041039AC2E966
:100590000001B3E72DE9FF4F1F468DB0D7E90146B3
:1005A0004FF0FF382E2045464FF000090B90B969F7
:1005B0006D1C0E988847396A824688470028F6D114
:1005C000BAF1FF3F0AD024F4D064002E11DDBAF155
:1005D0002B0F08D0BAF12D0F0BD102E0404611B01D
:1005E0008DE744F48064B9696D1C0E988847824693
:1005F000761E6946600501D52D2000E02B208DF880
:10060000000001F1010B0DF1200809E0B9696D1C32
:100610000E98884782460F9844F40074761E056051
:10062000002E02DDBAF1300FF0D00B998A453ED191
:1006300044F0800406E00F99681CA9F1010944F414
:1006400000740860B9696D1C761E0E988847824652
:100650003028F0D02BE00B998A4505D1200603D431
:1006600044F08004761E18E0504608F035FA08B3CE
:100670000DF11301761E44F400748B4508D2AAF1E3
:1006800030000BF8010B200607D5A9F1010003E0AB
:10069000200602D409F101008146A00502D50F9978
:1006A000681C0860B9696D1C0E9888478246002E48
:1006B000D1DC53E0002E51DDBAF1650F02D0BAF162
:1006C000450F4BD1A00549D5B9696D1C24F4407480
:1006D000761E0E9888478246002E0CDD2B2804D00B
:1006E000BAF12D0F07D144F48074B9696D1C0E98CE
:1006F00088478246761EE00501D52D2100E02B219A
:1007000008F8011BCDF82C8021E00DF12901761E9F
:1007100044F4007488450CD2AAF1300010F0FF00B8
:1007200088F8000002D10B99884509D908F1010821
:1007300006E0E00501D5244801E042F20F70814651
:10074000B9696D1C0E98884782460F980560002E87
:1007500004DD504608F0C0F90028D6D1F9690E989A
:100760008847FF208BF8000088F8000000200690E2
:1007700007904B466A4608A906A8FFF777FEA00532
:1007800002D46FF001002AE714F0240F0AD0E0072A
:1007900014D1DDE906123868031D3B600068C0E92A
:1007A00000120BE0DDE9060100F0EAF90146E0077E
:1007B00004D13868021D3A600068016028460EE7DF
:1007C000000014400000F03FF1D8FFFF2DE9FE4F7C
:1007D000804681EA0300C00F0C46009021F00041E2
:1007E00023F00045B8EB0200A94105D2404621465E
:1007F00090461C460B46024623F00040104347D06B
:10080000270DC7F30A00C3F30A510290401A019062
:1008100040286BDAC3F3130040F4801B0098924623
:1008200020B10023D2EB030A63EB0B0B019859466E
:10083000C0F14002504600F006FA06460D4650460A
:100840005946019A00F01EFA10EB0800614100249D
:1008500087EA115284EAE7731A4340D0009A62B3E0
:10086000019A012A4FEA075215DC001B61EB0201D5
:100870004FF0004202EA0752CDE90042001C41F568
:10088000801132462B4600F097FA03B0BDE8F08F96
:1008900040462146F9E7001B61EB0201001C41F5CF
:1008A000801300185B412018A2F5001747EB0301E5
:1008B00040EAD570B6196D4111E06D084FEA360671
:1008C00045EAC0754FEA0752001B61EB0201001CAC
:1008D00041F5801149084FEA300000195141324674
:1008E0002B4603B0BDE8F04F00F057BA0098012244
:1008F00040000023D0EB020263EBE0730098214636
:100900004FEAE074B8EB000061EB0401E9E783F023
:1009100000435BE781F0004158E72DE9FE4F81EA93
:10092000030404F0004421F0004100944FF0000B58
:1009300023F0004350EA01045ED052EA03045BD086
:10094000C3F30A54C1F30A552C44A4F2F3340194BE
:10095000A0FB0254C1F3130141F48011C3F313034C
:1009600043F4801301FB024400FB034E840A970A00
:1009700044EA815447EA8357A4FB076802958D0A2D
:1009800005FB07854FEA932C04FB0C542705029DB9
:100990004FEA065847EA1637B5EB08056EEB070C29
:1009A000870E920E47EA811742EA8312A7FB0201E3
:1009B000B6EB0B0164EB00042B0D43EA0C335E181D
:1009C00044EB1C50DA465146E7FB0201C5F3130421
:1009D0004FEA0B3343EA14534FEA0432019C43EAD3
:1009E0000603A4F10C040294009CCDE900B400F0CD
:1009F000E3F903B0BDE8F08F00200146F9E72DE9E7
:100A0000F04D81EA030404F0004B21F00045144648
:100A10004FF0000A23F0004150EA050220D054EACA
:100A200001021DD0C5F30A570246C5F31303C1F3F3
:100A30001300C1F30A5640F4801543F48013A7EB6A
:100A40000608101BD64608F2FD3873EB050002D3EA
:100A500008F1010801E092185B41B8F1000F03DAD8
:100A600000200146BDE8F08D00204FF480110646BD
:100A700084460EE0171B73EB050705D3121B63EBCF
:100A8000050306434CEA010C49084FEA300092186E
:100A90005B4150EA0107EDD152EA030012D082EA2D
:100AA000040083EA0501084305D0101BAB4106D2C0
:100AB0000122002306E000224FF0004302E06FF025
:100AC000010253101AEB06004CEB085110EB0A0020
:100AD00041EB0B01BDE8F04D00F05FB90EB540F2FF
:100AE000334102910021CDE900110A460B4600F086
:100AF00063F903B000BDC1F30A5210B5C1F313018D
:100B000040F2FF3341F480119A4201DA002010BD17
:100B100040F233439A42A2F2334203DC524200F0E5
:100B2000A1F810BD904010BD00F0004230F0004030
:100B30000AD0C10D01F56071C0F3160042EA0151FF
:100B4000C20840071143704700200146704700006B
:100B500030B5041E71F1000404DB4FF00044404244
:100B600064EB0101141E73F1000405DB1C464FF019
:100B70000043524263EB0403994208BF904230BDE8
:100B800001F0004330B421F0004150EA010206D0E8
:100B90000A0DA2F56072C1F31301002A02DC30BC19
:100BA00000207047440F44EAC104C100E01830BC83
:100BB00000EBC25000F0BAB830B50B460146002039
:100BC0002022012409E021FA02F59D4205D303FA0F
:100BD00002F5491B04FA02F52844151EA2F1010290
:100BE000F1DC30BD2DE9F05F0546002092469B46C2
:100BF00088460646814640241BE028464146474633
:100C0000224600F02FF853465A46C01A914110D39D
:100C100011461846224600F016F82D1A67EB010817
:100C20004F4622460120002100F00DF817EB000985
:100C30004E41201EA4F10104DFDC484631462A461D
:100C40004346BDE8F09F202A04DB203A00FA02F177
:100C5000002070479140C2F1200320FA03F31943AA
:100C600090407047202A04DB203A21FA02F000214C
:100C7000704721FA02F3D040C2F1200291400843AC
:100C800019467047202A06DBCB17203A41FA02F0BA
:100C900043EAE07306E041FA02F3D040C2F12002D9
:100CA00091400843194670473A2800D2303820F066
:100CB0002002412A01D3A2F13700884201D34FF02C
:100CC000FF3070470268114413780160184670477E
:100CD000D16004495161044911620021116111463A
:100CE00000F0F4B8C50C0008C10E0008426842B11B
:100CF000016811F8013B23B1521EC0E900121846E9
:100D000070470121C160881E704742685AB1C368AC
:100D1000016843B983688B4205D0491E521CC0E963
:100D20000012002070474FF0FF3070470029A8BF25
:100D30007047401C490008BF20F00100704710B404
:100D4000B0FA80FC00FA0CF050EA010404BF10BCB9
:100D5000704749B1CCF1200421FA04F411FA0CF1E6
:100D600018BF012121430843A3EB0C01CB1D4FEA1F
:100D700000614FEA102042BF002010BC704700EB1A
:100D8000C35010440029A4BF10BC7047401C490048
:100D900008BF20F0010010BC704710B5141E73F19D
:100DA000000408DA401C41F1000192185B411A432B
:100DB00001D120F0010010BD2DE9F04D92469B4677
:100DC00011B1B1FA81F202E0B0FA80F2203290461D
:100DD000FFF739FF04460F4640EA0A0041EA0B01DB
:100DE00053465A46084313D0114653EA010019D01E
:100DF000C8F140025046FFF735FF05460E46504603
:100E000059464246FFF71FFF084305D0012004E082
:100E100020463946BDE8F08D0020054346EAE076DD
:100E20002C4337430A986305E40AA0EB080000222C
:100E3000FD0A44EA47540A3002D500200146E9E79A
:100E4000010510196941DDE9084500196941BDE84E
:100E5000F04DA2E70EB540F2334202920022CDE9F6
:100E600000221346FFF7A8FF03B000BDC1F30A52EA
:100E7000C1F3130140F2FF3341F480119A4202DAC8
:100E800000200146704740F233439A42A2F23342B7
:100E900002DC5242FFF7E6BEFFF7D5BE064C074D17
:100EA00006E0E06840F0010394E80700984710343A
:100EB000AC42F6D3FFF76CF98CC50008ACC500084E
:100EC000C0B24FF4F05100F097B900002DE9F34F94
:100ED0008BB04FF0000801F10C000C464FF0010BF5
:100EE00046460DF1080A0190626901210198904778
:100EF000051E2DD0252D2CD0216A8847C0B16269EE
:100F0000012101989047216A88470028F7D1411EA6
:100F100062690198904700E0761CA1690B988847A8
:100F2000216A88470028F7D1E1690B988847DBE7F9
:100F3000A1690B9888470746A84201D1761CD3E7E0
:100F4000E1690B9888477F1C02D1B8F1000F6FD080
:100F500046E1002762693D463946019890472A28B4
:100F600004D162690121019890470125DFF884923C
:100F70006269012101989047A0F130010A290AD243
:100F80004F45E5DC07EB870100EB4107303FDFD43D
:100F900045F01005ECE7E90601D46FF000476C2836
:100FA0000AD04C2814D0682815D06A280DD074288F
:100FB0001CD07A281AD01DE062690121019890475F
:100FC0006C2802D045F0040514E045F002050DE060
:100FD00045F020050AE062690121019890476828E0
:100FE00002D045F0080505E045F40065626901217D
:100FF00001989047C4E9015765283DD019DC58286D
:101000007AD00CDC452837D004DC252826D04128AE
:1010100031D131E046282FD047282CD12CE05B2855
:1010200077D0612828D063287CD0642823D15AE067
:10103000D0E06F2848D008DC66281DD067281BD078
:10104000692821D06E2816D127E0702845D0732852
:1010500068D0752847D078280DD14DE0A1690B984C
:101060008847054625283FF469AFE1690B98884712
:101070006D1C3FF46AAFB3E023466A466FF001008F
:101080000B99FFF787FA9EE045F040006060A807E3
:1010900023464FF0000236D43EE0E8077FF447AF26
:1010A0002068011D21600068290501D506701BE735
:1010B000290701D5068017E7A90703D5F117C0E96D
:1010C000006111E706600FE745F040006060A80787
:1010D00023464FF0080216D41EE040F60E0125EA22
:1010E0000100606016E045F040006060A8072346FC
:1010F0004FF00A0207D40FE045F040006060A807F7
:1011000008D5234610226FF001000B99AFF3008041
:1011100059E007E0234610226FF001000B99FFF71A
:10112000FFF850E04FF000094F464B46632802D0CD
:101130005B2806D040E0E80601D40120A06001272A
:101140003AE062690121019890475E2805D14FF08D
:1011500001096269494601989047216939B900211E
:101160000A46534643F82120491C0829FADBB0B34C
:10117000216969B9C11700EBD16253110AEB8301F0
:1011800022F01F02821A01200B68904003430B607B
:1011900062690121019890475D28E8D1B9F1000FFB
:1011A00009D00020514651F82020D24341F8202098
:1011B000401C0828F7DB02AB224600976FF00100C5
:1011C0000B99AFF3008000280CDA401C08D1BBF16A
:1011D000000F05D04FF0FF300DB0BDE8F08FFFE7F6
:1011E0004046F9E7E90701D108F1010806444FF04C
:1011F000000B79E6CCCCCC0C7F2801D9002208E08A
:10120000064A02EB5002C007127800D1120902F020
:101210000F02012090400840704700004CC50008B4
:1012200070B58C1810F8015B15F0070301D110F8A8
:10123000013B2A1106D110F8012B03E010F8016BD5
:1012400001F8016B5B1EF9D12B0705D40023521E58
:101250000DD401F8013BFAE710F8013BCB1A921CC0
:1012600003E013F8015B01F8015B521EF9D5A142BE
:10127000D8D3002070BD0029816814BF41F001015E
:1012800021F00101816070470849D1F80423084B1F
:101290001A40D0E9003C43EA0C03D0E902C04CEA12
:1012A000000018431043C1F80403704700200140B8
:1012B000E030FCFF0021016041608160C160704747
:1012C0000029816814BF41F4807121F4807181602C
:1012D00070470029816814BF41F4007121F4007146
:1012E0008160704710B4426891F804C022F48072A3
:1012F00022F040720B6842EA0C221A434260826874
:101300000C4B4C791A40D1E903C343EA0C03D1F8E2
:1013100008C04CEA440C43EA0C031A438260C26AD8
:10132000097D22F47002491EC9B242EA0151C1622C
:1013300010BC7047FDF7FFC030B4072409290DD950
:10134000C568A1F10A0C0CEB4C0C04FA0CF425EA6C
:10135000040403FA0CF32343C3600AE0056901EBBC
:10136000410C04FA0CF425EA040403FA0CF32343B9
:1013700003611F23072A0CD2D0F834C0521E02EB9F
:10138000820293402CEA030391401943416330BC2D
:1013900070470D2A0CD2D0F830C0D21F02EB820267
:1013A00093402CEA030391401943016330BC70471A
:1013B000D0F82CC00D3A02EB820293402CEA0303D2
:1013C00091401943C16230BC7047816841F080414F
:1013D0008160704700210160017141718160C160CD
:1013E00001610121017570472DE9FF4F044689B065
:1013F0000C30DDE918A90FC8DDF858B08DE80F00F2
:101400003A4E2168DFF8E880B14208BF4FF0007023
:1014100003D0414508BF4FF0C060012103F014FE26
:10142000344D6068294600F067F82946A06800F04E
:1014300063F82068B04214BF40450921606802F09B
:10144000A5FE2068B04214BF40450921A06802F003
:101450009DFE00258DF81650012717988DF81770FE
:101460008DF812000A988DF813000C9806958DF8E7
:1014700014000B988DF81500ADF810B004A9206881
:1014800001F0F6FA0E2001F0C7FB8DF80A508DF836
:101490000B508DF80C70ADF80050ADF80450ADF85D
:1014A0000250ADF80650ADF808508DF80D70684642
:1014B00001F0D6F901220221206801F0D1FA20685A
:1014C000B04208BF142102D0404508BF40218DF82A
:1014D0001C108DF81DA08DF81E908DF81F7007A8A8
:1014E00003F06AFB0DB0BDE8F08F0000006400401F
:1014F0000068004001000200F0B50546C1F3074056
:1015000083B0002808BF00240AD0012808BF0124A6
:1015100006D0022808BF022402D0032808BF0324F3
:10152000C1F30720002808BF002702D0012808BF08
:10153000012711F0FF0008BF002606D0012808BFD0
:10154000012602D0022808BF02262968A1F18042A4
:10155000B2F5003208BF012037D0A1F18042B2F5C8
:10156000013208BF022030D0A1F18042B2F5023230
:1015700008BF042029D0A1F18042B2F5033208BF90
:10158000082022D0A1F18042B2F5043208BF102019
:101590001BD0A1F18042B2F5053208BF202014D043
:1015A000A1F18042B2F5063208BF40200DD0A1F172
:1015B0008042B2F5073208BF802006D0A1F18042F8
:1015C000B2F5083208BF4FF48070012103F030FDFE
:1015D000686800908DF804408DF8067003208DF83F
:1015E00005008DF807606946286802F071FD03B0B8
:1015F000F0BD2DE9F04184B01C4615460E468046EC
:101600000A9F00F027F80021ADF80050ADF8021055
:10161000ADF8081001966946404604F0D7FC012257
:101620001146404604F031FC0121404604F010FC14
:10163000404604F06CFC8DF80C008DF80D408DF8E0
:101640000E7001208DF80F0003A803F0B5FA04B066
:10165000BDE8F081A0F18041B1F5803143D0B0F117
:10166000804F48D0A0F18041B1F580613FD0A0F11A
:101670008041B1F5006142D0A0F18041B1F54061F7
:1016800041D0A0F18041B1F5805140D0A0F180411E
:10169000B1F5A0513FD0A0F18041B1F582313ED0EB
:1016A000A0F18041B1F5A0313DD0A0F18041B1F56C
:1016B000A2313CD0A0F18041B1F5A4313BD0A0F1E2
:1016C0008041B1F5C0513AD0A0F18041B1F5E0516F
:1016D00039D0A0F18041B1F5005118BF7047012108
:1016E000080203F0B1BC0121084603F0C5BC01218A
:1016F000022003F0A9BC0121084603F0A5BC01218A
:10170000042003F0A1BC0121082003F09DBC0121AD
:10171000102003F099BC0121202003F095BC012189
:10172000022003F0A9BC0121080403F0A5BC01219B
:10173000480403F0A1BC0121880403F09DBC0121F1
:10174000402003F081BC0121802003F07DBCFEE736
:1017500038B5124C0221204601F0FAF8002808BFE3
:1017600038BD0421204601F00FF80D49204600F055
:10177000F1FF0C4A0021204601F0F4F90A48C16942
:101780000C3000910FC803F013FE01F0B5FC0748C0
:10179000D0F8A310491CC0F8A31038BD0064004065
:1017A0000800003200080020F4070020D0040020C8
:1017B00010B5094C0121204601F0CAF8002808BFE5
:1017C00010BD0121204600F0DFFF20460322BDE8C6
:1017D0001040002103F0C2BB0064004010B582B08D
:1017E00008490B20CDE9000100234FF4007206A147
:1017F00008480AF05DFB044608F0CEF9846202B0A6
:1018000010BD0000F407002043414E325F54617365
:101810006B000000AD2400082DE9F04F8BB081462D
:101820001E46174688463D48DDF850A000F0FAFFF6
:10183000684601F007FA0121022003F0F9FB0121BB
:10184000480603F001FC0121880603F0FDFB60203F
:10185000089002208DF8240000248DF826400320F3
:101860008DF82500DFF8B8B001258DF8275008A9BC
:10187000584602F02DFC09220521584602F075FC5D
:1018800009220621584602F070FC8DF806408DF8BA
:1018900008408DF807408DF809508DF802A08DF8AA
:1018A0000A408DF803908DF804708DF80B408DF888
:1018B0000580ADF800606946184801F0D9F80F209E
:1018C00001F0AAF90F208DF816008DF817408DF859
:1018D0001850ADF80C40ADF81040ADF80E40ADF822
:1018E0001240ADF814408DF8195003A800F0B8FF6D
:1018F00001220221094801F0B3F840208DF81C00B4
:1019000004208DF81D008DF81E408DF81F5007A88B
:1019100003F052F90BB0BDE8F08F00000068004002
:101920000004024010B5FF4C86B00221204601F0B1
:101930000FF8002804BF06B010BD0421204600F0B7
:1019400023FFF949204600F005FF6A4600212046A2
:1019500001F008F9F54900980860F548D0F8A3109F
:10196000491CC0F8A3100098400930D0022800F0AC
:101970009381042800F0F68206281CBF06B010BD33
:10198000009800F01F000F2800F0138500F36B840F
:10199000042800F0FA8400F33F84012800F0AC84AE
:1019A00003281CBF06B010BDE2489DF80B1080F85C
:1019B0002C109DF80C1080F82D109DF80D1080F85B
:1019C0002E109DF80E1080F82F1006B010BD009854
:1019D00000F01F000F287DD044DC04287BD018DCE9
:1019E000012879D003281CBF06B010BDD1489DF84E
:1019F0000B1080F820109DF80C1080F821109DF835
:101A00000D1080F822109DF80E1080F8231006B0FB
:101A100010BD092877D00A281CBF06B010BDC548E4
:101A20009DF80B1080F8E8109DF80C1080F8E91074
:101A30009DF80D1080F8EA109DF80E1080F8EB105C
:101A40009DF80F1080F8F8109DF8101080F8F9102C
:101A50009DF8111080F8FA109DF8121080F8FB1014
:101A600006B010BD1D2872D020DC142870D01628B6
:101A70001CBF06B010BDAF489DF80B1001709DF85B
:101A80000C1041709DF80D1081709DF80E10C17002
:101A90009DF80F1001749DF8101041749DF81110FD
:101AA00081749DF81210C17406B010BD1E2873D049
:101AB0001F281CBF06B010BD9E489DF80B1080F873
:101AC00070109DF80C1080F871109DF80D1080F8C2
:101AD000721002E074E060E016E09DF80E1080F8ED
:101AE00073109DF80F1080F880109DF8101080F88A
:101AF00081109DF8111080F882109DF8121080F866
:101B0000831006B010BD24E08A489DF80B1080F8C1
:101B1000A0109DF80C1080F8A1109DF80D1080F811
:101B2000A2109DF80E1080F8A3109DF80F1080F8F9
:101B3000B0109DF8101080F8B4109DF8111080F8C6
:101B4000B8109DF8121080F8BC1006B010BD6DE002
:101B50008FE078489DF80B1080F808119DF80C1064
:101B600080F809119DF80D1080F80A119DF80E10EB
:101B700080F80B119DF80F1080F818119DF81010C7
:101B800080F819119DF8111080F81A119DF81210A3
:101B900080F81B1106B010BD35E066489DF80B10AB
:101BA00080F830109DF80C1080F831109DF80D1061
:101BB00080F832109DF80E1080F8331006B010BD7A
:101BC0005C489DF80B1080F838119DF80C1080F8D7
:101BD00039119DF80D1080F83A119DF80E1080F81B
:101BE0003B119DF80F1080F848119DF8101080F8F7
:101BF00049119DF8111080F84A119DF8121080F8D3
:101C00004B1106B010BD4B489DF80B1080F86010CA
:101C10009DF80C1080F861109DF80D1080F862108E
:101C20009DF80E1080F8631006B010BD41489DF875
:101C30000B1080F840109DF80C1080F841109DF8B2
:101C40000D1080F842109DF80E1080F843109DF89A
:101C50000F1080F850109DF8101080F851109DF86A
:101C6000111080F852109DF8121080F8531006B031
:101C700010BD30489DF80F1080F828119DF8101005
:101C800080F829119DF8111080F82A119DF8121082
:101C900080F82B1106B010BD009800F01F000F282F
:101CA00074D04FDC042872D018DC012870D00328CF
:101CB0001CBF06B010BD1F489DF80B1080F8241003
:101CC0009DF80C1080F825109DF80D1080F8261056
:101CD0009DF80E1080F8271006B010BD09287CD0A2
:101CE0000A281CBF06B010BD12489DF80B1080F8E2
:101CF000EC109DF80C1080F8ED109DF80D1080F898
:101D0000EE109DF80E1080F8EF109DF80F1080F87F
:101D1000FC109DF8101080F8FD109DF8111080F84F
:101D2000FE1009E0006800400800003214000020A6
:101D3000D0040020810500209DF8121080F8FF10CB
:101D400006B010BD1D286ED023DC14286CD01628D8
:101D50001CBF06B010BDFB489DF80B1001719DF82B
:101D60000C1041719DF80D1081719DF80E10C1711C
:101D70009DF80F1001759DF8101041759DF8111018
:101D800081759DF81210C17506B010BD82E06EE03D
:101D900027E01E287DD01F28F6D1EA489DF80B10B9
:101DA00080F874109DF80C1080F875109DF80D10D7
:101DB00080F876109DF80E1080F877109DF80F10BF
:101DC00080F884109DF8101080F885109DF811108F
:101DD00080F886109DF8121000E026E080F8871049
:101DE000D2E7D8489DF80B1080F8A4109DF80C108D
:101DF00080F8A5109DF80D1080F8A6109DF80E1023
:101E000080F8A7109DF80F1080F8B1109DF8101001
:101E100080F8B5109DF8111080F8B9109DF81210D7
:101E200080F8BD10B0E769E08AE0C6489DF80B1065
:101E300080F80C119DF80C1080F80D119DF80D1014
:101E400080F80E119DF80E1080F80F119DF80F10FC
:101E500080F81C119DF8101080F81D119DF81110CC
:101E600080F81E119DF8121080F81F118CE7B548FC
:101E70009DF80B1080F834109DF80C1080F8351088
:101E80009DF80D1080F836109DF80E1080F8371070
:101E90007AE721E0AB489DF80B1080F83C119DF8E3
:101EA0000C1080F83D119DF80D1080F83E119DF842
:101EB0000E1080F83F119DF80F1080F84C119DF81E
:101EC000101080F84D119DF8111080F84E119DF8FA
:101ED000121080F84F1157E79A489DF80B1080F8C0
:101EE00064109DF80C1080F865109DF80D1080F8B6
:101EF00066109DF80E1080F8671045E791489DF830
:101F00000B1080F844109DF80C1080F845109DF8D7
:101F10000D1080F846109DF80E1080F847109DF8BF
:101F20000F1080F854109DF8101080F855109DF88F
:101F3000111080F856109DF8121080F8571023E702
:101F400080489DF80F1080F82C119DF8101080F833
:101F50002D119DF8111080F82E119DF8121080F8A7
:101F60002F1111E7009800F01F000F287ED040DCF1
:101F700004287CD016DC01287AD003287FF404AF33
:101F800070489DF80B1080F828109DF80C1080F810
:101F900029109DF80D1080F82A109DF80E1080F879
:101FA0002B10F1E6092871D00A287FF4EDAE6548C0
:101FB0009DF80B1080F8F0109DF80C1080F8F110CF
:101FC0009DF80D1080F8F2109DF80E1080F8F310B7
:101FD0009DF80F1080F800119DF8101080F8011185
:101FE0009DF8111080F802119DF8121080F803116D
:101FF000CAE61D287DD01EDC14287BD016287FF46D
:10200000C3AE50489DF80B1001729DF80C10417240
:102010009DF80D1081729DF80E10C1729DF80F1081
:1020200001769DF8101041769DF8111081769DF88B
:102030001210C176A8E61E2870D01F287FF4A4AE27
:1020400040489DF80B1080F878109DF80C1080F82F
:1020500079109DF80D1080F87A109DF80E1080F818
:102060007B109DF80F1080F8881002E06CE056E0BD
:102070000DE09DF8101080F889109DF8111080F87F
:102080008A109DF8121080F88B107DE621E02D4813
:102090009DF80B1080F8A8109DF80C1080F8A9107E
:1020A0009DF80D1080F8AA109DF80E1080F8AB1066
:1020B0009DF80F1080F8B2109DF8101080F8B6103F
:1020C0009DF8111080F8BA109DF8121080F8BE101B
:1020D0005AE61C489DF80B1080F810119DF80C1062
:1020E00080F811119DF80D1080F812119DF80E1056
:1020F00001E05DE07EE080F813119DF80F1080F89C
:1021000020119DF8101080F821119DF8111080F811
:1021100022119DF8121080F8231135E636E00948A7
:102120009DF80B1080F838109DF80C1080F83910CD
:102130009DF80D1080F83A109DF80E1080F83B10B5
:1021400022E6000081050020CE489DF80B1080F8A3
:1021500040119DF80C1080F841119DF80D1080F889
:1021600042119DF80E1080F843119DF80F1080F871
:1021700050119DF8101080F851119DF8111080F841
:1021800052119DF8121080F85311FDE5BD489DF8DD
:102190000B1080F868109DF80C1080F869109DF8FD
:1021A0000D1080F86A109DF80E1080F86B10EBE5AA
:1021B000B4489DF80B1080F848109DF80C1080F87A
:1021C00049109DF80D1080F84A109DF80E1080F807
:1021D0004B109DF80F1080F858109DF8101080F8E3
:1021E00059109DF8111080F85A109DF8121080F8BF
:1021F0005B10C9E5A3489DF80F1080F830119DF8D9
:10220000101080F831119DF8111080F832119DF8EE
:10221000121080F83311B7E509287DD00A287FF421
:10222000B3AD98489DF80B1080F8F4109DF80C1091
:1022300080F8F5109DF80D1080F8F6109DF80E103E
:1022400080F8F7109DF80F1080F804119DF8101019
:1022500080F805119DF8111080F806119DF81210F4
:1022600080F8071190E51D287ED01EDC14287CD054
:1022700016287FF489AD83489DF80B1001739DF8F3
:102280000C1041739DF80D1081739DF80E10C173F1
:102290009DF80F1001779DF8101041779DF81110EF
:1022A00081779DF81210C1776EE51E287DD01F281A
:1022B0007FF46AAD73489DF80B1080F87C109DF890
:1022C0000C1080F87D109DF80D1080F87E109DF8A0
:1022D0000E1080F87F109DF80F1080F88C109DF87C
:1022E000101080F88D109DF8111080F88E109DF858
:1022F000121080F88F1047E562489DF80B1080F8A7
:10230000AC109DF80C1080F8AD109DF80D1080F801
:10231000AE109DF80E1000E012E080F8AF109DF8AE
:102320000F1080F8B3109DF8101080F8B7109DF8CA
:10233000111080F8BB109DF8121080F8BF1023E533
:1023400050489DF80B1080F814119DF80C1080F87F
:1023500015119DF80D1080F816119DF80E1080F8DB
:1023600017119DF80F1001E057E078E080F8241174
:102370009DF8101080F825119DF8111080F8261195
:102380009DF8121080F82711FEE43E489DF80B10CE
:1023900080F83C109DF80C1080F83D109DF80D1051
:1023A00080F83E109DF80E1000E024E080F83F1009
:1023B000EAE434489DF80B1080F844119DF80C10A5
:1023C00080F845119DF80D1080F846119DF80E100B
:1023D00080F847119DF80F1080F854119DF81010E7
:1023E00080F855119DF8111080F856119DF81210C3
:1023F00080F85711C8E423489DF80B1080F86C1042
:102400009DF80C1080F86D109DF80D1080F86E107E
:102410009DF80E1080F86F10B6E41A489DF80B1066
:1024200080F84C109DF80C1080F84D109DF80D10A0
:1024300080F84E109DF80E1080F84F109DF80F1088
:1024400080F85C109DF8101080F85D109DF8111058
:1024500080F85E109DF8121080F85F1094E409482F
:102460009DF80F1080F834119DF8101080F8351188
:102470009DF8111080F836119DF8121080F8371170
:1024800082E400008105002010B5074C01212046A0
:1024900000F05EFA002808BF10BD01212046BDE80B
:1024A000104000F071B900000068004082B009F0EF
:1024B000D3FD934E00250090924F934C357101212E
:1024C000684608F003FF3079002804BF012030710E
:1024D00004F06AF901F082F902F048F98B480078BB
:1024E00000288B4801780CBF41F0010121F0010167
:1024F0000170884890ED000AB5EEC00AF1EE10FABE
:1025000016D0854801688548884281490A78D4BF39
:1025100022F0020242F002020A70814909688142F7
:102520007B480178B4BF41F0040121F0040101703F
:102530007C487A49006888427EDD7B480088401CE0
:102540001FFA80FB7848A0F800B03888401C1FFABA
:1025500080FA7648A7F800A00188491C1FFA81F983
:10256000A0F8009072480188491C1FFA81F8A0F871
:10257000008070480188491C1FFA81FCA0F800C047
:102580006D480188491C8BB203806C480188491C46
:102590008AB202806A480188491C89B20180694870
:1025A000D0F830E2BEF1000F1CBFDFF87CB1ABF811
:1025B00000504BD0DFF890B1DBF83CB2BBF1000F1C
:1025C00018BF3D804ED000BFD0F800A2BAF1000F76
:1025D0001CBFDFF85891A9F800504FD0D0F83C92BA
:1025E000B9F1000F1CBFDFF84881A8F8005051D0A6
:1025F000DFF85881D8F80C82B8F1000F1CBFDFF863
:1026000034C1ACF8005051D0DFF844C1DCF808C246
:10261000BCF1000F1CBF484B1D8053D0D0F838329E
:10262000002B1CBF454A158056D000BFD0F834029D
:10263000002818BF424800E002E018BF058055D0CE
:10264000D6F80510491CC6F8051038E7BBF52F7FF2
:1026500094F800B02CBF4BF0010B2BF0010B84F869
:1026600000B0A7E7BAF52F7F94F800A02CBF4AF07E
:10267000020A2AF0020A84F800A0A5E7B9F52F7F24
:1026800094F800902CBF49F0040929F0040984F85B
:102690000090A3E7B8F52F7F94F800802CBF48F096
:1026A000080828F0080884F80080A1E7BCF52F7F0F
:1026B00094F800C02CBF4CF0100C2CF0100C84F8D7
:1026C00000C0A1E7B3F52F7F23782CBF43F0200390
:1026D00023F020032370A1E7B2F52F7F22782CBFCF
:1026E00042F0400222F0400222709FE72078B1F5CC
:1026F0002F7F2CBF40F0800020F0800020709FE7EB
:10270000F407002098020020950200205D010020BF
:102710004402002064020020B40100200000F041C7
:102720000C020020B0010020960200209A02002036
:102730009C0200209E020020A0020020A202002095
:10274000A4020020000041420000404200804042BC
:10275000008041420B4A914202BF002181617047D3
:10276000C1F3130211F0007F1CBFC260704711F06B
:10277000806F1CBF0261704711F0006F14BF826050
:10278000426070477000F03010B4082304224FF00C
:10279000100CB1F5007F40D021DC202902BF03617D
:1027A00010BC704710DC012901BF1D49816010BCBD
:1027B0007047042902BFC36010BC7047082908BFD6
:1027C000C0F80CC010BC7047402902BFC0F810C050
:1027D00010BC7047B1F5807F1FD010BC704700243B
:1027E000B1F5004F08D00BDCB1F5806F15D0B1F515
:1027F000006F1CBF10BC70478461426010BC704702
:10280000B1F5803F02BF436010BC7047B1F5003F97
:1028100008BFC0F804C010BC7047426010BC7047CD
:1028200001010100A0F1804110B5B1F5C8414FF0A0
:10283000010109D0880602F013FCBDE81040002118
:102840004FF0806002F00CBC4FF0007002F008FC0A
:10285000BDE8104000214FF0007002F001BC000004
:1028600030B4817A354B012202FA01F11A6842F044
:1028700001021A60DFF8C8C0DCF800208A43CCF8F7
:102880000020047B2F4AD4B914688C431460448818
:10289000C58844EA0544857AED0005F1804505F5D3
:1028A000C045C5F840460488858844EA0544857AD1
:1028B000ED0005F1804505F5C045C5F84446047BAB
:1028C000012C18D114680C431460847A0268E40067
:1028D00004F1804404F5C0444FEA3242C4F8402673
:1028E000847A4268E40004F1804404F5C0444FEA6D
:1028F0003242C4F84426C47A134A002C14680CBF30
:102900008C430C4314600489104A14B914688C4336
:1029100014600489012C02D114680C431460407BBC
:10292000012804D1DCF800000843CCF80000186846
:1029300020F00100186030BC7047000000660040C5
:102940001C6600400C6600400466004014660040AF
:102950000246002053690B4208BF7047B1F5807FE3
:1029600064D01CDC082949D00CDC012938D00229AC
:102970003ED0042918BF7047D168002011F0080F1D
:1029800034D1704710293FD0202943D0402918BFA7
:1029900070471169002011F0100F27D17047B1F571
:1029A000004F55D00FDCB1F5007F45D0B1F5806FF9
:1029B00048D0B1F5006F18BF70479169002011F041
:1029C000700F13D17047B1F5803F29D0B1F5003FAA
:1029D00018BF70475168002011F0100F06D17047E2
:1029E00091681E4A0020114208BF704701207047BD
:1029F000D168002011F0030FF8D17047D168002092
:102A000011F0100FF2D170471169002011F0030F7F
:102A1000ECD170471169002011F0080FE6D1704722
:102A20005168002011F0080FE0D170479169002033
:102A300011F0010FDAD170479169002011F0020FF7
:102A4000D4D170479169002011F0040FCED17047A6
:102A50005168002011F0040FC8D170470101010036
:102A6000002A426914BF114322EA01014161704703
:102A70000268002322F002020260026842F00102B2
:102A800002604FF6FF7200BFD0F804C01CF0010FC7
:102A900003D1934218BF5B1CF6D1436813F0010FBA
:102AA0005DD08B79012B03680CBF43F0800323F0CA
:102AB00080030360CB79012B03680CBF43F0400314
:102AC00023F0400303600B7A012B03680CBF43F033
:102AD000200323F0200303604B7A012B03680CBF13
:102AE00043F0100323F0100303608B7A012B03687B
:102AF0000CBF43F0080323F008030360CB7A012BDB
:102B000003680CBF43F0040323F0040303608B78D5
:102B100091F803C04FEA837343EA0C6391F804C051
:102B200043EA0C4391F805C0098843EA0C53A1F12C
:102B3000010143EA0101C161016821F00101016065
:102B40004FF00001436813F0010F1CBF9142491C74
:102B5000F8D1406810F0010F04BF012070474FF01A
:102B60000000704700EB0113D3F8B0C11CF0040C57
:102B700082F808C0D3F8B0C107BF4FEA5C5CC2F866
:102B800000C04FEADC0CC2F804C0D3F8B0C10CF0AE
:102B9000020C82F809C0D3F8B4C10CF00F0C82F813
:102BA0000AC0D3F8B4C14FEA1C2C82F813C0D3F882
:102BB000B8C182F80BC0D3F8B8C14FEA1C2C82F818
:102BC0000CC0D3F8B8C14FEA1C4C82F80DC0D3F842
:102BD000B8C14FEA1C6C82F80EC0D3F8BCC182F8B1
:102BE0000FC0D3F8BCC14FEA1C2C82F810C0D3F838
:102BF000BCC14FEA1C4C82F811C0D3F8BC311B0E8B
:102C0000937421B1016941F0200101617047C168ED
:102C100041F02001C160704709490A6842F0010291
:102C20000A600A6822F4877222F478520A600A68FD
:102C300042EA00200860086820F001000860704740
:102C40000066004000218171C17101724172817280
:102C5000C1728170C1700321017102214171012192
:102C60000180704710B402460020936813F0806F13
:102C70003FD000BF02EB0012D2F8803103F0010315
:102C8000C2F880310B7A002B42D0D2F880C14C6858
:102C90004CEA030391F809C04CEAC40C43EA0C0364
:102CA000C2F880318B7A03F00F038B72D2F8843133
:102CB00023F00F03C2F88431D2F8843191F80AC0AE
:102CC00043EA0C03C2F88431CB7AD1F80CC043EA52
:102CD0000C23C2F88831CB7B096943EA0121C2F891
:102CE0008C11D2F8801141F00101C2F8801110BCA2
:102CF0007047906810F0006F18BF0120BAD190683B
:102D000010F0805F14BF02200420B3D110BC7047C4
:102D1000D2F8803191F809C043EA0C03B1F800C041
:102D200043EA4C53BCE700001A4A002904BF8068FC
:102D3000194907D0012904BF8068184902D0022927
:102D400002D022E0084002E0806815490840A0F166
:102D50000061A1F58071904215D008DCA8B16FF038
:102D60008061401808BF7047022810D00BE0B1F511
:102D7000007F0CD0A1F10060B0F57F4008BF704724
:102D8000B0F5003F03D000207047022070470120BB
:102D90007047000000010008030000040003000861
:102DA000000003102DE9F047534C86B0207C401CF6
:102DB00010F0FF00207404BF06B0BDE8F0874F4854
:102DC00000260178491CC9B20170152988BF067018
:102DD00060784B4F4FF0530940F6FF7828B1082038
:102DE00000F0AAF86078002843D18DF80860082028
:102DF0008DF809608DF80A004248CDF80090002552
:102E000000788DF80B0040488DF80C60694600781A
:102E10008DF80D003D488DF80E6000788DF80F009C
:102E20003B4800788DF810003A4800788DF8110082
:102E30008DF812603846FFF715FF82465146384636
:102E4000FFF772FF20B945453CBF681C85B2F5D33A
:102E50003148267106603148E670067030480670C9
:102E60003048668306603048067030480670304847
:102E70000670207C02283CBF06B0BDE8F087082021
:102E80008DF808608DF80960CDF800908DF80A0083
:102E9000607B00258DF80B00032804BF6673A07AC1
:102EA00004D0052804BF6673E07A01D18DF80C00C8
:102EB00020488DF80D608DF80E600068010C8DF8CB
:102EC0000F10010A8DF810108DF8110001208DF8F7
:102ED000120069463846FFF7C5FE81464946384626
:102EE000FFF722FF20B945453CBF681C85B2F5D3EA
:102EF000267406B0BDE8F087440200202C020020B2
:102F000000640040640100202E0200203C020020EA
:102F10003002002063010020B80100205C01002085
:102F20005F010020DC01002061010020250200205B
:102F3000600100201C020020F0B585B000248DF84F
:102F400008408DF809408DF80A002C485221009164
:102F500090ED000A2146BCEEC00A10EE100A8DF872
:102F60000B00274840788DF80C0026480368264857
:102F7000002B027822F0030218BF42F00102027017
:102F8000224A1278D34013F0010F0ED000788DF84A
:102F90000D001F4850F822008DF81000010C8DF82C
:102FA0000E10010A8DF80F1007E08DF80D108DF846
:102FB0000E108DF80F108DF8101010EE100A164E2E
:102FC0008DF811001348694600788DF812003046DC
:102FD000FFF748FE074640F6FF7539463046FFF7D3
:102FE000A3FE20B9AC423CBF601C84B2F5D3AC4216
:102FF0002CBF0120002005B0F0BD0000B001002072
:1030000044020020B80100205C0100202C020020B6
:10301000A0080020DC010020006400402B4830B4F0
:10302000C18E2B482B4B2C4C00880122081A002102
:10303000DFF8A8C0142808DB9FED290A83ED000AF9
:103040002170CCF8942230BC7047A0F10F05052DFB
:1030500008D29FED240A83ED000A2170CCF8942257
:1030600030BC7047A0F10A05052D08D29FED1E0A5D
:1030700083ED000A2170CCF8942230BC7047451FC4
:10308000052D08D29FED190A83ED000A2170CCF8B6
:10309000942230BC7047451E042D08D2B3EE040ABA
:1030A00083ED000A2170CCF8942230BC70470128CF
:1030B000A4BF30BC70470E489FED0E0A027083ED2E
:1030C000000ACCF8941230BC704700005401002074
:1030D0005E020020640200204B02002000004042FB
:1030E000000034430000C84200007042000020424B
:1030F0005A020020000000008C49C878012818BF3F
:1031000070472DE9F04F85B000278F74D1E91B403F
:10311000D1F848C00190D1E919300090C8790290E7
:103120008348B1F8289091F810A0027890F803B085
:10313000B0F80180CE6FCDF81080808802F00F05C6
:1031400002F0F0080390887C421C944507D1794F27
:103150004FF0000907F800B0012787403E43BAF15D
:10316000000F06D0944542D1022D5ED0032D73D0BE
:103170008BE0012D21D0022D08BF944537D1DFF817
:10318000B8E11EF8007007F10107FFB20EF80070F9
:103190004FF0010E0EFA00FE23EA0E03012F35D088
:1031A000DFF894E1EE2F24BFEE270EF80070002721
:1031B000DFF888E10EF8007067E0944565D15F4F55
:1031C00017F800E00EF1010E0EF0FF0E07F800E018
:1031D000BEF1010F0CD0BEF1EE0F24BF4FF0EE0E8A
:1031E00007F800E00027DFF850E10EF800704CE02F
:1031F000012707FA00FE0297009F4EEA0707DFF853
:1032000040E1009700278EF80070EBE70F7A23EA81
:103210000E0327F0030747F002070F727746DDF829
:1032200000E02EEA07070097C1E7DFF80CE11EF87F
:1032300000707F1CFFB20EF800704FF0010E0EFA06
:1032400000FE23EA0E03012F07D0DFF8ECE0EE2F9B
:1032500028BFEE27AED218E00BE00F7A27F0030765
:1032600047F002070F727746DDF804E047EA0E07E1
:103270000AE0DFF8C4E000270EF80070012707FA23
:1032800000FE019F27EA0E070197B8F1100F2AD020
:10329000B8F1200F08BF944512D10F7ADFF8A4E0EF
:1032A00027F00C0747F008070F724FF0010707FAE5
:1032B00000F724EA07044FF0000700BF0EF8007083
:1032C000D0B288741528FFF43EAFCC6601984B66E7
:1032D0000867009888660298C871CE67A1F82890A0
:1032E00005B0BDE8F08F9445EAD1DFF858E01EF84C
:1032F00000707F1CFFB20EF80070012F04D0EE2F7B
:1033000028BFEE27DAD2DBE7049FDFF83CE07FBA84
:103310004EF82070039F0EF1540E7FBA2EF81070F5
:10332000012707FA00F00443CAE700005401002017
:10333000EB010020720900208A0900209F0900206B
:103340004D020020B4090020F40800200A4611F0C4
:10335000800F01F07F0310B503EB830100EBC10187
:1033600014BF01F58E7101F55D710B70D2094A70C1
:1033700005F072F8002010BD10B50A4611F0800F5C
:1033800001F07F0314BF03EB830102EB820100EB2A
:10339000C10114BF01F58E7101F55D714FF0000C94
:1033A00081F802C00B70D2094A7005F03EF8002087
:1033B00010BD70B58C4611F0800F01F07F0404EB56
:1033C000840100EBC10114BF01F58E7101F55D713F
:1033D0000C705FEADC1C81F801C08A60CB7018BFFA
:1033E000CC80022B04BF00220A7104F0EFFF002002
:1033F00070BD01F07F0C0CEB8C0110B500EBC1012E
:10340000C1F88833C1F880230023C1F88C3381F8D8
:10341000753381F874C3C37801F55D71012B08BF62
:103420000A611CF0FF0F03D005F050F8002010BD1A
:1034300004F057FFFAE70069002261F30A120168FD
:1034400011430160704710B50A4611F0800F01F07A
:103450007F0314BF03EB830102EB820100EBC10188
:1034600014BF01F58E7101F55D714FF0010C81F80B
:1034700002C00B70D2094A7005F00EF8002010BD92
:1034800011F07F0C10B50CEB8C0100EBC1014FF07B
:10349000010481F81D4181F81CC1C1F82821C1F83F
:1034A0002C2101F58E714FF00002C1E9053203D0E5
:1034B00005F00CF8002010BD04F013FFFAE700003F
:1034C000064A904234BF0648064811F0005F064A9B
:1034D00001EA020114BFC1608160704710640240BC
:1034E00000600240006402407D0F7D0F00290168EA
:1034F00014BF41F0010121F001010160704700009B
:1035000010B5174C90B0204600F032F84FF0006034
:1035100000901448019014480021CDE9020140F2C6
:103520003240CDE904012015CDE906018010CDE936
:1035300008104002CDE90A010120CDE90C010E91ED
:103540006946204600F0FCF801212046FFF7CEFF37
:1035500001224021054803F0BEFC10B010BD000060
:103560008860024004440040C90900200044004033
:103570002DE9F003016821F00101016000210160E3
:1035800041608160C160016121214161434A3D2464
:103590004349904202BF8C60BDE8F0037047414A46
:1035A0004FF47465904202BF8D60BDE8F003704730
:1035B0003D4A4FF47418904202BFC1F80880BDE83C
:1035C000F0037047394A4FF07466904202BF8E6034
:1035D000BDE8F0037047364B364A984202BFCA60D6
:1035E000BDE8F0037047DFF8D0C0344B604502BF40
:1035F000CB60BDE8F0037047314FDFF8C8C0B84278
:1036000002BFC1F80CC0BDE8F0037047DFF8B89006
:103610004FF03D57484502BFCF60BDE8F00370470B
:10362000DFF8A8902A49484502BF0C60BDE8F003C6
:103630007047284CA04202BF0D60BDE8F003704700
:10364000254CA04202BFC1F80080BDE8F0037047DE
:10365000224CA04202BF0E60BDE8F0037047204C30
:103660002049A04202BF0A60BDE8F00370471E4A2D
:10367000904202BF0B60BDE8F00370471B4A9042C6
:1036800002BFC1F800C0BDE8F0037047184A90427D
:1036900008BF0F60BDE8F0037047000010600240F3
:1036A00000600240286002404060024058600240D2
:1036B000706002403D00002088600240400F002002
:1036C000A060024000003D20B8600240106402404B
:1036D000086402402864024040640240586402408A
:1036E000706402400C64024088640240A06402409E
:1036F000B864024001460020096811F0010F18BFAC
:1037000001207047406880B2704700000246084BB5
:1037100000209A4234BF074A074A11F0005F14BFE5
:1037200052681268054B1A400A4218BF01207047C0
:103730001064024000600240006402407D0F7D0F73
:1037400010B402681B4BD1F80CC01A400B6843EA56
:103750000C03D1E905C44CEA040C43EA0C03D1F88C
:103760001CC043EA0C03D1F820C043EA0C03D1F893
:1037700024C043EA0C03D1F828C043EA0C03D1F873
:1037800034C043EA0C03D1F838C043EA0C031A43AF
:1037900002604269D1E90B3C22F0070243EA0C03C4
:1037A0001A4342610A6942604A6882608968C1605E
:1037B00010BC70473F801CF00021016041608160B7
:1037C000C160016141618161C161016241628162E7
:1037D000C162016341638163704770472DE9F04125
:1037E000494C00252046E17C01264078012902D081
:1037F000032959D019E0012817D1444FC7F8A05226
:10380000607C401CC0B26074152888BF6674617CFF
:10381000132000F0DDF9052006F04CF8C7F8A0628F
:10382000132000F0B5F86074E574A08B4CF6CD4120
:103830004143374AC90CA2FB01C3DB085B4203EBDF
:10384000830301EB4301A2FB0032D208524202EB98
:10385000820200EB42024AF2D73300FB0330637866
:103860002C4D4FEA905C89B292B205F10F00012B0A
:1038700022D0022B33D0032B18BFBDE8F081264B9A
:103880001B88A38310F80C30445C855C19466820C3
:1038900004F07AFF21466A2004F076FF2946BDE84D
:1038A000F0416C2004F070BF401CC0B2607003286F
:1038B00088BF6670E574B8E7637CA383EB78445CEB
:1038C000855C1946682004F05FFF21466A2004F0F9
:1038D0005BFF2946BDE8F0416C2004F055BFB4F809
:1038E0008830A3832B79445C855C1946682004F0FA
:1038F0004BFF21466A2004F047FF2946BDE8F0410E
:103900006C2004F041BF0000540100200000404240
:10391000CDCCCCCCE40100205E020020F0B583B019
:103920000121022001F0A8FB01258DF8045000249C
:1039300080208DF806400326134F00908DF8056017
:103940008DF807406946384600F0C2FB8DF80450F8
:1039500010208DF8065000908DF805608DF8074016
:103960006946384600F0B4FB8DF8045028028DF803
:10397000064000908DF805608DF8074069460348C1
:1039800000F0A6FB03B0F0BD0004024000000240BE
:103990002DE9F041044600F0A3F8002808BFBDE877
:1039A000F081A02000F06EF800F0E6F8002851D079
:1039B000204600F067F800F0DFF800F091F8A12051
:1039C00000F060F800F0D8F8254E002410213046B1
:1039D00000F02DFC234F07256006040E80213046A1
:1039E00000F023FC032005F073FF8021304600F037
:1039F0001EFC032005F06CFF386810F0100F18BF94
:103A000044F00104691ECDB2E6D28021304600F0B8
:103A10000CFC8021304600F008FC032005F058FF24
:103A20001021304600F003FC032005F051FF8021F7
:103A3000304600F0FCFB032005F04AFF80213046B1
:103A400000F0F3FB032005F043FF00F073F820467D
:103A5000BDE8F08100F06EF80020BDE8F0810000C4
:103A6000000402401004024070B50446401CC0B27D
:103A7000FFF78EFF05462046FFF78AFF05EB002083
:103A800080B270BD70B5154E0546072480213046C2
:103A900000F0CBFB032005F01BFF15F0800F4FF06B
:103AA0001001304602D000F0C2FB01E000F0BDFB87
:103AB0006806050E032005F00BFF8021304600F05C
:103AC000B6FB032005F004FF611ECCB2DED2304607
:103AD000BDE87040802100F0A8BB00000004024057
:103AE00070B5124D1021284600F0A1FB8021284618
:103AF00000F09DFB032005F0EBFE0D4C206810212B
:103B0000284600F092FB032005F0E2FE206810F04A
:103B1000100F1CBF002070BD1021284600F085FB4F
:103B2000032005F0D5FE012070BD00000004024016
:103B30001004024010B50F4C8021204600F075FBA8
:103B4000032005F0C5FE1021204600F06EFB032087
:103B500005F0BEFE8021204600F069FB032005F041
:103B6000B7FE1021204600F062FBBDE810400320A4
:103B700005F0AEBE0004024010B5134C8021204673
:103B800000F053FB032005F0A3FE1021204600F0B7
:103B90004EFB032005F09CFE8021204600F047FBF1
:103BA000032005F095FE094800684FF0800110F0F1
:103BB000100F204603D000F038FB002010BD00F0AD
:103BC00034FB012010BD000000040240100402403C
:103BD00070B50C460546FFF783FF002808BF70BD8F
:103BE000A020FFF74FFFFFF7C7FF68B12846FFF798
:103BF00049FFFFF7C1FF2046FFF744FFFFF7BCFF77
:103C0000FFF798FF012070BDFFF794FF002070BD03
:103C10002DE9F0410446401C0D46C7B2CEB2FFF775
:103C20005FFF88B1A020FFF72DFFFFF7A5FF38B396
:103C30003846FFF727FFFFF79FFF3046FFF722FFC9
:103C4000FFF79AFFFFF776FF052005F033FE2D0AF8
:103C5000FFF746FF88B1A020FFF714FFFFF78CFFA6
:103C600088B12046FFF70EFFFFF786FF2846FFF7D3
:103C700009FFFFF781FFFFF75DFF0120BDE8F0813D
:103C8000FFF758FFE0E7FFF755FFF6E710B5012013
:103C900000F0ECF8002808BF10BD012000F098F8F3
:103CA000BDE81040012000F099B8000010B50A20CE
:103CB00005F000FE1748D0F8300228BB164800680F
:103CC000012804D002280CD0032814D01CE013488B
:103CD000F5EE000A90ED000A30EE200A80ED000AB1
:103CE00012E00F48F6EE000A90ED000A30EE200ACE
:103CF00080ED000A08E00B48DFED0B0A90ED000AAA
:103D000030EE200A80ED000ABDE810404FF48050EC
:103D100000F064B800804142040000200C00002044
:103D20001000002008000020CDCC4C3D10B5022032
:103D300000F09CF8002808BF10BD04480168491C29
:103D40000160BDE81040022000F048B804020020E5
:103D500010B5042000F08AF8002808BF10BD042028
:103D600000F036F8BDE81040042000F037B810B578
:103D7000082000F07BF8002808BF10BD082000F0E4
:103D800027F8BDE81040082000F028B810B5102032
:103D900000F06CF8002808BF10BD102000F018F8E3
:103DA000BDE81040102000F019B8000010B5402008
:103DB00000F05CF8002808BF10BD04480168491CE9
:103DC0000160BDE81040402000F008B8000200206B
:103DD0000149086070470000143C01400149086037
:103DE00070470000143C014070B5012184B0880385
:103DF00001F042F90621002001F0C3FA002540201D
:103E00008DF80450102600908DF8056001248DF87F
:103E10000640684600F034F80121002001F0B1FAB4
:103E200002208DF8045000908DF805608DF8064052
:103E3000684600F025F817208DF8080004258DF855
:103E400009508DF80A508DF80B4002A800F0B4FE1E
:103E500007208DF808008DF809508DF80A508DF86C
:103E60000B4002A800F0A8FE04B070BD034A014652
:103E7000002012680A4218BF01207047143C01401C
:103E8000837921490268002B34D00B6823EA0202AF
:103E90000A60091D0A6803689A430A60017901F102
:103EA000804101F59E310A6803681A430A60174B86
:103EB00019680268914319601A1D1168D0F800C092
:103EC00021EA0C0111604179102908D001F18041EB
:103ED00001F59E310A680068104308607047196850
:103EE000D0F800C041EA0C0119601168006808436D
:103EF00010607047007900F1804000F59E30016845
:103F00009143016070470000003C0140083C0140C3
:103F100001490860704700000C3C02400449002839
:103F2000086814BF40F4806020F480600860704727
:103F3000003C02400248016841F480510160704732
:103F4000003C024030B50546002451B1012908BFAC
:103F50004FF4807405D002290CBF4FF400744FF465
:103F6000407400F061F8092818BF30BD0F4B186885
:103F700020F440701860186820431860186820F01A
:103F8000F8001860186845F00201084318601868C6
:103F900040F48030186000F047F8196821F0020101
:103FA0001960196821F0F801196030BD103C024019
:103FB0000248016841F0004101607047103C024036
:103FC00030B50C46054600F02FF8092818BF30BD63
:103FD0000A4B186820F440701860186840F40070AC
:103FE0001860186840F0010018602C6000F01CF8A0
:103FF000196821F00101196030BD0000103C024039
:104000000548006810F0004F08BF70470349044896
:104010000160044901607047103C0240230167457C
:10402000043C0240AB89EFCD81B009208DF800003F
:1040300001462648026812F4803F18BF012116D1BC
:10404000026812F0100F18BF062110D1026812F496
:10405000807F18BF02210AD1026812F0EF0F18BF4B
:10406000072104D1026812F0020F18BF08218DF851
:1040700000109DF80010012923D10268092112F4D3
:10408000803F18BF012116D1026812F0100F18BF2F
:10409000062110D1026812F4807F18BF02210AD1D4
:1040A000026812F0EF0F18BF072104D1026812F066
:1040B000020F18BF08218DF800109DF8001001298B
:1040C000DBD09DF8000001B0704700000C3C0240BE
:1040D0002DE9F001002201255FF00306D1F800C0B0
:1040E00005FA02F30CEA030C9C4537D107684FEA46
:1040F000420C06FA0CF4A74307600F79D0F8008051
:1041000007FA0CF747EA080707600F79012F18BF75
:10411000022F17D1876827EA040787604F79D0F804
:10412000088007FA0CF747EA08078760476827EA1C
:104130000303436043688F7907FA02F7BFB243EA8B
:1041400007034360C36823EA0403C360CB7903FA1F
:104150000CF3D0F80CC043EA0C03C36002F1010277
:10416000102ABBD3BDE8F00170474B07DB0E9A4025
:10417000C90800EB8100016A4FF00F0C0CFA03F341
:1041800099430162016A11430162704743680A461C
:10419000B3F5807F08BF082144D020DC102B08BF76
:1041A00004213FD00FDC012B08BF00213AD0022BA5
:1041B00008BF012136D0042B08BF022132D0082BC2
:1041C00008BF03212EE0202B08BF05212AD0402B59
:1041D00008BF062126D0802B08BF072122E0B3F5B7
:1041E000805F08BF0C211DD00EDCB3F5007F08BF37
:1041F000092117D0B3F5806F08BF0A2112D0B3F59B
:10420000006F08BF0B210DE0B3F5005F08BF0D2163
:1042100008D0B3F5804F08BF0E2103D0B3F5004F8F
:1042200008BF0F210068FFF7A0BF418370470183DB
:1042300070474FF6FF71016000210171417181717A
:10424000C171704730B40D4D002228462988B5F859
:1042500002C0042330F8044F6144B0F802C0224485
:104260005B1EF7D18818698A08440549A1FB001034
:104270000449C008086030BC70470000660F002089
:10428000CDCCCCCCCC0100200348006810F0010F4D
:1042900000D000BEFEE70000F0ED00E000000000EE
:1042A0002DE9F047504D4FF0FE08074685F8008095
:1042B00068704E48A97000240078E8704C480E469B
:1042C0002C71817E69714B49F0EE000ADFF8309164
:1042D00091ED000ADFF82CA120EE200ABCEEC00A06
:1042E00010EE101AA971444991ED000ABCEEC00A03
:1042F00010EE101AE97101782972407868723F480F
:10430000007840F00200A8720120E87299F80000DD
:104310002873411E002919DDAAF1010105F10C02E3
:1043200010F0010F03D111F8010F02F8010F99F8F5
:1043300000004B78401E401008D000BF11F802CF9B
:1043400053704B7802F802CF401EF7D199F8001055
:10435000481E03D41AF80020284442732A4805EB6B
:10436000010990ED000ABCEEC00A10EE100A89F8AF
:104370000E002648007889F80F002548806AFCF76F
:10438000D3FB9FED251B53EC112BFCF7C6FAFCF772
:10439000B2FB89F81000701E002812DDA91C16F06F
:1043A000010F02D111F8012F54404A78401008D073
:1043B00011F8023F84EA020C4A788CEA0304401E9A
:1043C000F6D1701E02D42844C0784440A819721D4A
:1043D000C47080F804803946BDE8F047024800F018
:1043E00085B9000000000000730E00206501002068
:1043F00044020020C8010020B00100206401002018
:1044000030020020720900200C020020DC01002094
:104410007007002000000000B81E85EB51B89E3FD9
:104420002DE9F04F83B00121082000F001FE0121A9
:10443000072000F0FDFD0121480500F0F9FD0024F2
:104440008DF80440032504278DF8055001260097B8
:104450008DF8076069466948FFF73AFE8DF8044019
:10446000DFF89CB14FF008088DF80550CDF80080BA
:104470008DF8076069465846FFF72AFE8DF804401C
:104480004FF480598DF80550CDF800908DF80760F5
:1044900069465C48FFF71CFE8DF804404FF4004A63
:1044A0008DF80550CDF800A08DF807606946564894
:1044B000FFF70EFEB0038DF8044000908DF8055014
:1044C0008DF8076069464F48FFF702FE70038DF8CC
:1044D000044000908DF805508DF807606946494802
:1044E000FFF7F6FD8DF804408DF8055000968DF825
:1044F000076069464348FFF7EBFD8DF804408DF8EF
:104500000550CDF800A08DF8076069463D48FFF7DB
:10451000DFFD8DF804408DF80550CDF800808DF852
:10452000074069463748FFF7D3FD8DF804408DF802
:10453000055000978DF8074069463248FFF7C8FDDF
:104540008DF804408DF80550CDF800908DF80740A7
:1045500069465846FFF7BCFD8DF804408DF80550BC
:1045600000968DF8074069462748FFF7B1FD8DF8A2
:104570000460F0028DF8064000908DF80550022787
:104580008DF8077069462048FFF7A2FD8DF804609A
:104590008DF806404FF020088DF80550CDF80080CA
:1045A0008DF8077069461848FFF792FD8DF8046092
:1045B00010208DF8064000908DF805508DF807709A
:1045C00069461048FFF784FD8DF804608DF80640B9
:1045D0008DF80550CDF800808DF8077069460948C0
:1045E000FFF776FD0948C0F894420A489FED080A93
:1045F00080ED080A03B0BDE8F08F0000000C024017
:104600000004024000080240000002400000404256
:1046100000000000440200209FED2F1A9FED2C2A7D
:10462000DFED2C2AF5EEC00AB1EE043AF0EE411AA5
:10463000F1EE10FA294807D180ED111A80ED131A16
:1046400080ED121A80ED141A30EEC00A244A80ED73
:10465000110AD0ED130A30EE601A21EE031AB0EE03
:10466000003A02EE801AF0EE402A40EEC32A90EDA6
:10467000143A72EE832A01EEA21AD0ED121A31EE2C
:10468000211A11EE101A80ED121AC0ED140A80EDF5
:10469000130A914212DC134A816C914213D8D0ED77
:1046A000120A9FED110A20EE200AD0ED180A02EE40
:1046B000200A80ED190A80ED180A7047B0EE0C0A46
:1046C00080ED120AE7E7B8EE0C0A80ED120AE6E781
:1046D0000AD7A33CCDCC4C3D000000001C000020BC
:1046E00000006040000060C048E17A3F2DE9F041E1
:1046F0001A4B962A1A7284BF0020BDE8F081BAB125
:10470000411E174812F0010F03D011F801CF00F835
:1047100001CFC2F347025AB191F801C080F801C03D
:1047200011F802CF521E00F802CF12F0FF02F3D1AF
:104730001D7A0C4E0024002D88BF0B4F0BD93988F1
:10474000384611F0400FFAD0315D02F0ABFD601C2D
:10475000C4B2A542F3D80120BDE8F0814402002094
:10476000CE0E0020CF0E00200044004070B4284838
:10477000D0F83062274801230225428B03244FF4EE
:10478000FA6C00211EB10678012E04D018E0521CEC
:104790004283037014E0D61EB6F5F97F38BFC374A8
:1047A0000CD3A2F2F516B6F57A7F38BFC57405D3DF
:1047B000B2F5FA6F24BFC474A0F81AC04183017027
:1047C000154AD2F80062134AD28BDEB18678012EE8
:1047D0001CBF70BC7047D61EB6F5F97F38BF037595
:1047E0000CD3A2F2F513B3F57A7F38BF057505D364
:1047F000B2F5FA6F24BF0475A0F81EC0C1838170A2
:1048000070BC7047511CC183837070BC704700003E
:104810000080404254010020000040422DE9F05F3A
:104820008548D0F83CE2854C854D0226D4E9162116
:1048300002F1010BA27B2079521CD7B2627B401C93
:10484000521C02F0FF0995F8008094F80FA0002593
:10485000D4F880C0D4F88C30626DC0B2BEF1000FC5
:1048600006D1DFF8E0E1DEF830E2BEF1000F08D05B
:10487000DFF8D0E1DEF83CE2BEF1000F40F0B78097
:1048800052E04FF0010E84F805E0DFF8BCE1207142
:10489000714506DBB8F1060F14BFB8F1010FC4F87B
:1048A00058B001280AD0142824BF14202071A06D0C
:1048B000C8287DD3A773012F1AD10FE0581CC4F864
:1048C0008C0090422CBFC4F88800C4F88820A565ED
:1048D000D4F8880050456BD1E56488E084F80D90E9
:1048E0005A48C4F84CC0C4F888500580C4F88050B9
:1048F00001202073E07256485421057055486566C2
:10490000FBF7D7FC022F88BFA673607B022888BF05
:1049100066734B48B8F1060F60D0B8F1010F04BFC1
:10492000617B022960D062E0DFF818E1DEF800E286
:10493000BEF1000F5BD14FF0010E84F806E0DFF806
:1049400008E12071714506DBB8F1060F14BFB8F11C
:10495000010FC4F858B001280AD0142824BF14202D
:104960002071A06DC82842D3A773012F18D10DE084
:10497000501C606583422CBFC4F88830C4F888009E
:10498000A565D4F88800504531D1A5E784F80D908D
:104990002E48C4F84CC0C4F888500580C4F8805034
:1049A00001202073E0722A4854210570294800E054
:1049B0001DE06566FBF77DFC022F88BFA673607B58
:1049C000022888BF66731E48B8F1060F06D0B8F1FA
:1049D000010F04BF617B022906D008E04FF00301FC
:1049E00001701D48067002E006701B4806701248F0
:1049F000D0F83C0201280ED11248D0F8301201291B
:104A000001BFD0F83C120129D0F80002012802D1E0
:104A100065712571A573D4F88800002804BFC4F817
:104A20008C506565D4F88000002804BFC4F8845019
:104A30002565BDE8F09F00000000404254010020C1
:104A40004502002000004142000020415E0200209B
:104A500048020020A008002046020020FEE70000D7
:104A600070B50A48FCF7B1FC094D0A4C29462046AE
:104A7000FEF74CFE0028F9D029462046FEF720FD1F
:104A800001212046FEF732FD034870BD00200140A1
:104A90002000001010640240A80200202DE9F0431D
:104AA0009DB00121042000F0C3FA1AA8FFF7C1FB52
:104AB00003208DF86C0000248DF86E4002258DF8DF
:104AC0006F401A958DF86D501AA93548FFF700FB15
:104AD0000121080200F0D0FA16A8FCF7EBFB4FF416
:104AE0004070EE03CDE91840CDE9164616A8FCF754
:104AF000CBFB10A8FCF76EFC8DF8454001208DF82B
:104B000044004FF0C060CDE91240264F1094149439
:104B10008DF8545010A93846FCF7E4FB032301221A
:104B20000B213846FCF708FC01213846FCF7C8FB8E
:104B300001213846FCF7CDFB0121DFF86C90DFF84E
:104B40006C80880500F074FA6846FEF735FE28038D
:104B50000890C0100690CDE90049CDF808804000CB
:104B6000079005940D940E94CDE9034504200A9610
:104B70000994CDE90B040E4C2046FEF7BBFD01283D
:104B8000FAD069462046FEF7DBFD01212046FEF7FC
:104B9000ADFC01213846FCF76EFB1DB0BDE8F0838B
:104BA00000080240002001404C200140A8020020E3
:104BB000106402407047000010B4C27801780F24DE
:104BC0004FF0010C0AB3174A126801F1E02102F418
:104BD000E062C2F5E062C2F30722C2F10403D440EE
:104BE00042789A40837823401A43120181F80024C6
:104BF000007800F01F010CFA01F14009800000F17B
:104C0000E020C0F8001110BC704701F01F000CFA42
:104C100000F04909890001F1E021C1F8800110BCD0
:104C2000704700000CED00E0034940F0FD7040F0DB
:104C300080600860704700000CED00E02DE9F8434B
:104C40000327DDE908452C44022694F8348000242B
:104C50000125DDF828C0B8F1070F7DD2DFE808F0A4
:104C600004152738495A6C008CF801508CF8024022
:104C70008CF803408CF804408CF805508CF8064002
:104C80008CF807408CF8084066E08CF801508CF8EE
:104C900002408CF803408CF8044006258CF805503F
:104CA0008CF806408CF807408CF8084054E08CF8EB
:104CB00001608CF802408CF803408CF804408CF8BA
:104CC00005508CF806408CF807408CF8084043E00B
:104CD0008CF801608CF802408CF803408CF804409A
:104CE0008CF805608CF806408CF807408CF808407A
:104CF00032E08CF801708CF802408CF803408CF89C
:104D000004408CF805508CF806408CF807408CF86D
:104D1000084021E08CF801708CF802408CF80340C8
:104D20008CF8044005258CF805508CF806408CF86A
:104D300007408CF808400FE08CF801708CF80240B6
:104D40008CF803408CF804408CF805708CF8064011
:104D50008CF807408CF80840CDF800C000F078F8D7
:104D6000BDE8F88338B5DDE9044504EB8504DDF8DA
:104D700018C094F87A508CF8015094F87B508CF855
:104D8000025094F87C508CF8035094F87D508CF8C5
:104D9000045094F88A508CF8055094F88B508CF895
:104DA000065094F88C508CF8075094F88D408CF88D
:104DB0000840CDF800C000F04BF838BD38B5DDE94B
:104DC000044504EB8504DDF818C0257C8CF80150FF
:104DD000657C8CF80250A57C8CF80350E57C8CF83F
:104DE000045094F820508CF8055094F821508CF819
:104DF000065094F822508CF8075094F823408CF811
:104E00000840CDF800C000F023F838BD014802F09A
:104E100099BB0000BC18002010B582B008480321DF
:104E2000CDE9001000234FF4806206A1074807F087
:104E30003FF8044604F0B0FE046202B010BD00006A
:104E40006A0500204F44524956450000819C0008E5
:104E50002DE9F0478A4607461D4691460026142153
:104E60000820DDF8208004F005FA09EB4A11016002
:104E700000210172417204468572002D4FD005F069
:104E8000070208F101000B46B2F1010C0AD400BF81
:104E900004EB010910F8018B491C5B1C89F80B809D
:104EA0006345F5DDAA423ADA04EB010C10F8013B48
:104EB0008CF80B30491C04EB010C10F8013B8CF80A
:104EC0000B30491C04EB010C10F8013B8CF80B3043
:104ED000491C04EB010C10F8013B8CF80B30491C09
:104EE00004EB010C10F8013B8CF80B30491C04EB6F
:104EF000010C10F8013B8CF80B30491C04EB010C41
:104F000010F8013B8CF80B30491C04EB010C10F835
:104F1000013B491C08328CF80B30AA42C4DB214605
:104F20003846FDF79FFE804601463846FDF7FCFEF9
:104F3000002808BF40F6FF7509D1701C86B2AE424A
:104F400005D241463846FDF7EFFE0028F5D0204651
:104F5000BDE8F0471422082104F0A6B92DE9F0417C
:104F600088460746164600241421082004F082F9DA
:104F7000054606EB4810286012206860002129725F
:104F8000697229463846FDF76DFE8046014638466F
:104F9000FDF7CAFE002808BF40F6FF7609D1601C65
:104FA00084B2B44205D241463846FDF7BDFE002822
:104FB000F5D02846BDE8F0411422082104F074B968
:104FC00010B5134CA06FFBF789FD9FED131B53EC3D
:104FD000112BFBF7A2FC9FED121B53EC112BFBF7DF
:104FE0009CFC9FED111B53EC112BFBF796FCFBF780
:104FF000C7FD00EE100AF2EE040A84ED1D0A20EE51
:10500000200ABCEEC00A10EE100AA08610BD0000F7
:1050100054010020000000006666666666660A406D
:105020000000000000003340000000000000303F9E
:10503000044A0029116814BF084321EA00001060E7
:105040007047000030380240044A0029116814BF3C
:10505000084321EA00001060704700004038024019
:10506000044A0029116814BF084321EA00001060B7
:105070007047000020380240044A0029116814BF1C
:10508000084321EA000010607047000044380240E5
:10509000254A30B41168254B11F00C0106D05C1084
:1050A000042908BF046002D008291ED003601168DB
:1050B0000F2303EA11111E4B595CD0F800C02CFAE3
:1050C00001F14160D2F800C0072404EA9C2C13F8D7
:1050D0000CC021FA0CFCC0F808C0126804EA523275
:1050E0009A5CD140C16030BC70471249D1F800C011
:1050F000CCF38055D1F800C0002D0CF03F0C14BF4C
:10510000B4FBFCF3B3FBFCF3D1F800C00968CCF3AB
:10511000881C03FB0CF3C1F30141491C4900B3FB9C
:10512000F1F10160C3E70000083802400024F400F8
:10513000DC0300200438024070B50C46054600F040
:1051400073F82649FE2226480A704D708C7000784C
:10515000C87024480088030A0B71487122480088EF
:10516000030A8B71C8712148112300780872204806
:10517000007848721F48007888721F480078C8720B
:105180001E48007808731E48007848731D48007850
:1051900088731D480078C8731C48007808741C4840
:1051A00000784874012088741A480078C8741A4836
:1051B000007808751948007848751948007888758E
:1051C00018480078C87508192946C3700271621D15
:1051D000BDE870400148FFF789BA0000960E002034
:1051E000650100202E0200203C0200203002002039
:1051F00063010020640100203402002031020020FD
:105200003202002033020020350200203602002046
:105210003702002038020020390200203A02002024
:105220003E0200203F02002070B50020FEF71CFC6B
:105230002D4908800220FEF7ABFB2C492C4C2D4D4C
:1052400008702078012816BF03200C20FEF7A0FB71
:1052500028700420FEF79CFB274908700520FEF704
:1052600097FB264908700620FEF792FB2449087038
:105270000720FEF78DFB234908700820FEF788FB06
:10528000214908700920FEF783FB204908700A2095
:10529000FEF77EFB1E4908700B20FEF779FB1D49C7
:1052A00008700C20FEF774FB1B4908700D20FEF7F8
:1052B0006FFB1A4908700E20FEF76AFB1849087048
:1052C0000F20FEF7D1FB174908801120FEF760FB85
:1052D000154908701220FEF75BFB14490870132073
:1052E000FEF756FB207070BD2E02002063010020E7
:1052F00065010020300200206401002031020020FE
:105300003202002033020020340200203502002047
:105310003602002037020020380200203902002027
:105320003A0200203C0200203E0200203F02002002
:10533000002102280CD0032810D0042813D00528FF
:105340001CBF002070470A4A1068116000B2704705
:105350004FF08042506A516200B27047054A1068AF
:10536000116000B27047044A1068116000B27047C3
:10537000240C00402404004024080040704770477B
:1053800070478A0721F0030101F1804101F598314E
:10539000120F0F23D1F808C893402CEA0303C1F879
:1053A0000838D1F8083890401843C1F80808704709
:1053B000DFF834C0009912F0FF0FCCF848000FD18D
:1053C0000CF19700120E027043701A0A82701A0CC8
:1053D000C2701A0E027141710A0A8271090CC17100
:1053E00001208CF803007047540100202DE9F0479C
:1053F000844D834FDFF8109229784FF000087854DD
:10540000491C2970AA68A7F548718854501CA860E7
:10541000B0F5C87F05DA084410F8010C0A2840F0FE
:10542000B580022279A17B48FAF74EFF7A4C01261B
:1054300070B904F1480279A17648FAF755FFA06CDB
:1054400000EE100AB1EE400A10EE100AE0646E7130
:10545000022274A16F48FAF737FF28B904F1380225
:1054600072A16C48FAF740FF042272A16948FAF76A
:105470002BFF4FF01B0A40B984F830A0052084F8B8
:10548000340084F86E6084F8686004226BA161487F
:10549000FAF71AFF40B984F830A0032084F83400EA
:1054A00084F86E6084F86860042266A15948FAF7AF
:1054B0000BFF002804BF84F830A084F8686009223C
:1054C00062A15448FAF700FF38B9534A62A1514823
:1054D000FAF70AFF206860606E71092262A14D48E8
:1054E000FAF7F2FE40B904F1100262A14948FAF756
:1054F000FBFE206960616E71142262A14548FAF7D3
:10550000E3FE40B904F1200264A14248FAF7ECFE40
:10551000206A60626E71042266A13E48FAF7D4FEEA
:1055200038B9664C66A1A21C3A48FAF7DDFE84F849
:105530000080042264A13748FAF7C6FE644C38B9EB
:10554000C4F8098009F1020262A13248FAF7CCFEE0
:10555000042262A12F48FAF7B7FE20B9614A62A17E
:105560002C48FAF7C1FE022261A12A48FAF7ACFEE4
:1055700028B904F1090260A12648FAF7B5FE4FF4F4
:10558000C8712448FAF795FEC5F808803878FC28D9
:105590001FBF7878052885F80080BDE8F087287857
:1055A000042838BFBDE8F087F878B97841EA0020D0
:1055B00000B241F27B4110FB01F1CA14A2EBE17190
:1055C00000EE101A4E4981FB00214A11A2EBE17155
:1055D0006FF01802514300EB810000EE900AB8EE24
:1055E000C00AF8EEE00A9FED471A00EE810A10EEBD
:1055F000100AC9F8020085F80080BDE8F0870000B5
:10560000D0210020C803002046010020563D0A207A
:1056100000000000B01E0020D0040020563D25668A
:105620000A000000503D0A2000000000503D2566A1
:105630000A000000506F730A2000000056656C0AD3
:10564000200000005365740A20000000506F735F53
:105650006761696E3D0A2000506F735F6761696E14
:105660003D25660A0000000056656C5F6761696E43
:105670003D0A200056656C5F6761696E3D25660ACC
:105680000000000056656C5F696E74656772617436
:105690006F725F6761696E3D0A20000056656C5F3E
:1056A000696E7465677261746F725F6761696E3D80
:1056B00025660A004F59593D0A200000400100208C
:1056C0004F59593D25660A004D4F413D0A200000C3
:1056D000B80700204D4F413D25660A004D4F423D21
:1056E0000A200000640200204D4F423D25660A005A
:1056F000463D0A2000000000463D25640A000000E7
:105700001F85EB510AD7233C2DE9F047824D814993
:1057100000276A788854521CD2B26A700B78FC2B2E
:105720001FBF4B78052B6F70BDE8F087042A38BF88
:10573000BDE8F087CA78897841EA022109B241F2CE
:105740007B4211FB02F2D314A3EBE27200EE102AAB
:10575000724A82FB01325311A3EBE2726FF018031D
:105760005A4301EB820100EE901AB8EEC00AF8EE3F
:10577000E00A9FED6B1ADFF8AC8100EE810A10EEB3
:10578000101AC8F802106F706749EA688854501CF4
:10579000E860B0F5C87F06DA084410F8010C0A2862
:1057A00018BFBDE8F087022260A15F48FAF78CFDC0
:1057B000604C012670B904F148025FA15A48FAF71B
:1057C00093FDA06C00EE100AB1EE400A10EE100A34
:1057D000E0646E7102225AA15348FAF775FD28B9A8
:1057E00004F1380258A15048FAF77EFD042258A16E
:1057F0004D48FAF769FD4FF01B0940B984F8309025
:10580000052084F8340084F86E6084F8686004220F
:1058100051A14548FAF758FD40B984F8309003206B
:1058200084F8340084F86E6084F8686004224CA127
:105830003D48FAF749FD002804BF84F8309084F809
:105840006860092248A13848FAF73EFD38B9394A5C
:1058500048A13548FAF748FD206860606E7109225A
:1058600048A13148FAF730FD40B904F1100248A1CF
:105870002D48FAF739FD206960616E71142248A144
:105880002948FAF721FD40B904F120024AA126482F
:10589000FAF72AFD206A60626E7104224CA1224848
:1058A000FAF712FD30B94C4C4CA1A21C1E48FAF775
:1058B0001BFD277004224BA11B48FAF705FD4B4C3A
:1058C00038B9C4F8097008F1020249A11648FAF77C
:1058D0000BFD042248A11448FAF7F6FC30B9C4F8CD
:1058E0000960474A47A11048FAF7FEFC022247A187
:1058F0000D48FAF7E9FC28B904F1090245A10A4864
:10590000FAF7F2FC4FF4C8710748FAF7D2FCEF60DF
:10591000BDE8F087CA220020C80300201F85EB5194
:105920000AD7233C4601002040200020563D0A2093
:1059300000000000D0040020563D25660A0000004B
:10594000503D0A2000000000503D25660A0000007E
:10595000506F730A2000000056656C0A200000009A
:105960005365740A20000000506F735F6761696EB1
:105970003D0A2000506F735F6761696E3D25660ABE
:105980000000000056656C5F6761696E3D0A20008B
:1059900056656C5F6761696E3D25660A0000000010
:1059A00056656C5F696E7465677261746F725F676C
:1059B00061696E3D0A20000056656C5F696E746512
:1059C000677261746F725F6761696E3D25660A0078
:1059D0004F59593D0A200000400100204F59593DC0
:1059E00025660A004D4F413D0A200000B8070020FF
:1059F0004D4F413D25660A004D4F423D0A200000B3
:105A00004E0100204D4F423D25660A00463D0A20CA
:105A100000000000463D25640A00000010B501208A
:105A200080F31188BFF34F8FBFF36F8F06F01AFB1F
:105A300018B104494FF080500860002080F31188AD
:105A400010BD000004ED00E0374882B0016841F469
:105A5000700101603548016841F00101016034497D
:105A600000230B60026822F4102222F08072026090
:105A700000F1040C2F4ACCF80020026822F48022A6
:105A800002600A1D136001930093026842F48032A1
:105A90000260026802F400320092019A521C0192E4
:105AA000009A1AB9019AB2F5A04FF2D1026812F425
:105AB000003F08BF009331D0012200921E4A1368B4
:105AC00043F0805313601D4A136843F4404313604E
:105AD0000A680A600A6842F400420A600A6842F4EE
